:020000040800F2
:10000000201A0020E1020008BF0C00083F0B000886
:10001000BD0C0008C10500082911000800000000FF
:10002000000000000000000000000000290200089D
:10003000C3050008000000007D020008C10C000894
:10004000FB020008FB020008FB020008FB0200089C
:10005000FB020008FB020008FB020008FB0200088C
:10006000FB020008FB020008FB020008FB0200087C
:10007000FB020008FB020008FB020008FB0200086C
:10008000FB020008FB020008FB020008FB0200085C
:10009000FB020008FB020008FB020008FB0200084C
:1000A000FB020008FB020008FB020008FB0200083C
:1000B000FB020008FB020008FB020008FB0200082C
:1000C000FB020008FB020008FB020008FB0200081C
:1000D000FB020008FD100008FB020008FB020008FC
:1000E000FB020008FB020008FB020008FB020008FC
:1000F000FB020008FB020008FB020008FB020008EC
:10010000FB020008FB020008FB020008FB020008DB
:10011000FB020008FB020008FB020008FB020008CB
:10012000FB020008FB020008FB020008FB020008BB
:10013000FB020008FB020008FB020008FB020008AB
:10014000FB020008FB020008FB020008FB0200089B
:10015000FB020008FB020008FB020008FB0200088B
:10016000FB020008FB020008FB020008FB0200087B
:10017000FB020008FB020008FB0200080000000070
:10018000FB020008FB02000800F002F800F03CF857
:100190000AA090E8000C82448344AAF10107DA45E2
:1001A00001D100F031F8AFF2090EBAE80F0013F0F8
:1001B000010F18BFFB1A43F001031847D4280000B1
:1001C000F4280000103A24BF78C878C1FAD8520742
:1001D00024BF30C830C144BF04680C6070470000C1
:1001E0000023002400250026103A28BF78C1FBD840
:1001F000520728BF30C148BF0B6070471FB502F0DF
:100200003DFC1FBD10B510BD00F093F91146FFF77E
:10021000F5FF01F017F800F0C5F903B4FFF7F2FF9E
:1002200003BC00F092FF00002A4B19680868B0E890
:10023000F04F80F30988BFF36F8F4FF0000080F319
:10024000118870470000000006480068006880F3CD
:10025000088862B661B6BFF34F8FBFF36F8F00DFC0
:1002600000BF00BF08ED00E0DFF80C00016841F4BA
:1002700070010160704700BF88ED00E0EFF3098076
:10028000BFF36F8F134B1A681EF0100F08BF20EDDD
:10029000108A20E9F04F106008B44FF0500080F34E
:1002A0001188BFF34F8FBFF36F8F01F0D1FE4FF076
:1002B000000080F3118808BC19680868B0E8F04FA6
:1002C0001EF0100F08BFB0EC108A80F30988BFF34E
:1002D0006F8F704724000020EFF305807047000007
:1002E0000948804709480047FEE7FEE7FEE7FEE7CA
:1002F000FEE7FEE7FEE7FEE7FEE7FEE70448054906
:10030000054A064B70470000D50C0008890100081B
:1003100020140020201A0020201600202016002083
:10032000704700000FB4044910B503AA029800F00A
:1003300057F810BC5DF814FB1C000020032A40F2A3
:10034000308010F0030C00F0158011F8013BBCF177
:10035000020F624498BF11F801CB00F8013B38BF8F
:1003600011F8013BA2F1040298BF00F801CB38BF9D
:1003700000F8013B11F0030300F04480083AC0F09C
:10038000088051F8043B083A51F804CBA0E8081063
:10039000F5E7121D5CBF51F8043B40F8043BAFF396
:1003A0000080D20724BF11F8013B11F801CB48BFF0
:1003B00011F8012B24BF00F8013B00F801CB48BF26
:1003C00000F8012B704702F0FF0343EA032242EAE0
:1003D000024200F04BB8704770477047704700000A
:1003E000074B70B50D467B4400F065F8044628467F
:1003F00000F074F810B14FF0FF3070BD204670BDB2
:10040000070E000010B5203AC0F00B80B1E818507C
:10041000203AA0E81850B1E81850A0E81850BFF4EE
:10042000F5AF5FEA027C24BFB1E81850A0E818508D
:1004300044BF18C918C0BDE810405FEA827C24BFE1
:1004400051F8043B40F8043B08BF7047D20728BF6F
:1004500031F8023B48BF11F8012B28BF20F8023BBE
:1004600048BF00F8012B70474FF000020429C0F08C
:10047000128010F0030C00F03780CCF1040CBCF1BA
:10048000020F18BF00F8012BA8BF20F8022BA1EB28
:100490000C0100F029B85FEAC17C24BF00F8012BF1
:1004A00000F8012B48BF00F8012B704701694A1C76
:1004B00002610878704700B58FB0CDE901310021A5
:1004C000059105497944CDE903101146684600F0CD
:1004D00055F80FB000BD0000E5FFFFFF007B00F006
:1004E000800070474FF0000200B5134694469646D0
:1004F000203922BFA0E80C50A0E80C50B1F1200137
:10050000BFF4F7AF090728BFA0E80C5048BF0CC0E4
:100510005DF804EB890028BF40F8042B08BF704742
:1005200048BF20F8022B11F0804F18BF00F8012BB4
:100530007047754600F040F8AE46050069465346E0
:1005400020F00700854618B020B5FFF7D7FEBDE8BC
:1005500020404FF000064FF000074FF000084FF02A
:10056000000B21F00701AC46ACE8C009ACE8C009BB
:10057000ACE8C009ACE8C0098D4670472DE9F041F0
:1005800006460024D6E90170F5688046304603E04F
:100590004146B847641C3046A8470028F8D1204699
:1005A000BDE8F08110B50446AFF300802046BDE8F9
:1005B0001040FFF732BE000000487047C013002013
:1005C000FEE7704790F83510022903D0802141657D
:1005D00001207047052180F835100068016821F07E
:1005E00001010160002070472DE9F84FDFF88C9180
:1005F000002209F1040A0AF1040B4FF00F080BF175
:10060000040E01260B6896403340B34271D14C680A
:10061000022C01D0122C11D1D40800EB84073D6AC2
:100620005407E40E08FA04FC25EA0C05D1F810C0C2
:100630000CFA04FC4CEA050CC7F820C0076854000B
:10064000032591F804C0A5400CF0030CAF430CFA4D
:1006500004FC4CEA070CC0F800C04F68012F05D01D
:10066000022F03D0112F01D0122F11D18768D1F89A
:100670000CC0AF430CFA04FC4CEA070CC0F808C0ED
:100680004768B7430E79C6F3001696403E4346606E
:10069000C668AE438D68A5403543C5604C68E4002C
:1006A00065D5374C256845F480452560246822F0DF
:1006B000030504F480440094324C2E19D6F80878CF
:1006C0009407250F08FA05F4A7432F4CA04201D147
:1006D000002424E02D4CA04201D101241FE02C4C29
:1006E000A04201D102241AE02A4CA04202D10324E4
:1006F00015E03CE0284CA04201D104240FE0274C37
:10070000A04201D105240AE0254CA04201D10624D3
:1007100005E0244CA04201D1072400E00824AC40AD
:100720003C43C6F80848D9F800404D464E689C4303
:10073000F60300D51C432C60DAF8004055464E689D
:100740009C43B60300D51C432C60DBF800405D469B
:100750004E689C43F60200D51C432C60DEF8004036
:1007600075464E689C43B60200D51C432C60521C53
:10077000102AFFF446AFBDE8F88F0000003C0140AE
:1007800044380240003001400000024000040240B2
:1007900000080240000C0240001002400014024019
:1007A00000180240001C02400069084000D00120EF
:1007B00070470AB1816170470904FBE7002809DB33
:1007C00000F01F02012191404009800000F1E0206B
:1007D000C0F8001170470000F0B40E4B1B68C3F363
:1007E0000223C3F10704042C00D904241D1D072D86
:1007F00001D2002300E0DB1E012606FA04F56D1E7F
:100800000D409D409E40761E164045EA0601F0BC14
:1008100000F08BBC0CED00E0064A00F00701106808
:100820004FF6FF03184040EA0120034908431060D7
:10083000704700000CED00E00000FA05044805498F
:1008400000680968044AC1F38221515CC8407047BE
:100850000000002008380240862A000804480549A4
:1008600000680968044AC1F34231515CC8407047CE
:100870000000002008380240862A00084FF0E021DE
:100880000428086903D020F004000861704740F094
:100890000400FAE7704710F8391F407808437047A2
:1008A00070B5026804461068D168536910F00F0FE4
:1008B00050D003F0010501F4907635435DD0C207B6
:1008C00005D0CA0503D5E26B42F00102E26342079C
:1008D00005D5DA0703D0E26B42F00202E263820739
:1008E00005D5DA0703D0E26B42F00402E2630207A7
:1008F00005D5DA0703D0E26B42F00802E263E26B4F
:10090000002A33D0800604D5880602D5204600F0A0
:1009100021FA20684069E16BC0F38010090700D418
:1009200028B3204600F008FA2068416949061AD524
:10093000416921F040014161606BA0B11B49016533
:10094000606BFFF73FFE002810D0606B016DBDE8C3
:1009500070400847830610D58B060ED52046BDE8AB
:10096000704000F0F7B92046FFF794FF70BD2046B5
:10097000FFF790FF0020E06370BD030606D50B066D
:1009800004D52046BDE8704000F086BB4006F3D594
:100990004806F1D5D168204621F04001D1602021E0
:1009A00084F8391000F0CAF870BD0000290D000865
:1009B00070B5040004D094F83900002510B106E0A9
:1009C000012070BD84F83850204600F023F8242020
:1009D00084F839002068C16821F40051C1602046C4
:1009E00000F004FA2068016921F490410161206857
:1009F000416921F02A0141612068C16841F4005138
:100A0000C160E563202084F8390084F83A000020B2
:100A100070BD000010B500681A4986B088422FD119
:100A20001948016841F001010160006800F001000F
:100A3000059015481430016841F01001016000680C
:100A4000012100F0100005904FF40070009002208A
:100A5000CDE90101039007200C4C04906946204623
:100A6000FFF7C2FD2115009169462046FFF7BCFD46
:100A70002520FFF7A3FE032211462520FFF7ACFE39
:100A800006B010BD001001403038024000000240A6
:100A900090F83A30202B22D1F9B1F2B190F83830E9
:100AA000012B1CD081628285C2850021C163222274
:100AB00080F83A2080F838100168CA6842F48072E1
:100AC000CA6001684A6942F001024A610068C1686F
:100AD00041F02001C16000207047012070470220D2
:100AE0007047000030B50068114988420CD1114AA6
:100AF0005088010408D41146440409784FF00003DB
:100B000006D50A2901D0538030BD40F400400DE0E5
:100B10000D2909D0C0F30D04074D401C80B22955A2
:100B20005080C728EFD830BD40F48040508030BDA1
:100B30000010014018000020C01000207047FEE7A0
:100B400070B5144886B00025016841F001010160CC
:100B5000016801F001010591016841F01001016097
:100B60000068032400F01000059002200126CDE962
:100B70000204CDE9006569460748FFF735FD1C20F2
:100B800003948DE8610069460448FFF72DFD06B027
:100B900070BD0000303802400000024000100240EA
:100BA0002DE9F04101262E4C2E4F2F4D01281DD04E
:100BB0002078A0B110212846FFF7F6FDC0B108212A
:100BC0002846FFF7F1FD98B104212846FFF7ECFD18
:100BD00070B101213846FFF7E7FD012808D0102148
:100BE0002846FFF7E1FD012826D037E02670E1E72F
:100BF0000A2000F0C7FA0020207010212846FFF7D5
:100C0000D3FD80B108212846FFF7CEFD70B1042145
:100C10002846FFF7C9FD58B101213846FFF7C4FD4A
:100C2000012807D01AE00120BDE8F0810220FBE78F
:100C30000320F9E70420F7E708212846FFF7B4FD71
:100C400001280BD104212846FFF7AEFD012805D16C
:100C500001213846FFF7A8FD00B926700020E3E720
:100C6000200000200000024000100240114810B592
:100C7000016886B041F02001016000680E4C00F070
:100C8000200005904FF4C060009001200190029078
:100C90000320039069462046FFF7A6FC012251027B
:100CA0002046FFF786FD012291022046FFF781FDD5
:100CB00006B010BD3038024000140240FEE7704715
:100CC00010B501F01DFD012803D0BDE8104001F072
:100CD0005FBA10BD1048016841F4700101600F480F
:100CE000016841F0010101600C4A002108321160E5
:100CF00002680B4B1A400260031D0A4A1A60026820
:100D000022F48022026005480C3001600249580636
:100D1000803908607047000088ED00E0003802402C
:100D2000FFFFF6FE1030002410B5806B0021C18556
:100D3000C184FFF7AFFD10BD0168CA6822F490724C
:100D4000CA6001684A6922F001024A61202180F8E4
:100D50003A10704710B590F83A10222901D00220BD
:100D600010BD8168B1F5805F11D00169002901686B
:100D70001FD0496801F07F03816A4A1C82620B70B0
:100D8000C18D491E0904090CC18518D02BE00269E8
:100D9000816A002A0268526805D0D2B20A80816A4C
:100DA000491C8162ECE7C2F308020A80816A891C4F
:100DB000F7E74A68816A4B1C83620A70E0E70168C2
:100DC000CA6822F02002CA600168CA6822F48072F0
:100DD000CA6001684A6922F001024A61202180F854
:100DE0003A10FFF77FFE002010BD00002DE9F04112
:100DF000044600680169E26821F440511143016131
:100E0000A1682069E26901436069104301432068D9
:100E1000C26849F20C639A430A43C2602068416980
:100E2000A26921F4407111434161E0696425B0F584
:100E3000004F974A974920684FF032083FD08842C8
:100E400001D090427CD1FFF709FD00EBC00101EB1E
:100E5000001061688900B0FBF1F6FFF7FFFC00EBC2
:100E6000C00101EB001061688900B0FBF1F0B0FB3C
:100E7000F5F06FF01801484306EB800108EB011014
:100E8000B0FBF5F000F0F006FFF7E8FC00EBC00166
:100E900001EB001061688900B0FBF1F0B0FBF5F0E8
:100EA00006EB0016FFF7DAFC00EBC00101EB0010C7
:100EB00061688900B0FBF1F7FFF7D0FCD2E088420F
:100EC00001D090423DD1FFF7C9FC00EBC00101EB1E
:100ED000001061684900B0FBF1F0B0FBF5F00601CD
:100EE000FFF7BCFC00EBC00101EB0010616849009A
:100EF000B0FBF1F7FFF7B2FC00EBC00101EB001013
:100F000061684900B0FBF1F0B0FBF5F06FF018013B
:100F1000484307EB800108EBC100B0FBF5F000F09F
:100F2000F80006EB4006FFF799FC00EBC00101EB6F
:100F3000001061684900B0FBF1F7FFF78FFC3CE05F
:100F400055E0FFF77BFC00EBC00101EB001061688E
:100F50004900B0FBF1F0B0FBF5F00601FFF76EFCC5
:100F600000EBC00101EB001061684900B0FBF1F734
:100F7000FFF764FC00EBC00101EB00106168490061
:100F8000B0FBF1F0B0FBF5F06FF01801484307EB50
:100F9000800108EBC100B0FBF5F000F0F80006EBB3
:100FA0004006FFF74BFC00EBC00101EB001061684D
:100FB0004900B0FBF1F7FFF741FC00EBC00101EB8A
:100FC000001061684900B0FBF1F0B0FBF5F06FF084
:100FD0001801484307EB800108EBC100B0FBF5F0B6
:100FE00000F00700216830448860BDE8F081FFF719
:100FF00025FC00EBC00101EB001061688900B0FB2B
:10100000F1F6FFF71BFC00EBC00101EB001061687B
:101010008900B0FBF1F0B0FBF5F06FF01801484328
:1010200006EB800108EB0110B0FBF5F000F0F006D4
:10103000FFF704FC00EBC00101EB001061688900C0
:10104000B0FBF1F0B0FBF5F006EB0016FFF7F6FB96
:1010500000EBC00101EB001061688900B0FBF1F703
:10106000FFF7ECFB00EBC00101EB001061688900A9
:10107000B0FBF1F0B0FBF5F06FF01801484307EB5F
:10108000800108EB0110B0FBF5F000F00F00A9E7BC
:10109000001401400010014090F83910212901D0BE
:1010A000022070478168B1F5805F016A0BD04A1C4D
:1010B0000262026809785160C18C491E0904090C5A
:1010C000C1840ED017E009880268C1F3080151609D
:1010D00001690029016A02D0491C0162ECE7891C00
:1010E000FBE70168CA6822F08002CA600068C16834
:1010F00041F04001C16000207047000010B5084871
:10110000FFF7CEFB0648FFF7C6FB2028FAD10122E5
:1011100004490348FFF7BCFC0028F8D110BD0000CB
:101120008811002018000020FEE70907090E00289A
:1011300004DB00F1E02080F80014704700F00F009D
:1011400000F1E02080F8141D7047704710B5044688
:101150000420FFF793FB0A484FF47A71047014FBE4
:1011600001F1012242804FF0E020026942F00202C8
:1011700002614161016941F00101016110BD00009E
:101180001400002070B5044601F0BAFA01280CD012
:10119000094D6888844203D3B4FBF0F000F004FEEC
:1011A0006888B4FBF0F100FB11444FF47A7060439F
:1011B000BDE8704000F002B81400002070B54FF098
:1011C000E02500216C69094AAB6912785043AA698D
:1011D0009A42FCD002D2A3EB020302E0A4EB020687
:1011E0003344194413468142F1D370BD14000020EA
:1011F00003490A685206FCD5C2B24A607047000033
:10120000001001400EB5094A0120A2F500718DE8D9
:1012100007000023802206A1084801F045FA08498A
:101220000860BDE80E4000F0C9BE00009802002032
:1012300073746172745F7461736B0000CD19000880
:101240000400002010B50420FFF7E6FAA820FFF7FD
:101250007DFF4FF4E13000F061FCFFF707FDFFF781
:101260006FFCFFF7CFFF002010BD00002DE9F0411B
:10127000184E0F460446F5683068001D00F06AFC01
:1012800038B9306890F82C100120884031698143CA
:101290003161601C07D137B13168BDE8F0410E48BB
:1012A000091D00F0A5BC30682C44AC424460316894
:1012B00005D2B06BBDE8F041091D00F081BC706B38
:1012C000091D00F07DFCB06A844200D2B462BDE822
:1012D000F0810000240000207C1200202DE9F04164
:1012E000054600F091FC2E4EB068401CB06030689E
:1012F0002C4F10B1706940B32DE03560B068012803
:1013000029D1002404EB840007EB800000F04AFCA4
:10131000641C052CF6D32348643000F043FC2148BC
:10132000783000F03FFC1F488C3000F03BFC1D483B
:10133000A03000F037FC1B48B43000F033FC1948F3
:10134000643070631430B06305E03068E96AC06AE5
:10135000884200D83560706A0121401C70622864A0
:10136000E86A326981401143316100EB800007EB8C
:101370008000291D00F03CFC00F066FC706900282C
:101380000CD03068E96AC06A884207D206494FF03B
:1013900080500860BFF34F8FBFF36F8FBDE8F081BF
:1013A00024000020C811002004ED00E038B500F052
:1013B0002BFC104C2068C8B90F4800F0F3FB0E4816
:1013C000143000F0EFFB0C48E060143020610A4B51
:1013D0000020C83B009003F150020C210A2000F0CD
:1013E000EDFE206010B105A100F0AAFCBDE8384078
:1013F00000F02ABC6000002058130020546D725188
:101400000000000070B5124E124D1CE000F018FEF6
:10141000306820B1002401F071FAA4B901E0012480
:10142000F9E700F0F1FBF068C468201D00F092FBC2
:10143000A868401EA8606868401E686000F004FC50
:10144000204600F052F868680028DFD170BD000027
:10145000681200202400002030B4026C0B46002AE1
:101460000BD0C1681144C1604468A14201D3016836
:10147000C16030BC1846FEF761BF30BC70472DE933
:10148000F041856B174604460026026C82B1C7B155
:10149000E068FEF753FFE168206C091AE1602268FA
:1014A000914202D26168081AE060022F16D017E05C
:1014B0002068A8B9606801F09BF9064600206060CA
:1014C0000EE0A068FEF73AFF216CA0680844A06017
:1014D0006168884204D32068A06001E005B16D1EF8
:1014E0006D1CA5633046BDE8F08110B5044690F848
:1014F000550058B101280CD002280FD0502080F39D
:101500001188BFF34F8FBFF36F8FFEE7206B00F0A2
:10151000AFFB2046BDE8104000F0AABB10BD0000A4
:10152000074E4FF08054074DFFF76CFF30680128DD
:10153000FAD92C60BFF34F8FBFF36F8FF4E7000031
:10154000C811002004ED00E070B51D46049C49B1AF
:101550002260C4E90F010121204600F01BFF84F83E
:101560004C5070BD2460F4E72DE9F0470E46DDE9EC
:1015700009841746824691009946089DA522206B52
:10158000FEF721FF6FF00301206B01EB8701084498
:1015900020F00707780707D0502080F31188BFF3A9
:1015A0004F8FBFF36F8FFEE72218315C82F8341043
:1015B000315C11B1401C0A28F6D3002684F83D6046
:1015C000052D00D30425E562C4E91256201D00F064
:1015D000F4FA04F1180000F0F0FA2461C5F10500F6
:1015E0006462A061266584F854604A4651463846D4
:1015F00000F0D6F92060B8F1000F01D0C8F8004023
:10160000BDE8F08730B5114900E011460A68824212
:10161000FBD34B685C18844203D14068184448608F
:10162000084643681C18944209D1084C103C2468B1
:10163000A24209D052681A4442600A6812680260E5
:10164000814200D0086030BD0460F9E784000020CA
:1016500070B5002441600B4D0061914206D8D11A4B
:101660008269914206D2011D286907E09A4203D29D
:10167000994201D3012403E0011DE86800F0A0FABB
:10168000204670BD6000002010B5044600F0BCFA92
:10169000A06B20B1002400F0D7FA204610BD012431
:1016A000F9E7000030B585B02D4D4EE001980028D7
:1016B0004BDB039C606910B1201D00F04BFA04A8BD
:1016C00000F0BAF8024601980A283ED2DFE800F09E
:1016D0000505053D263705053D260298A169034607
:1016E00001442046FFF7B4FF00B3616A20468847F3
:1016F000E069012829D1002000900298A169002307
:1017000042181946204601F08BF978B9502080F331
:101710001188BFF34F8FBFF36F8FFEE70298A06170
:1017200028B1811813462046FFF792FF0DE05020A4
:1017300080F31188BFF34F8FBFF36F8FFEE794F8EC
:101740002C0010B9204600F093FA00231A4601A994
:10175000286800F067FD0028A8D105B030BD000062
:10176000600000202DE9FC410E46054600F068FCB3
:1017700001A800F061F80446019818B101F0BEF824
:10178000BDE8FC81224FAEB138690068A8B30026DD
:10179000291B3246386800F0E5FA01F0AFF800285E
:1017A000EED11C494FF080500860BFF34F8FBFF35C
:1017B0006F8FE5E7A542EBD801F0A0F8F868264660
:1017C000C068C468201D00F0C5F9E069012810D187
:1017D000A0692B46411932462046FFF739FF40B138
:1017E00000200346014600902A46204601F018F9E1
:1017F00020B1616A20468847C2E707E0502080F3A5
:101800001188BFF34F8FBFF36F8FFEE70126BFE74D
:101810006000002004ED00E00648416B096829B132
:10182000416BC968C9684968816270474FF0FF31F0
:10183000FAE700002400002070B5054600F06EFFB6
:10184000064E0446B068844203D200F009F8012035
:1018500000E0002028602046B46070BD60000020D9
:10186000F8B5194E1FE0C068C4680568201D00F077
:1018700071F9616A20468847E069012813D1A0699F
:101880002844A84206D924616060211DF06800F058
:1018900097F908E000200346014600902A462046BA
:1018A00001F0BEF838B1F06801680029DBD1316978
:1018B000C6E90310F8BD502080F31188BFF34F8FA5
:1018C000BFF36F8FFEE7000060000020084840680B
:1018D000401C4FF0500080F3118804D0BFF34F8FAD
:1018E000BFF36F8FFEE7BFF34F8FBFF36F8FFEE73E
:1018F0008C000020084CE068016839B1002139B142
:101900000020FFF72FFFFFF7CDFEF4E70121F6E7F8
:10191000C0680068F5E70000600000202DE9F04194
:10192000044600F071F994F9455004F1240609E0E9
:10193000606A48B1304600F0A7FF08B100F0B0FA85
:101940006D1E6DB2002DF3DC4FF0FF3684F845605C
:1019500000F07AF900F058F994F9445004F11007B6
:1019600009E0206948B1384600F08EFF08B100F068
:1019700097FA6D1E6DB2002DF3DC84F84460BDE86B
:10198000F04100F061B900000449086818B1086826
:10199000C26C521CC264086870470000240000201A
:1019A00010B5031F4FF080741C601B1F21F0010154
:1019B0001960191F044B0B6014390A60091F6FF07E
:1019C000020244380A6010BDCD1800083EB500F090
:1019D0001BF9174A0220A2F500718DE807000023C9
:1019E000802214A1154800F05FFE154C154A002313
:1019F0006060A2F5007103208DE80700802212A12B
:101A0000134800F051FE134AA060A2F500710420B3
:101A10008DE80700002380220FA1114800F044FE4A
:101A2000E060206800F0E6F9BDE83E4000F00CB947
:101A3000F00400207461736B31000000651A000827
:101A400004000020480700207461736B320000001E
:101A5000A11A0008A00900207461736B3300000014
:101A6000DD1A0008074C4FF47A7507A0FEF75AFC00
:101A7000D4F8A402C143C4F8A412284600F094F993
:101A8000F3E70000008042427461736B31D5FDD4EE
:101A9000DAD4CBD0D0A3A1A3A1A3A10D0A0000004A
:101AA000074C4FF47A7507A0FEF73CFCD4F8A80267
:101AB000C143C4F8A812284600F076F9F3E7000005
:101AC000008042427461736B32D5FDD4DAD4CBD03E
:101AD000D0A3A1A3A1A3A10D0A000000094C0025D9
:101AE0000020FFF75DF8012808D1606830B106A03A
:101AF000FEF718FC606800F07DF965600A2000F0D0
:101B000053F9EDE704000020C9BEB3FD7461736BA7
:101B100031A3A1A3A1A3A10D0A0000000B4910B598
:101B2000094AC1E9002000208860C8600861886116
:101B30000C2048610846FEF73BFFBDE8104001223B
:101B400003490248FEF7A4BF00100140881100209D
:101B500018000020D0E9013201699A60D0E9012320
:101B60005A604A68824201D182684A60002202615A
:101B70000868401E08607047034B036003F158007B
:101B80000860822010607047F8090020044B036051
:101B900003F1580008604FF4827010607047000035
:101BA000580C002000F108014FF0FF32C0E901128B
:101BB000C16001610021016070470021016170472F
:101BC00030B50C68621C02D000F1080202E0026924
:101BD00004E01A4653681D68A542FAD953684B6061
:101BE00099608A60516008610168491C016030BDDC
:101BF00042684A6093688B6093685960916008619D
:101C00000168491C01607047502080F31188BFF3C0
:101C10004F8FBFF36F8F0A494868401C4860012806
:101C20000CD10848006810F0FF0F07D0502080F357
:101C30001188BFF34F8FBFF36F8FFEE7704700002F
:101C40008C00002004ED00E00849486828B1401EDF
:101C5000486001D180F311887047502080F31188CB
:101C6000BFF34F8FBFF36F8FFEE700008C000020A3
:101C700070B5002827D0144DA0F108046068E96809
:101C8000084207D1502080F31188BFF34F8FBFF374
:101C90006F8FFEE722683AB1502080F31188BFF3BE
:101CA0004F8FBFF36F8FFEE78843606000F0C8F985
:101CB00060686968084468602046FFF7A3FCBDE8D7
:101CC000704000F01BBE70BD7400002006484FF449
:101CD0007A710068B0FBF1F14FF0E020491E4161DC
:101CE00007210161704700000000002010B5FEF7D9
:101CF000F3FA114910280ED300F1E02090F8F00318
:101D00000A78904207D2502080F31188BFF34F8F9A
:101D1000BFF36F8FFEE709480068896800F4E06050
:101D2000884207D9502080F31188BFF34F8FBFF34B
:101D30006F8FFEE710BD00008C0000200CED00E06E
:101D400010B5074B002253F832401CB1521C082A30
:101D5000F9D310BD43F8321003EBC201486010BD47
:101D60008013002070B515460E460446FFF74CFF61
:101D700094F944100020491C01D184F8440094F9DE
:101D80004510491C01D184F84500FFF75DFFA06BA9
:101D900028B92A46314604F1240000F09FF8204675
:101DA000BDE87040FFF7BABD10B5020014D00F486F
:101DB000006B38B1502080F31188BFF34F8FBFF311
:101DC0006F8FFEE700F03CF900211046FFF74EFA56
:101DD00000F094FD002807D105494FF080500860BD
:101DE000BFF34F8FBFF36F8F10BD000024000020A2
:101DF00004ED00E070B50446FFF706FF254D04B979
:101E00002C68201DFFF7A6FE58B9E06A224A00EBB5
:101E1000800152F8211021B90121814028698843AD
:101E20002861A06A18B104F11800FFF793FE686AF0
:101E3000401C68622868844208D11748211DA030E0
:101E4000FFF7D6FE6868401C686007E0A868401E7F
:101E5000A8602046FFF749FBFFF7DEFCFFF7F4FE22
:101E60006869002814D02868844211D1286B38B1E1
:101E7000502080F31188BFF34F8FBFF36F8FFEE7C1
:101E800006494FF080500860BFF34F8FBFF36F8F4C
:101E900070BD000024000020C811002004ED00E007
:101EA00001490120C86170472400002010B50C468C
:101EB00050B1094909681831FFF782FE2046BDE894
:101EC00010400121FFF7D2B9502080F31188BFF3F1
:101ED0004F8FBFF36F8FFEE72400002070B51446CC
:101EE0000D4668B10A4909681831FFF781FE0CB147
:101EF0004FF0FF3521462846BDE87040FFF7B6B9E0
:101F0000502080F31188BFF34F8FBFF36F8FFEE730
:101F10002400002070B5040039D01D4DE06A296806
:101F2000C96A884233D2A069002804DB2868C06AE5
:101F3000C0F10500A061E06A164E00EB8000616907
:101F400006EB800081421FD1201DFFF703FE012117
:101F500050B9E06A00EB800256F8222022B92A69C3
:101F600001FA00F082432A612868C06AE0622A69A7
:101F700081401143296100EB800006EB8000211DA8
:101F8000BDE87040FFF734BE2868C06AE06270BDEB
:101F900024000020C811002028B107490A6A026005
:101FA000C96841607047502080F31188BFF34F8F9C
:101FB000BFF36F8FFEE700002400002030B587B02C
:101FC0000025039505AA04A903A80495FFF7D4FDED
:101FD000DDE903010095CDE90110002314A11648A5
:101FE000059A00F061FB154CE06218B100F0E8FCC6
:101FF000012809D0401C19D1502080F31188BFF36B
:102000004F8FBFF36F8FFEE7502080F31188BFF32F
:102010004F8FBFF36F8F4FF0FF30A06201206061E0
:10202000E56007B0BDE8304000F040B807B030BD13
:1020300049444C4500000000211500082400002000
:102040000248016B491C0163704700002400002016
:10205000144A106B10B10120D06170470020D0618C
:1020600010691149B0FA80F0C0F11F0000EB800048
:1020700051F820306BB101EB800000F1080341689A
:1020800049684160994201D149684160C86810605F
:102090007047502080F31188BFF34F8FBFF36F8FCD
:1020A000FEE7000024000020C81100201CB53348C2
:1020B0000168334A914207D1502080F31188BFF361
:1020C0004F8FBFF36F8FFEE700682D49491E88428E
:1020D00007D1502080F31188BFF34F8FBFF36F8F6C
:1020E000FEE7284908780190FF20087008788DF8ED
:1020F00000009DF800009DF8002000F0F0009042E4
:1021000007D0502080F31188BFF34F8FBFF36F8F3C
:10211000FEE79DF800001C4A00F0500010700720F8
:10212000906007E09068401E90609DF800004000BD
:102130008DF800009DF800000006F3D4107A00022C
:1021400000F4E0609060019808700C48203001684D
:1021500041F470010160016841F070410160FFF7D6
:10216000B5FD00205060FEF77FF80848016841F097
:1021700040410160FEF768F800201CBD00ED00E062
:1021800071C20F4100E400E08C00002034EF00E059
:1021900010B5502080F31188BFF34F8FBFF36F8FBE
:1021A00000F0C2FA18B104494FF0805008600020D6
:1021B00080F3118810BD000004ED00E038B5049DE7
:1021C00018B153B1CAB181B120E0502080F3118819
:1021D000BFF34F8FBFF36F8FFEE7502080F311885E
:1021E000BFF34F8FBFF36F8FFEE7502080F311884E
:1021F000BFF34F8FBFF36F8FFEE739B1502080F3ED
:102200001188BFF34F8FBFF36F8FFEE750241C463A
:10221000012384F846302B460094FFF795F92046B9
:1022200038BD00002DE9FF4F83B09B468A4604006D
:102230004FF0000603D0BAF1000F08D011E0502093
:1022400080F31188BFF34F8FBFF36F8FFEE7206CD1
:1022500038B1502080F31188BFF34F8FBFF36F8FD9
:10226000FEE700F04DFADFF828814FF000094FF04B
:10227000805748B9059838B1502080F31188BFF3D2
:102280004F8FBFF36F8FFEE7FFF7BEFCA56B45B323
:1022900051462046E668FFF7DFF8BBF1000F13D088
:1022A000E660606A50B104F1240000F0EDFA28B154
:1022B000C8F80070BFF34F8FBFF36F8FFFF7C4FCF8
:1022C000012007B0BDE8F08F6D1EA563206810B92E
:1022D000FFF75AFB606020690028EFD004F110007E
:1022E000E3E7059808B11EB106E0FFF7ADFC27E073
:1022F0006846FFF751FE0126FFF7A6FCFFF7A0FE98
:10230000FFF782FC94F94400401C01D184F844900A
:1023100094F94500401C01D184F84590FFF794FCE6
:1023200005A9684600F08AF9002820460AD0FFF780
:10233000F5FA00F0E3FA2046FFF7A6F90028A3D04B
:102340000020BEE7FFF7A0F9D8B1206830B9FFF749
:102350005BFC6068FFF7DEFDFFF776FC04F124000C
:102360000599FFF7A3FD2046FFF7D8FA00F0C6FA5B
:10237000002889D1C8F80070BFF34F8FBFF36F8F6B
:1023800082E72046FFF7CAFA00F0B8FA7CE70000BF
:1023900004ED00E070B50D46040025D0FFF734FCD5
:1023A000D4E90F20216802FB001161600021A163C4
:1023B0002168A1600A46D4E90F01401E00FB0121FB
:1023C000E16021464FF0FF3001F8440F487004F1FE
:1023D00010008DB1FFF7E6FB04F12400FFF7E2FBEC
:1023E000FFF732FC012070BD502080F31188BFF34D
:1023F0004F8FBFF36F8FFEE721690029F0D000F007
:1024000043FA0028ECD004494FF080500860BFF335
:102410004F8FBFF36F8FE3E704ED00E02DE9FF4F2F
:1024200083B01F468B4604004FF0000603D0BBF17B
:10243000000F08D011E0502080F31188BFF34F8FB8
:10244000BFF36F8FFEE7206C38B1502080F3118806
:10245000BFF34F8FBFF36F8FFEE7022F0AD1E06B00
:10246000012807D0502080F31188BFF34F8FBFF3AE
:102470006F8FFEE700F044F9DFF800914FF0000A9B
:102480004FF0805848B9059838B1502080F3118832
:10249000BFF34F8FBFF36F8FFEE7FFF7B5FBA06B66
:1024A000E16B884205D3022F03D00598C8B1DEB195
:1024B0001EE03A4659462046FEF7E1FF616A19B12F
:1024C00004F1240000F0E0F928B1C9F80080BFF35E
:1024D0004F8FBFF36F8FFFF7B7FB012007B0BDE849
:1024E000F08FFFF7B1FB21E06846FFF755FD0126AD
:1024F000FFF7AAFBFFF7A4FDFFF786FB94F9440062
:10250000401C01D184F844A094F94500401C01D13D
:1025100084F845A0FFF798FB05A9684600F08EF8FF
:1025200030B12046FFF7FAF900F0E8F90020D5E7CE
:10253000FFF76AFBA06BE16B884201D1012500E047
:102540000025FFF781FB95B104F110000599FFF715
:10255000ADFC2046FFF7E2F900F0D0F900289CD14D
:10256000C9F80080BFF34F8FBFF36F8F95E7204608
:10257000FFF7D4F900F0C2F98FE7000004ED00E0A6
:102580002DE9F0471F4690468946040003D0B9F173
:10259000000F08D011E0502080F31188BFF34F8F57
:1025A000BFF36F8FFEE7206C38B1502080F31188A5
:1025B000BFF34F8FBFF36F8FFEE7022F0AD1E06B9F
:1025C000012807D0502080F31188BFF34F8FBFF34D
:1025D0006F8FFEE7FFF78AFB5020EFF3118680F341
:1025E0001188BFF34F8FBFF36F8FA06BE16B8842F1
:1025F00006D3022F04D0002086F31188BDE8F087AF
:1026000094F945503A4649462046FEF738FF681C83
:1026100004D06D1C84F845500120EDE7606A002865
:10262000FAD004F1240000F02FF90028F4D0B8F11A
:10263000000FF1D00121C8F80010EDE770B50D468C
:10264000040019D005B3FFF7DFFA164AD0682968ED
:102650004B1C0FD02368126A934202D062688242F8
:102660001AD96268801A884216D2081A2860204651
:10267000FFF792FC002410E0502080F31188BFF394
:102680004F8FBFF36F8FFEE7502080F31188BFF3A9
:102690004F8FBFF36F8FFEE70124FFF7D5FA204677
:1026A00070BD000024000020F0B585B00546DDE9CE
:1026B0000B040A9E98B1D4B12063022084F855001F
:1026C0000020CDE9024004AF2846CDE90067FEF7BF
:1026D0004BFF2046FEF702FE049805B0F0BD5020E7
:1026E00080F31188BFF34F8FBFF36F8FFEE7502049
:1026F00080F31188BFF34F8FBFF36F8FFEE70000A9
:102700000548416919B1006B18B1002070470120DC
:102710007047022070470000240000200148C06874
:1027200070470000240000202DE9F0412E4F0026C4
:10273000386B40B1B869401CB861F86900B1012636
:102740003046BDE8F081FD686D1CFD6013D1786BEB
:10275000006838B1502080F31188BFF34F8FBFF36A
:102760006F8FFEE7786BB96B7963B863386A401C8A
:102770003862FFF751F8B86ADFF87080854209D3F4
:10278000786B006880B1786BC068C4686068854207
:102790000DD2B8623868C06A00EB800158F8210099
:1027A0000128CAD90126C8E74FF0FF30F1E7201D04
:1027B000FFF7D0F9A06A18B104F11800FFF7CAF9C1
:1027C000E06A01213A6981401143396100EB8001DF
:1027D00008EB8100211DFFF70BFAE06A3968C96A2E
:1027E0008842CDD30126CBE724000020C811002069
:1027F00070B504004FF0000041D0214D29688C4293
:1028000007D0502080F31188BFF34F8FBFF36F8F35
:10281000FEE7E16C71B1491EE164A36CE26A9A4281
:102820002DD000292BD1201DFFF794F91549012245
:1028300040B112E0502080F31188BFF34F8FBFF3F7
:102840006F8FFEE7E06A00EB800351F8233023B975
:102850002B6902FA00F083432B61A06CE062C0F1A7
:102860000500A061E06A2B6982401A432A6100EBEF
:10287000800001EB8000211DFFF7BAF9012070BD37
:1028800024000020C81100202DE9F041C068C46870
:10289000ACB104F118000746FFF75CF9154D286B41
:1028A0000126A0B139461448FFF7A2F9E06A296869
:1028B000C96A88421CD90120EE61BDE8F081502030
:1028C00080F31188BFF34F8FBFF36F8FFEE7201D9A
:1028D000FFF740F9E06A2A6906FA00F1114329611D
:1028E000054900EB80008C3901EB8000211DDBE7FE
:1028F0000020E2E724000020541200202DE9F047D8
:102900002C4D00242746286B38B1FFF77DF9286B42
:10291000401E2863286B40B146E0502080F31188A8
:10292000BFF34F8FBFF36F8FFEE7A86822490126E0
:10293000D0B3A1F18C098846D8F80010E9B1D8F8D5
:102940000C00C46804F11800FFF704F9201DFFF71C
:1029500001F9E06A2A6906FA00F11143296100EBE6
:10296000800109EB8100211DFFF742F9E06A296827
:10297000C96A8842E0D3EE61DEE70CB1FEF74CFF96
:10298000AC693CB1FFF7D0FE00B1EE61641EF9D135
:102990000020A861E86938B10849012738070860B4
:1029A000BFF34F8FBFF36F8FFFF74EF93846BDE887
:1029B000F0870000240000205412002004ED00E005
:1029C00010B586B0FEF7F2FC114C2068B8B10020BB
:1029D0000390049005AA04A903A8FFF7D7F8DDE93E
:1029E000032102208DE8070000230AA10B48059A65
:1029F000FFF75AFE606010B106B0012010BD5020F4
:102A000080F31188BFF34F8FBFF36F8FFEE7000095
:102A100060000020546D722053766300F5180008A2
:102A2000FEB51F460300089E4FF0000013D0124D64
:102A30002C68002C0ED08DE80E00062915DAFFF761
:102A40005FFE02284FF000030DD00022694628687F
:102A5000FFF7E4FCFEBD502080F31188BFF34F8FD9
:102A6000BFF36F8FFEE73246F0E700233A46694630
:102A70002046FFF785FDFEBD600000204FF040704E
:102A8000E1EE100A7047000000000102030400009C
:102A9000B02A00080000002098000000C4010008CF
:102AA000482B00089800002088190000E001000869
:102AB0000024F400000000000000000000000000FE
:102AC0000000000000000000000000000000000006
:102AD00001000000000000000000000000000000F5
:102AE00000000000000000000000000000000000E6
:102AF00000000000000000000000000000000000D6
:102B000000000000000000000000000000000000C5
:102B100000000000000000000000000000000000B5
:102B200000000000000000000000000000000000A5
:102B30000000000000000000000000000000000095
:082B4000AAAAAAAA00000000E5
:040000050800018965
:00000001FF
