:020000040800F2
:1000000090B10120050300085B1F0008531F000882
:10001000571F000875090008692500080000000046
:100020000000000000000000000000004502000881
:100030009109000800000000A10200083B20000810
:1000400029030008290300082903000829030008E0
:1000500029030008290300082903000829030008D0
:1000600029030008290300082903000829030008C0
:1000700029030008290300082903000829030008B0
:1000800029030008290300082903000829030008A0
:100090002903000829030008290300082903000890
:1000A0002903000829030008290300082903000880
:1000B0002903000865200008290300082903000817
:1000C0002903000829030008290300082903000860
:1000D00029030008592500082903000829030008FE
:1000E0002903000829030008290300082903000840
:1000F0002903000829030008290300082903000830
:10010000290300082903000829030008290300081F
:1001100029030008290300082903000875200008A6
:1001200029030008290300082903000829030008FF
:1001300029030008290300082903000829030008EF
:1001400029030008290300082903000829030008DF
:1001500029030008290300082903000829030008CF
:1001600029030008290300082903000829030008BF
:1001700029030008290300082903000800000000E3
:10018000290300082903000800F002F800F04AF8EB
:100190000AA090E8000C82448344AAF10107DA45E2
:1001A00001D100F03FF8AFF2090EBAE80F0013F0EA
:1001B000010F18BFFB1A43F00103184778BB00007A
:1001C00098BB0000103A24BF78C878C1FAD852070B
:1001D00024BF30C830C144BF04680C6070470000C1
:1001E0000023002400250026103A28BF78C1FBD840
:1001F000520728BF30C148BF0B607047702900F01C
:100200000D82642900F09A81782900F0FA8173291F
:1002100000F00F83002070471FB508F093FD1FBD4D
:1002200010B510BD00F074FB1146FFF7F5FF05F0A7
:100230004DFF00F092FB03B4FFF7F2FF03BC02F0A6
:10024000C9F900002C4B19680868B0E8F04F80F33A
:100250000988BFF36F8F4FF0000080F3118870475B
:100260000000000008480068006880F308884FF02C
:10027000000080F3148862B661B6BFF34F8FBFF3FE
:100280006F8F00DF00BF00BF08ED00E0DFF80C005B
:10029000016841F470010160704700BF88ED00E023
:1002A000EFF30980BFF36F8F134B1A681EF0100F26
:1002B00008BF20ED108A20E9F04F106009B44FF01C
:1002C000500080F31188BFF34F8FBFF36F8F07F09B
:1002D0001DFD4FF0000080F3118809BC1968086803
:1002E000B0E8F04F1EF0100F08BFB0EC108A80F39A
:1002F0000988BFF36F8F704770000020EFF305800F
:10030000704700000C48016841F4700101600B481F
:1003100080470B480047FEE7FEE7FEE7FEE7FEE703
:10032000FEE7FEE7FEE7FEE7FEE7000005480649B8
:10033000044A064B7047000088ED00E05120000899
:100340008901000890AD012090B1012090AD0120FD
:10035000704753EA020C00F069802DE9F04B4FF032
:100360000006002B1FBFB3FA83F503FA05F424FA45
:1003700005F65E4012BF1643B2FA82F502FA05F4A2
:10038000C5F120051EBF22FA05FC44EA0C04203505
:1003900056EA044C4FEA144418BF641C4FF000089E
:1003A0004FF00009904271EB030C39D3002919BFBB
:1003B000B1FA81F701FA07F6B0FA80F700FA07F60A
:1003C000C7F120071EBF20FA07FC46EA0C062037BB
:1003D000B6FBF4FCA7EB0507103F07F01F0BCBF1B2
:1003E00020060CFA0BFB2CFA06F644BFB346002697
:1003F000202FA4BF5E464FF0000B5BEA060C08BF3F
:100400004FF0010B19EB0B09ABFB027C48EB060824
:10041000C01B06FB02CC0BFB03CC71EB0C01C1E74C
:100420000B46024641464846BDE8F08B13B54FF0F7
:1004300000004FF00001AFF30080BDE81C407047A2
:100440000FB4044910B503AA029800F0F7F910BCE4
:100450005DF814FB280000200FB41CB5074B06AA5A
:100460007B4469460090059800F0B9F90020694680
:1004700000F0C8F91CBC5DF814FB0000A1030000EB
:100480002DE9F0410E460446002020622046E16836
:10049000884730B3252805D0D4E901219047206A48
:1004A000401CF2E7E168204600278847050018D085
:1004B000A5F14100192802D820354FF400673246D3
:1004C000294620462760FFF799FE40B1012804D055
:1004D000F61D26F007060836D8E7361DD6E728466B
:1004E000DAE7206ABDE8F08170B50C460546012ABE
:1004F00005D02878800600D5EA69002302E00123B0
:1005000005E05B1C934202D2E05C0028F9D1A869A7
:10051000E618C01AA861286A184428622846AFF372
:10052000008004E0D5E9012114F8010B9047B442A2
:10053000F8D32846AFF3008070BD00002DE9F041EC
:100540000646002410687529314616A510D0AFF371
:100550000080002802DA404213A507E031688A07CC
:1005600001D512A502E0490704D511A5012401E037
:10057000AFF3008000210A2206F1240709E0B0FB56
:10058000F2FCB0FBF2F302FB1C003030785418464A
:10059000491C0028F3D123462A463046BDE8F041E5
:1005A00000F0BEB8000000002D0000002B0000008D
:1005B00020000000F0B40D460188090502D51B4C4F
:1005C0007C4402E0194C7C440E34002100F12403E9
:1005D00005E002F00F061209A65D5E54491C002AD0
:1005E000F7D102780023120704D5702D06D009B187
:1005F000022311342246F0BC00F092B801231034DB
:10060000F8E770B504460D4621461068AFF3008048
:10061000024629462046BDE87040CBE703681268D1
:1006200043F0200303600823C361C3E748B7000019
:10063000032A40F2308010F0030C00F0158011F80E
:10064000013BBCF1020F624498BF11F801CB00F8E6
:10065000013B38BF11F8013BA2F1040298BF00F83A
:1006600001CB38BF00F8013B11F0030300F0F88024
:10067000083AC0F0088051F8043B083A51F804CB1E
:10068000A0E80810F5E7121D5CBF51F8043B40F8E4
:10069000043BAFF30080D20724BF11F8013B11F8EF
:1006A00001CB48BF11F8012B24BF00F8013B00F833
:1006B00001CB48BF00F8012B704702F0FF0343EA6B
:1006C000032242EA024200F0FFB84FF0000200B5F8
:1006D000134694469646203922BFA0E80C50A0E865
:1006E0000C50B1F12001BFF4F7AF090728BFA0E813
:1006F0000C5048BF0CC05DF804EB890028BF40F8DF
:10070000042B08BF704748BF20F8022B11F0804F20
:1007100018BF00F8012B704770477047704770474B
:100720002DE9F0470D4699469246044600F124080B
:100730000168880604D5E06921F01001216000E01D
:100740000120A84201DD471B00E00027A1697A19BA
:1007500002EB0900081AA0612078C00602D42046E6
:10076000AFF30080002608E0D4E901211AF8060062
:100770009047206A401C761C20624E45F4DB2078AE
:10078000C0060AD52046AFF3008006E0D4E9012177
:1007900030209047206A401C2062381EA7F10107D4
:1007A000F4DC07E0D4E9012118F805009047206A3D
:1007B000401C2062281EA5F10105F3DC2046AFF3A2
:1007C00000802078000602D50220BDE8F0870120D5
:1007D000FBE7000001694A1C02610878704700B518
:1007E0008FB0CDE901310021059105497944CDE96A
:1007F000031011466846FFF743FE0FB000BD00002E
:10080000E5FFFFFF0A6802F8010B0A60704710B5A8
:10081000436913B1AFF3008001E0FFF765FE0120EB
:1008200010BD127800F124010A7000224A700122E2
:10083000EDE711684FF0FF32E9E70000074B70B5B4
:100840000D467B44FFF7CBFF0446284600F05CF8DA
:1008500010B14FF0FF3070BD204670BD271F000063
:1008600010B5203AC0F00B80B1E81850203AA0E84B
:100870001850B1E81850A0E81850BFF4F5AF5FEA7F
:10088000027C24BFB1E81850A0E8185044BF18C932
:1008900018C0BDE810405FEA827C24BF51F8043BD9
:1008A00040F8043B08BF7047D20728BF31F8023B2D
:1008B00048BF11F8012B28BF20F8023B48BF00F8C1
:1008C000012B70474FF000020429C0F0128010F095
:1008D000030C3FF4FCAECCF1040CBCF1020F18BFCA
:1008E00000F8012BA8BF20F8022BA1EB0C01FFF7A9
:1008F000EEBE5FEAC17C24BF00F8012B00F8012B9B
:1009000048BF00F8012B7047007B00F08000704763
:10091000754600F02BF8AE4605006946534620F0B8
:100920000700854618B020B5FFF700FDBDE8204060
:100930004FF000064FF000074FF000084FF0000B9B
:1009400021F00701AC46ACE8C009ACE8C009ACE84E
:10095000C009ACE8C0098D46704710B50446AFF336
:1009600000802046BDE81040FFF765BC0048704796
:100970002CAD012000BFFEE710B55321092001F086
:1009800067FE00200149086010BD000048000020FB
:100990007047000070B504461D460023B5F5804F32
:1009A00013D154F822300C480340D1E9000640EA44
:1009B00006108E6840EA06208E8940EA06408E695D
:1009C0003043034344F8223003E06FF0704044F8B2
:1009D0002200002070BD00000000F0CF10B50346DB
:1009E0000022086853F8202012480240D1E901048F
:1009F0002043CC6820430C6920434C6920438C6918
:100A00002043CC6920430C6A20434C6A20438C6A03
:100A10002043CC6A2043CC6B20430C6B2043024321
:100A20008868082801D142F04002086843F8202075
:100A3000002010BD8000F0FF30B503460024501C9C
:100A400053F8204004F04044D1E9000540EA051085
:100A50008D6840EA05208D8940EA0545088A401ED8
:100A600045EA0055087D801E45EA00608D692843EF
:100A70000443501C43F82040002030BD70B50446AC
:100A8000A56D00F07BF9064694F83500022808D0E1
:100A90008020606500BF002084F8340000BF012082
:100AA00070BD2068006820F016002168086020688A
:100AB000406920F0800021684861206C08B9A06C72
:100AC00028B12068006820F00800216808602068CC
:100AD000006820F00100216808600FE000F04EF986
:100AE000801B05280AD92020606500BF002084F8FB
:100AF000340000BF032084F83500D1E72068006887
:100B000000F001000028E9D194F85C103F208840F3
:100B1000A86000BF002084F8340000BF012084F8E2
:100B200035000020BCE7014691F83500022803D0CB
:100B30008020486501207047052081F8350008684D
:100B4000006820F001000A6810600020F3E7000050
:100B5000F8B502460B460025002400200021DEE007
:100B6000012606FA01F51E6806EA0504AC4275D1B5
:100B70001E7906F00306012E04D01E7906F0030646
:100B8000022E13D190684F000326BE40B0434F00A1
:100B9000DE68BE4030439060506801268E40B0430E
:100BA0001E79C6F300168E40304350601E7906F061
:100BB0000306032E09D0D0684F000326BE40B04381
:100BC0004F009E68BE403043D0601E7906F0030699
:100BD000022E13D1CF0802F1200656F827004E0747
:100BE000F70E0F26BE40B0434F07FF0E1E69BE40F2
:100BF0003043CF0802F1200646F8270010684F0066
:100C00000326BE40B0431E7906F003064F00BE40E7
:100C1000304310605E6806F08056B6F1805F7DD18B
:100C200000BF00260096404E366846F480463E4F90
:100C30003E603E46366806F48046009600BF00BF20
:100C40003A4E8F0856F827008E07370F0F26BE4002
:100C5000B043374EB24202D1002624E05EE0354E6A
:100C6000B24201D101261EE0334EB24201D102262A
:100C700019E0324EB24201D1032614E0304EB242A6
:100C800001D104260FE02F4EB24201D105260AE021
:100C90002D4EB24201D1062605E02C4EB24201D1C2
:100CA000072600E008268F073F0FBE4030431F4E47
:100CB0008F0846F82700264E3068A0435E6806F489
:100CC0008036B6F5803F00D12043214E3060361D7E
:100CD0003068A0435E6806F40036B6F5003F00D1E8
:100CE00020431B4E361D3060361D3068A0435E68C1
:100CF00006F48016B6F5801F00D12043144E083646
:100D00003060361D3068A0435E6806F40016B6F504
:100D1000001F00D120430E4E0C363060491C1029B4
:100D2000FFF41EAFF8BD000044380240083801400F
:100D3000000002400004024000080240000C024093
:100D4000001002400014024000180240001C024043
:100D5000003C0140024613690B400BB1012000E04A
:100D6000002070470AB1816101E00B048361704784
:100D700001480068000C7047002004E0014800684A
:100D800070470000300000200348006803490978DC
:100D900008440149086070473000002038000020F6
:100DA00010B50A48006840F4007008490860084619
:100DB000006840F480600860032000F07FF80F2096
:100DC00000F006F800F02AF8002010BD003C0240B8
:100DD00070B504460E4800784FF47A71B1FBF0F01C
:100DE0000C490968B1FBF0F5284600F09BFC08B1FE
:100DF000012070BD102C07D200222146501E00F0A9
:100E00001EF80548046001E00120F2E70020F0E749
:100E10003800002000000020340000207047014608
:100E20000846002809DB00F01F0301229A4043090D
:100E30009B0003F1E023C3F8002100BF70472DE9B8
:100E4000F05F80460D461646002701F0A7FB0746D7
:100E500039462A46334601F00700C0F1070ABAF1C5
:100E6000040F02D94FF0040A01E0C0F1070AD1468D
:100E700000F1040ABAF1070F02D24FF0000A01E0B4
:100E8000A0F1030AD4464FF0010A0AFA09FAAAF1BE
:100E9000010A0AEA020A0AFA0CFA4FF0010B0BFAED
:100EA0000CFBABF1010B0BEA030B4AEA0B042146E6
:100EB000404601F07BFBBDE8F09F000000BF00F062
:100EC0000702064B19684FF6FF031940044B0B430A
:100ED00043EA0221014B196000BF70470CED00E0AE
:100EE0000000FA0570B504460D460CB9012070BD2E
:100EF0005848006800F00700A84209D255490D7013
:100F00000846006800F00700A84201D00120EEE783
:100F1000207800F0020002281DD1207800F00400A3
:100F2000042805D14C48006840F4E0504A49086064
:100F3000207800F00800082805D14748006840F4F0
:100F40006040454908604448006820F0F000A1680E
:100F5000084341490860207800F00100A8B36068A8
:100F6000012807D13C4808380068C0F34040B8B9B0
:100F70000120BCE76068022802D06068032807D11E
:100F8000354808380068C0F3406048B90120AEE732
:100F9000314808380068C0F3400008B90120A6E7CE
:100FA0002D48006820F00300616808432A49086062
:100FB000FFF7E4FE064609E0FFF7E0FE801B41F282
:100FC0008831884202D9032091E707E0224800686F
:100FD00000F00C006168B0EB810FEDD11D48006896
:100FE00000F00700A84209D91A490D7008460068A8
:100FF00000F00700A84201D0012078E7207800F037
:101000000400042807D11448006820F4E050E16887
:10101000084311490860207800F00800082808D12A
:101020000D48006820F46040216940EAC1000A4987
:10103000086000F03FF808490968C1F30311074A46
:10104000515CC8400649086006480068FFF7C0FECA
:1010500000204CE7003C0240083802404E8D00085A
:1010600000000020340000200148006870470000A4
:101070000000002000B5FFF7F7FF04490968C1F33D
:101080008221034A515CC84000BD0000083802407C
:101090005E8D000800B5FFF7E7FF04490968C1F35A
:1010A0004231034A515CC84000BD0000083802408C
:1010B0005E8D00082DE9F047002400250026A1469A
:1010C0002548006800F00C0020B1042805D008284D
:1010D0003AD105E0DFF8849039E0DFF8849036E01B
:1010E0001D48001F006800F03F041B48001F0068F7
:1010F00000F4800078B11A481749091F0968C1F344
:101100008811A0FB01700146224600233846FFF7F4
:1011100020F905460EE011480F49091F0968C1F37F
:101120008811A0FB01700146224600233846FFF7D4
:1011300010F905460848001F0068C0F30140401C34
:101140004600B5FBF6F902E0DFF8109000BF00BFE3
:101150004846BDE8F0870000083802400024F4004B
:1011600000127A00F8B504460CB90120F8BD2078C9
:1011700000F00100002874D0F948006800F00C006D
:1011800004280DD0F648006800F00C00082813D1A0
:10119000F348001F006800F48000B0F5800F0BD109
:1011A000EF4808380068C0F34040002859D0606814
:1011B000002856D10120D9E700BF6068B0F5803F14
:1011C00008D1E7480838006840F48030E44908391D
:1011D00008601EE06068B0F5A02F0DD1E048083827
:1011E000006840F48020DE4908390860084600683D
:1011F00040F4803008600CE0D9480838006820F4DA
:101200008030D749083908600846006820F48020FB
:10121000086000BF606890B1FFF7B0FD054606E0CA
:10122000FFF7ACFD401B642801D903209EE7CC48A2
:1012300008380068C0F340400028F1D011E0FFF703
:101240009DFD054606E0FFF799FD401B642801D986
:1012500003208BE7C24808380068C0F340400028EC
:10126000F1D1207800F0020002285FD1BC4800686C
:1012700000F00C0058B1BA48006800F00C000828D3
:101280001CD1B748001F006800F48000B0B9B44812
:1012900008380068C0F3400020B1E068012801D0A0
:1012A000012063E7AE480838006820F0F8002169A3
:1012B00040EAC100AA490839086037E0E06800B395
:1012C0000120A8490860FFF759FD054606E0FFF731
:1012D00055FD401B022801D9032047E7A0480838E4
:1012E0000068C0F340000028F1D09D48083800682D
:1012F00020F0F800216940EAC100994908390860E6
:1013000014E0002097490860FFF738FD054606E025
:10131000FFF734FD401B022801D9032026E790483F
:1013200008380068C0F340000028F1D1207800F0B0
:10133000080008282CD16069A8B101208A490860FA
:10134000FFF71CFD054606E0FFF718FD401B0228CD
:1013500001D903200AE782486C300068C0F34000DE
:101360000028F1D014E000207F490860FFF706FD57
:10137000054606E0FFF702FD401B022801D90320C5
:10138000F4E677486C300068C0F340000028F1D1E3
:10139000207800F00400042870D10027704838300D
:1013A000006800F0805090B900BF002000906C48A9
:1013B0003830006840F0805069493831086008468C
:1013C000006800F08050009000BF00BF0127674810
:1013D000006800F48070B0B96448006840F4807020
:1013E00062490860FFF7CAFC054606E0FFF7C6FC45
:1013F000401B022801D90320B8E65C48006800F4CD
:1014000080700028F2D000BFA068012808D154489D
:101410006830006840F001005149683108601DE003
:10142000A06805280DD14E486830006840F00400DF
:101430004B49683108600846006840F001000860C8
:101440000CE047486830006820F0010044496831EA
:1014500008600846006820F00400086000BFA0682B
:10146000A8B1FFF78BFC054609E0FFF787FC401B9E
:1014700041F28831884202D9032077E626E03848D5
:1014800068300068C0F340000028EED013E0FFF79A
:1014900075FC054608E0FFF771FC401B41F28831FE
:1014A000884201D9032061E62D4868300068C0F306
:1014B00040000028EFD1012F07D1294838300068BB
:1014C00020F0805026493831086000BFA06900280C
:1014D00045D02348006800F00C0008285DD0A069C2
:1014E000022845D100201F490866FFF747FC054642
:1014F00006E0FFF743FC401B022801D9032035E634
:10150000174808380068C0F340600028F1D1D4E9DA
:1015100007010843616A40EA81110122A06AC2EB17
:10152000500041EA00412C20005D41EA00600C4976
:10153000091F086001200B490866FFF71FFC0546DC
:1015400006E0FFF71BFC401B022801D903200DE633
:10155000034808380068C0F340600028F1D049E033
:101560000838024000004742800E474200700040A9
:10157000002021490866FFF701FC054606E0FFF759
:10158000FDFB401B022801D90320EFE51B48006842
:10159000C0F340600028F2D12CE0A069012800D1FE
:1015A000E4E51648001D0668A069012820D006F46D
:1015B0008001E06981421BD106F03F01206A81422F
:1015C00016D147F6C0703040616AB0EB811F0FD171
:1015D00006F440310122A06AC2EB5000B1EB004F8B
:1015E00006D106F070612C20005DB1EB006F01D0D8
:1015F0000120BBE50020B9E5000047420038024069
:1016000070B504460E4615460CB9012070BD94F81D
:10161000490028B9002084F84800204600F01CF852
:1016200004F108012068FFF7D9F93146A268206863
:10163000FFF702FA2946236BD4E90102FFF7AAF962
:10164000A168206850F8210040F00100A2682168DC
:1016500041F822000020D9E710B586B0044600BF4B
:10166000002000902248006840F0010020490860F6
:101670000846006800F00100009000BF00BF00BFF6
:10168000002000901A480838006840F00800184907
:10169000083908600846006800F00800009000BFA4
:1016A00000BF00BF002000900846006840F0100016
:1016B00008600846006800F01000009000BF00BFFE
:1016C0004CF203700190022002900120039002204E
:1016D00004900C20059001A90648FFF739FA4FF64F
:1016E0008070019001A90448FFF732FA06B010BDDE
:1016F00038380240000C024000100240042808D193
:101700004FF0E021096941F004014FF0E02211613E
:1017100007E04FF0E021096921F004014FF0E022D9
:101720001161704770B504462546681EB0F1807F90
:1017300001D301200FE0681E4FF0E02148610F2126
:101740004FF0FF3000F032FF00204FF0E0218861C1
:1017500007200861002070BD7047704710B504462F
:101760000CB9012010BD94F83D0028B9002084F880
:101770003C00204600F026F8022084F83D00211DA0
:10178000206800F07FFC012084F8460000BF84F848
:101790003E0001213F2001554020015541200155C7
:1017A00000BF00BF012084F84200432001554420BF
:1017B00001554520015500BF012084F83D0000205F
:1017C000D0E7000038B504461E49206888421AD187
:1017D00000BF00BF002000901B48006840F00200DE
:1017E000194908600846006800F00200009000BF38
:1017F00000BF00BF002203211D20FFF720FB1D209A
:10180000FFF70DFB1DE011492068884219D100BF88
:1018100000BF002000900C48006840F020000A49FA
:1018200008600846006800F02000009000BF00BF7C
:1018300000BF002207213720FFF701FB3720FFF709
:10184000EEFA38BD00040040403802400014004069
:10185000014691F83D00012801D001207047022087
:1018600081F83D000868C06840F001000B68D8604E
:101870001A4B086898421BD00868B0F1804F17D007
:10188000174B0868984213D0164B086898420FD03F
:10189000154B086898420BD0144B0868984207D043
:1018A000134B0868984203D0124B086898420CD139
:1018B0000868806800F00702062A0CD008680068F3
:1018C00040F001000B68186005E00868006840F00F
:1018D00001000B6818600020C0E700000000014014
:1018E0000004004000080040000C004000040140DB
:1018F0000040014000180040704710B504462068C1
:101900000069C0F34000D8B12068C068C0F340004F
:10191000B0B16FF0020021680861012020772068D3
:10192000806900F0030018B12046FFF7E5FF05E0ED
:10193000204600F0ADF8204600F0ABF800202077FC
:1019400020680069C0F38000D8B12068C068C0F387
:101950008000B0B16FF00400216808610220207798
:101960002068806900F4407018B12046FFF7C4FF7A
:1019700005E0204600F08CF8204600F08AF80020B0
:10198000207720680069C0F3C000D8B12068C06823
:10199000C0F3C000B0B16FF00800216808610420F6
:1019A00020772068C06900F0030018B12046FFF7D7
:1019B000A3FF05E0204600F06BF8204600F069F830
:1019C0000020207720680069C0F30010D8B120689B
:1019D000C068C0F30010B0B16FF01000216808615A
:1019E000082020772068C06900F4407018B12046B4
:1019F000FFF782FF05E0204600F04AF8204600F09D
:101A000048F8002020772068006900F0010058B1F4
:101A10002068C06800F0010030B16FF0010021685B
:101A20000861204600F036F820680069C0F3C01055
:101A300058B12068C068C0F3C01030B16FF08000AA
:101A4000216808612046FFF787FE20680069C0F31F
:101A5000801058B12068C068C0F3801030B16FF0BA
:101A6000400021680861204600F036F820680069CF
:101A7000C0F3401058B12068C068C0F3401030B1C6
:101A80006FF02000216808612046FFF766FE10BD58
:101A90007047704710B504460748844205D107488F
:101AA0000068401C0549086005E00548844202D1F1
:101AB00004A0FEF7C5FC10BDC002002048000020B5
:101AC0000803002054494D37CAE4B3F62E2E2E2EBB
:101AD0002E2E2E0D0A000000704770477047000040
:101AE0002DE9F84F0446206805682068C66820681C
:101AF00047694FF00009CA4605F00F09B9F1000F18
:101B00000AD105F0200038B106F0200020B12046AF
:101B100000F059FBBDE8F88FB9F1000F72D007F063
:101B2000010018B906F4907000286BD005F0010090
:101B300030B106F4807018B1206C40F001002064D0
:101B400005F0040030B107F0010018B1206C40F03E
:101B50000200206405F0020030B107F0010018B166
:101B6000206C40F00400206405F0080048B106F045
:101B7000200010B907F0010018B1206C40F00800F7
:101B80002064206C70B305F0200028B106F020001E
:101B900010B1204600F017FB20684069C0F3801A9E
:101BA000206C00F0080010B9BAF1000F23D02046D5
:101BB00000F0DEFA2068406900F04000402816D1AD
:101BC0002068406920F0400021684861A06B50B156
:101BD0005648A16B0865A06BFEF7A5FF10B1A06B7E
:101BE000016D88470CE02046FFF778FF08E02046AB
:101BF000FFF774FF04E02046FFF770FF0020206429
:101C000088E7FFE7206B012879D105F01000002854
:101C100075D006F01000002871D000BF00200090A1
:101C200020680068009020684068009000BF00BFF6
:101C30002068406900F04000402839D1A06B00685E
:101C400040681FFA80F8B8F1000F30D0A08D4045F1
:101C50002DDDA4F82E80A06BC069B0F5807F1FD069
:101C60002068C06820F480702168C86020684069DE
:101C700020F00100216848612068406920F04000A0
:101C800021684861202084F83E00002020632068FD
:101C9000C06820F010002168C860A06BFEF7EEFE5F
:101CA000A08DE28D801A81B22046FFF716FF31E742
:101CB000A08DE18D401A1FFA80F8E08DE8B1B8F1EF
:101CC000000F1AD02068C06820F490702168C860A6
:101CD0002068406920F0010021684861202084F8D4
:101CE0003E00002020632068C06820F010002168BA
:101CF000C86041462046FFF7F0FE0BE7FFE705F01E
:101D0000800030B106F0800018B1204600F0F3FBEF
:101D100000E705F0400030B106F0400018B1204661
:101D200000F041FAF6E600BFF4E600005D2100088D
:101D300010B504460CB9012010BDA06900B100E047
:101D400000BF94F83D0028B9002084F83C002046EC
:101D500000F028F8242084F83D002068C06820F4B2
:101D600000502168C860204600F08CFA20680069A5
:101D700020F49040216808612068406920F02A0022
:101D8000216848612068C06840F400502168C8603C
:101D900000202064202084F83D0084F83E000020CC
:101DA000CAE7000010B586B004462E492068884274
:101DB00055D100BF00BF002000902B48006840F0C4
:101DC0001000294908600846006800F010000090E3
:101DD00000BF00BF00BF00BF00BF0020009022482E
:101DE0001438006840F001001F49143908600846A3
:101DF000006800F00100009000BF00BF00BF00BFFE
:101E000000BF002000900846006840F00100086014
:101E10000846006800F00100009000BF00BF00BF4E
:101E200048150190022002900120039002200490A6
:101E30000720059001A90D48FEF78AFE4FF4806047
:101E400001900720059001A90848FEF781FE252092
:101E5000FEF7E5FF032211462520FEF7F0FF06B04E
:101E600010BD000000100140443802400000024054
:101E700070B504460D46164694F83E00202816D14B
:101E800005B10EB9012070BD00BF94F83C000128D7
:101E900001D10220F7E7012084F83C0000BF0020B8
:101EA000206332462946204600F002FBEBE7022081
:101EB000E9E7000010B504462049206888423BD17C
:101EC0001F48008800F4004088BB1D48008800F4CB
:101ED000804070B11B4800780A2803D000201849C0
:101EE000088024E01648008840F400401449088027
:101EF0001DE0144800780D2806D11148008840F4F0
:101F000080400F49088012E00E4800780C4909888B
:101F1000C1F30D010C4A505409480088401C08497F
:101F2000088008460088C72801DD002008800122BB
:101F300004490648FFF79CFF10BD00000010014057
:101F40002C0000202E00002004010020CC010020E5
:101F5000704700BFFEE700BFFEE770472DE9F0477E
:101F60000C46DDE90867002100258C4600BF60E0D3
:101F70004FF0010808FA01F504EA050CAC4557D109
:101F8000D0F800804FEA410A4FF0030909FA0AF934
:101F900028EA0908C0F80080D0F800804FEA41091B
:101FA00002FA09F948EA0908C0F80080012A01D0BC
:101FB000022A27D1D0F808804FEA410A4FF00309DE
:101FC00009FA0AF928EA0908C0F80880D0F8088058
:101FD0004FEA410906FA09F948EA0908C0F80880F9
:101FE000D0F804904FF0010808FA01F829EA08092E
:101FF000C0F80490D0F8048003FA01F948EA09080F
:10200000C0F80480D0F80C804FEA410A4FF0030971
:1020100009FA0AF928EA0908C0F80C80D0F80C80FF
:102020004FEA410907FA09F948EA0908C0F80C80A3
:10203000491C10299CD3BDE8F08710B5FEF7A4FE1B
:1020400006F0F2F9012801D005F0B8FF10BD00003C
:102050000348006840F470000149086070470000C0
:1020600088ED00E010B50248FFF747FC10BD000006
:10207000C002002010B50248FFF73FFC10BD000071
:102080000803002010B50268294B98420ED0B0F129
:10209000804F0BD0274B984208D0274B984205D051
:1020A000264B984202D0264B984203D122F0700270
:1020B0004B681A431E4B984220D0B0F1804F1DD080
:1020C0001C4B98421AD01C4B984217D01B4B98427D
:1020D00014D01B4B984211D01A4B98420ED01A4B79
:1020E00098420BD0194B984208D0194B984205D012
:1020F000184B984202D0184B984203D122F44072F8
:10210000CB681A4322F080034C6943EA0402026060
:102110008B68C3620B688362054B984202D0084B00
:10212000984201D10B6903630123436110BD000094
:10213000000001400004004000080040000C004086
:1021400000040140004001400044014000480140BB
:1021500000180040001C00400020004070B50546FB
:10216000AC6B0020E085E0842046FFF7B7FC70BD33
:102170000168C96821F490710268D16001684969F9
:1021800021F0010102685161016B012905D101684B
:10219000C96821F010010268D160202180F83E104A
:1021A00000210163704710B504462068C06820F024
:1021B00040002168C860202084F83D002046FFF7D9
:1021C000C7FE002010BD70B5044694F83E002228DA
:1021D00056D1A068B0F5805F0CD1206950B90025B8
:1021E000A66A20684068C0F308003080A06A801C9E
:1021F000A06215E0A56A0026A068B0F5805F03D054
:10220000A06828B9206918B920684068287004E0DF
:102210002068406800F07F002870A06A401CA0621F
:10222000E08D401E80B2E08540BB2068C06820F091
:1022300020002168C8602068C06820F48070216890
:10224000C8602068406920F00100216848612020B2
:1022500084F83E00206B01280AD12068C06820F075
:1022600010002168C860A18D2046FFF736FC02E00F
:102270002046FFF71FFE0020206370BD0020FCE712
:102280000220FAE72DE9F84F04462068006920F49F
:102290004050E1680843216808612169A06808434B
:1022A00061690843E169084300902068C06849F209
:1022B0000C618843009908432168C8602068406920
:1022C00020F44070A169084321684861764920687C
:1022D000884203D075492068884203D1FEF7DAFEB0
:1022E000814602E0FEF7C6FE8146E069B0F5004F88
:1022F0006CD102206168A0FB015003461920A9FBA4
:10230000007001462A463846FEF723F86421B0FBE8
:10231000F1F04FEA001A02206168A0FB01510B4660
:102320001920A9FB00712A463846FEF712F88346A9
:1023300002206168A0FB015003461920A9FB00712F
:102340002A463846FEF705F86421B0FBF1F000EBB1
:10235000C00101EB0010ABEB8000322101EBC000AB
:102360006421B0FBF1F000F0F8000AEB400A022013
:102370006168A0FB015003461920A9FB00700146CB
:102380002A463846FDF7E5FF834602206168A0FB38
:10239000015003461920A9FB00712A463846FDF773
:1023A000D8FF6421B0FBF1F000EBC00101EB00109D
:1023B000ABEB8000322101EBC0006421B0FBF1F0F7
:1023C00000F007005044216888606AE004206168DA
:1023D000A0FB015003461920A9FB007001462A46C4
:1023E0003846FDF7B6FF824604206168A0FB015025
:1023F00003461920A9FB007001462A463846FDF71E
:10240000A8FF6421B0FBF1F000EBC00101EB00106C
:10241000AAEB8000322101EB00106421B0FBF1F047
:1024200000F0F00A04206168A0FB01700346192047
:10243000A9FB00513A462846FDF78BFF6421B0FB0B
:10244000F1F00AEB001A04206168A0FB01510B4671
:102450001920A9FB00712A463846FDF77AFF83460A
:1024600004206168A0FB015003461920A9FB0070FD
:1024700001462A463846FDF76CFF6421B0FBF1F0B7
:1024800000EBC00101EB0010ABEB8000322101EB4F
:1024900000106421B0FBF1F000F00F0050442168FF
:1024A0008860BDE8F88F0000001001400014014072
:1024B00010B5034699629A85DA85002018642220B7
:1024C00083F83E0000BF002083F83C0000BF18687E
:1024D000C06840F480701C68E0601868406940F093
:1024E00001001C6860611868C06840F020001C682A
:1024F000E060002010BD014691F83D00212828D160
:102500008868B0F5805F0BD1086948B90A6A1088FD
:10251000C0F308000B685860086A801C086205E078
:102520000B6A581C086218780B685860C88C401EEB
:1025300080B2C88458B90868C06820F080000B6871
:10254000D8600868C06840F040000B68D860002080
:1025500070470220FCE7000010B50248FFF7C0FA00
:1025600010BD0000CC01002000BFFEE770B50621C1
:10257000302004F0DDFE302004F0EAFD0546062D93
:1025800003D00621302004F0D3FE002403E006F03F
:1025900093FA601C84B2C82CF9DB70BD0248006855
:1025A000C0F30220704700000CED00E010B50028D9
:1025B00004DB0A07130E054A135406E00A07140E3B
:1025C000034A00F00F031B1FD45410BD00E400E0C9
:1025D00018ED00E000BF704700F00101194A1160DA
:1025E000C0F34001184AC2F88412C0F38001154AB2
:1025F00008321160C0F30011121F1160C0F34011C6
:10260000104A3C321160C0F38011104A1160C0F3CF
:10261000C0110C4A38321160C0F300210B4A121D60
:102620001160C0F34021074A34321160C0F38021A9
:10263000044A14321160C0F3C021024A0C32116006
:1026400070470000808242420000434290024342B1
:1026500070B505460C4607480749086008464460BF
:1026600000218160C5600161FFF778F80248FFF73B
:10267000EFF870BD00040040C002002000F001012E
:10268000104A1160C0F340010F4AC2F8BC12C0F3F7
:1026900080010C4A383A1160C0F3C001121D11606C
:1026A000C0F30011094A1160C0F34011121D1160FE
:1026B000C0F38011121D1160C109054AC2F8A812A9
:1026C00070470000B8824142008041429C02424271
:1026D0000000424270B504460420FFF70FF80A4894
:1026E000046025464FF47A7045434FF0E0200069BE
:1026F00040F002004FF0E0210861084645610069A2
:1027000040F00100086170BD2400002030B504468F
:10271000002504E04FF47A7000F004F86D1CA54227
:10272000F8D330BD70B5034600224FF0E02675693E
:102730000D4E366803FB06F44FF0E026B16910E059
:102740004FF0E026B06988420BD0884202D20E1AC0
:10275000324402E02E1A0E4432440146A24200D313
:1027600000E0EDE700BF70BD2400002000BF054A77
:10277000126802F04002002AF9D0C2B2014B5A603E
:1027800070470000001001400EB54FF478402CA1B6
:1027900020221346CDE900210290DC220A210846BE
:1027A00003F054FB4FF4784027A118221346CDE9DB
:1027B00000210290DC222F210A2003F047FB4FF476
:1027C000784026A110221346CDE900210290DC2298
:1027D0004C210A2003F03AFB4FF4784023A1102249
:1027E0001346CDE900210290DC2276210A2003F075
:1027F0002DFB4FF4784020A110221346CDE9002193
:102800000290DC228B210A2003F020FB4FF4784059
:102810001CA110221346CDE900210290DC22A02148
:102820000A2003F013FB1B48012100238022CDE97D
:10283000001019A11B4805F0C7FD05F0FBF90EBDFE
:1028400053544D33320000004672656552544F5365
:1028500020506F7274696E670000000041544F4D44
:1028600040414C49454E54454B000000546F746143
:102870006C204D656D3A000046726565204D656DB2
:102880003A0000004D616C6C6F6320416464723AE1
:10289000000000000400002073746172745F7461B2
:1028A000736B00001574000800B587B000BF00BF4F
:1028B000002001903848006840F010003649086058
:1028C0000846006800F01000019000BF00BF00BF84
:1028D00000BF00BF002001900846006840F01000D3
:1028E00008600846006800F01000019000BF00BFBB
:1028F00000BF00BF00BF002001900846006840F004
:10290000100008600846006800F01000019000BF49
:1029100000BF00BF00BF00BF002001900846006854
:1029200040F0010008600846006800F001000190D6
:1029300000BF00BF00BF10200290002003900120C4
:1029400004900220059002A91448FEF701F908201E
:10295000029000200390012004900220059002A91B
:102960000E48FEF7F5F804200290002003900120A5
:1029700004900220059002A90848FEF7E9F801201A
:1029800002900020039002200490059002A90448C0
:10299000FEF7DEF807B000BD3038024000100240FC
:1029A0000000024070B50446002514B101202B49F7
:1029B00008702A480078002834D010212848FEF7F3
:1029C000C9F978B108212648FEF7C4F950B10421AD
:1029D0002348FEF7BFF928B101212248FEF7BAF9D2
:1029E00001281FD10A20FFF791FE00201B49087023
:1029F00010211B48FEF7AEF900B90125082118483F
:102A0000FEF7A8F900B9022504211548FEF7A2F93E
:102A100000B9032501211348FEF79CF901281BD1B9
:102A2000042519E010210E48FEF794F9012813D16E
:102A300008210B48FEF78EF901280DD10421084822
:102A4000FEF788F9012807D101210648FEF782F92F
:102A500010B9012001490870284670BD44000020CB
:102A6000001002400000024070B5044600260948EC
:102A70000588408845430021084603F0B7F803F075
:102A8000C5FA00BF02E004480480761CAE42FAD3C7
:102A900070BD0000600200208000006C10B504468C
:102AA00058488471002C58D1F020564908804FF4C2
:102AB000A07048800846808845F21051884210D1A5
:102AC0004FF430504F4908814FF4285048814FF45B
:102AD0002C5088814FF4F07008804FF44870488083
:102AE0001AE04848808841F6631188420DD12C20B5
:102AF000444908812B2048812A2088814FF4F070B6
:102B000008804FF44870488006E02C203D49088139
:102B10002A2048812B2088813A48808845F210314C
:102B2000884205D03748808847F29671884206D19E
:102B30004FF4A070334908804FF4F070488031485A
:102B4000808849F60601884258D14FF4F0702D492B
:102B500008804FF44870488050E04FF4A070294935
:102B60000880F02048800846808845F2105188424D
:102B700010D14FF43050234908814FF42850488138
:102B80004FF42C5088814FF4487008804FF4F07057
:102B9000488020E01B48808841F66311884205D0B8
:102BA0001848808849F6060188420DD12C20154925
:102BB00008812A2048812B2088814FF448700880A2
:102BC0004FF4F070488006E02C200E4908812A203E
:102BD00048812B2088810B48808845F2103188423B
:102BE00005D00848808847F29671884206D14FF494
:102BF000F070044908804FF4A0704880002002F073
:102C0000D7FE10BD6002002070B505460E46144682
:102C10003146284602F0EAFF03F0F8F901490C803A
:102C200070BD00008000006C10B5CF2003F0E2F909
:102C3000002003F0D3F9C12003F0D0F9302003F0D5
:102C4000CDF9ED2003F0D6F9642003F0C7F9032095
:102C500003F0C4F9122003F0C1F9812003F0BEF99A
:102C6000E82003F0C7F9852003F0B8F9102003F03D
:102C7000B5F97A2003F0B2F9CB2003F0BBF9392083
:102C800003F0ACF92C2003F0A9F9002003F0A6F919
:102C9000342003F0A3F9022003F0A0F9F72003F099
:102CA000A9F9202003F09AF9EA2003F0A3F9002003
:102CB00003F094F9002003F091F9C02003F09AF991
:102CC0001B2003F08BF9C12003F094F9012003F0DD
:102CD00085F9C52003F08EF9302003F07FF930200C
:102CE00003F07CF9C72003F085F9B72003F076F9EB
:102CF000362003F07FF9482003F070F93A2003F002
:102D000079F9552003F06AF9B12003F073F9002036
:102D100003F064F91A2003F061F9B62003F06AF9B0
:102D20000A2003F05BF9A22003F058F9F22003F027
:102D300061F9002003F052F9262003F05BF901202D
:102D400003F04CF9E02003F055F90F2003F046F9A9
:102D50002A2003F043F9282003F040F9082003F06B
:102D60003DF90E2003F03AF9082003F037F954201A
:102D700003F034F9A92003F031F9432003F02EF9D0
:102D80000A2003F02BF90F2003F028F9002003F0AC
:102D900025F9002003F022F9002003F01FF900209C
:102DA00003F01CF9E12003F025F9002003F016F9E7
:102DB000152003F013F9172003F010F9072003F092
:102DC0000DF9112003F00AF9062003F007F92B2072
:102DD00003F004F9562003F001F93C2003F0FEF85B
:102DE000052003F0FBF8102003F0F8F80F2003F0A3
:102DF000F5F83F2003F0F2F83F2003F0EFF80F2042
:102E000003F0ECF82B2003F0F5F8002003F0E6F8CF
:102E1000002003F0E3F8012003F0E0F83F2003F086
:102E2000DDF82A2003F0E6F8002003F0D7F80020B0
:102E300003F0D4F8002003F0D1F8EF2003F0CEF82F
:102E4000112003F0D7F87820FFF760FC292003F069
:102E5000D1F810BD10B5FF2003F0CCF8FF2003F02F
:102E6000BDF8982003F0BAF8062003F0B7F8BC20AC
:102E700003F0C0F8012003F0B1F80F2003F0AEF822
:102E8000612003F0ABF8FF2003F0A8F8012003F065
:102E9000A5F8012003F0A2F80B2003F09FF8102002
:102EA00003F09CF8372003F099F8632003F096F8BC
:102EB000FF2003F093F8FF2003F090F8012003F0C7
:102EC0008DF8012003F08AF8002003F087F8002035
:102ED00003F084F8FF2003F081F8522003F07EF81D
:102EE000012003F07BF8002003F078F8402003F085
:102EF00075F8BD2003F07EF8012003F06FF8232061
:102F000003F06CF8452003F069F8672003F066F8D9
:102F1000012003F063F8232003F060F8452003F05C
:102F20005DF8672003F05AF8BE2003F063F8002034
:102F300003F054F8012003F051F8AB2003F04EF8F1
:102F4000602003F04BF8222003F048F8222003F021
:102F500045F8222003F042F8222003F03FF8222017
:102F600003F03CF8C72003F045F8362003F036F8AC
:102F7000ED2003F03FF87F2003F030F80F2003F03E
:102F80002DF8C02003F036F80F2003F027F80B20AF
:102F900003F024F80A2003F021F8FC2003F02AF8BB
:102FA000082003F01BF8DF2003F024F8002003F0D2
:102FB00015F8002003F012F8002003F00FF80020AD
:102FC00003F00CF8002003F009F8202003F006F8C5
:102FD000F32003F00FF8742003F000F8B42003F09E
:102FE00009F8002002F0FAFF002002F0F7FF0020AD
:102FF00002F0F4FFF72002F0FDFF822002F0EEFF66
:10300000B12002F0F7FF002002F0E8FF132002F0E9
:10301000E5FF132002F0E2FFF22002F0EBFF802038
:1030200002F0DCFF042002F0D9FF402002F0D6FFBE
:10303000282002F0D3FFC12002F0DCFF172002F0AD
:10304000CDFF882002F0CAFF882002F0C7FF2020B1
:1030500002F0C4FFE02002F0CDFF002002F0BEFF2E
:103060000A2002F0BBFF122002F0B8FF102002F08D
:10307000B5FF0E2002F0B2FF202002F0AFFFCC20FF
:1030800002F0ACFF072002F0A9FF062002F0A6FF25
:103090000B2002F0A3FF0E2002F0A0FF0F2002F091
:1030A0009DFF0D2002F09AFF152002F097FF1020DF
:1030B00002F094FF002002F091FFE12002F09AFF5D
:1030C000002002F08BFF0B2002F088FF132002F09B
:1030D00085FF0D2002F082FF0E2002F07FFF1B20F3
:1030E00002F07CFF712002F079FF062002F076FFEB
:1030F000062002F073FF0A2002F070FF0F2002F09A
:103100006DFF0E2002F06AFF0F2002F067FF15200E
:1031100002F064FF0C2002F061FF002002F05EFF6D
:103120002A2002F067FF002002F058FF002002F082
:1031300055FF012002F052FFDF2002F04FFF2B204D
:1031400002F058FF002002F049FF002002F046FF85
:10315000032002F043FF1F2002F040FF3A2002F05C
:1031600049FF552002F03AFF362002F043FF0020CD
:1031700002F034FF112002F03DFF7820FFF7C6FA7D
:10318000292002F037FF1420FFF7C0FA2C2002F0AC
:1031900031FF10BD10B5ED2002F02CFF012002F030
:1031A0001DFFFE2002F01AFFEE2002F023FFDE20BA
:1031B00002F014FF212002F011FFF12002F01AFFAB
:1031C000012002F00BFFDF2002F014FF102002F0BC
:1031D00005FFC42002F00EFF8F2002F0FFFEC62084
:1031E00002F008FF002002F0F9FEE22002F0F6FEF5
:1031F000E22002F0F3FEE22002F0F0FEBF2002F037
:10320000F9FEAA2002F0EAFEB02002F0F3FE0D2043
:1032100002F0E4FE002002F0E1FE0D2002F0DEFEEE
:10322000002002F0DBFE112002F0D8FE002002F0A8
:10323000D5FE192002F0D2FE002002F0CFFE2120A0
:1032400002F0CCFE002002F0C9FE2D2002F0C6FEE6
:10325000002002F0C3FE3D2002F0C0FE002002F07C
:10326000BDFE5D2002F0BAFE002002F0B7FE5D2038
:1032700002F0B4FE002002F0B1FEB12002F0BAFE6E
:10328000802002F0ABFE002002F0A8FE8B2002F0AE
:10329000A5FE002002F0A2FE962002F09FFE002074
:1032A00002F09CFEB22002F0A5FE002002F096FE85
:1032B000002002F093FE022002F090FE002002F0B7
:1032C0008DFE032002F08AFE002002F087FEB3206C
:1032D00002F090FE002002F081FE002002F07EFE4F
:1032E000002002F07BFE002002F078FE002002F0B9
:1032F00075FE002002F072FE002002F06FFE00203A
:1033000002F06CFE002002F069FE002002F066FE72
:10331000002002F063FE002002F060FE002002F0B8
:103320005DFE002002F05AFE002002F057FE002051
:1033300002F054FE002002F051FE002002F04EFE8A
:10334000002002F04BFE002002F048FE002002F0B8
:1033500045FE002002F042FE002002F03FFE002069
:1033600002F03CFEB42002F045FE8B2002F036FE57
:10337000002002F033FE962002F030FE002002F022
:103380002DFEA12002F02AFE002002F027FEB5202B
:1033900002F030FE022002F021FE002002F01EFEAC
:1033A000032002F01BFE002002F018FE042002F0B1
:1033B00015FE002002F012FEB62002F01BFE0020D7
:1033C00002F00CFE002002F009FEB72002F012FE0F
:1033D000002002F003FE002002F000FE3F2002F079
:1033E000FDFD002002F0FAFD5E2002F0F7FD002056
:1033F00002F0F4FD642002F0F1FD002002F0EEFD89
:103400008C2002F0EBFD002002F0E8FDAC2002F081
:10341000E5FD002002F0E2FDDC2002F0DFFD0020EF
:1034200002F0DCFD702002F0D9FD002002F0D6FD94
:10343000902002F0D3FD002002F0D0FDEB2002F03E
:10344000CDFD002002F0CAFDDC2002F0C7FD002007
:1034500002F0C4FDB82002F0CDFD002002F0BEFD58
:10346000002002F0BBFD002002F0B8FD002002F0B9
:10347000B5FD002002F0B2FD002002F0AFFD0020FB
:1034800002F0ACFD002002F0A9FDBA2002F0B2FD6E
:10349000242002F0A3FD002002F0A0FD002002F095
:1034A0009DFD002002F09AFDC12002F0A3FD202026
:1034B00002F094FD002002F091FD542002F08EFDF8
:1034C000002002F08BFDFF2002F088FD002002F0BA
:1034D00085FDC22002F08EFD0A2002F07FFD002053
:1034E00002F07CFD042002F079FD002002F076FD60
:1034F000C32002F07FFD3C2002F070FD002002F0AE
:103500006DFD3A2002F06AFD002002F067FD3920CF
:1035100002F064FD002002F061FD372002F05EFD44
:10352000002002F05BFD3C2002F058FD002002F07C
:1035300055FD362002F052FD002002F04FFD3220F2
:1035400002F04CFD002002F049FD2F2002F046FD64
:10355000002002F043FD2C2002F040FD002002F08C
:103560003DFD292002F03AFD002002F037FD262023
:1035700002F034FD002002F031FD242002F02EFD87
:10358000002002F02BFD242002F028FD002002F094
:1035900025FD232002F022FD002002F01FFD3C202B
:1035A00002F01CFD002002F019FD362002F016FD8D
:1035B000002002F013FD322002F010FD002002F086
:1035C0000DFD2F2002F00AFD002002F007FD2C2047
:1035D00002F004FD002002F001FD292002F0FEFCB3
:1035E000002002F0FBFC262002F0F8FC002002F094
:1035F000F5FC242002F0F2FC002002F0EFFC242075
:1036000002F0ECFC002002F0E9FC232002F0E6FCD2
:10361000002002F0E3FCC42002F0ECFC622002F087
:10362000DDFC002002F0DAFC052002F0D7FC0020CF
:1036300002F0D4FC842002F0D1FC002002F0CEFC89
:10364000F02002F0CBFC002002F0C8FC182002F0B1
:10365000C5FC002002F0C2FCA42002F0BFFC002048
:1036600002F0BCFC182002F0B9FC002002F0B6FC0D
:10367000502002F0B3FC002002F0B0FC0C2002F05D
:10368000ADFC002002F0AAFC172002F0A7FC0020ED
:1036900002F0A4FC952002F0A1FC002002F09EFCA8
:1036A000F32002F09BFC002002F098FCE62002F0E0
:1036B00095FC002002F092FCC52002F09BFC322019
:1036C00002F08CFC002002F089FC442002F086FC11
:1036D000002002F083FC652002F080FC002002F054
:1036E0007DFC762002F07AFC002002F077FC882036
:1036F00002F074FC002002F071FCC62002F07AFC9B
:10370000202002F06BFC002002F068FC172002F081
:1037100065FC002002F062FC012002F05FFC00204A
:1037200002F05CFCC72002F065FC002002F056FCB1
:10373000002002F053FC002002F050FC002002F0B8
:103740004DFCC82002F056FC002002F047FC00208F
:1037500002F044FC002002F041FC002002F03EFC9C
:10376000C92002F047FC002002F038FC002002F0E3
:1037700035FC002002F032FC002002F02FFC00207B
:1037800002F02CFC002002F029FC002002F026FCB4
:10379000002002F023FC002002F020FC002002F0B8
:1037A0001DFC002002F01AFC002002F017FC002093
:1037B00002F014FC002002F011FC002002F00EFCCC
:1037C000002002F00BFCE02002F014FC162002F0B6
:1037D00005FC002002F002FC1C2002F0FFFB002090
:1037E00002F0FCFB212002F0F9FB002002F0F6FBC6
:1037F000362002F0F3FB002002F0F0FB462002F03E
:10380000EDFB002002F0EAFB522002F0E7FB002073
:1038100002F0E4FB642002F0E1FB002002F0DEFB9A
:103820007A2002F0DBFB002002F0D8FB8B2002F0B4
:10383000D5FB002002F0D2FB992002F0CFFB002044
:1038400002F0CCFBA82002F0C9FB002002F0C6FB6E
:10385000B92002F0C3FB002002F0C0FBC42002F03C
:10386000BDFB002002F0BAFBCA2002F0B7FB00202B
:1038700002F0B4FBD22002F0B1FB002002F0AEFB5C
:10388000D92002F0ABFB002002F0A8FBE02002F000
:10389000A5FB002002F0A2FBF32002F09FFB00201A
:1038A00002F09CFBE12002F0A5FB162002F096FB43
:1038B000002002F093FB1C2002F090FB002002F09D
:1038C0008DFB222002F08AFB002002F087FB3620CD
:1038D00002F084FB002002F081FB452002F07EFB19
:1038E000002002F07BFB522002F078FB002002F067
:1038F00075FB642002F072FB002002F06FFB7A205F
:1039000002F06CFB002002F069FB8B2002F066FBEA
:10391000002002F063FB992002F060FB002002F01F
:103920005DFBA82002F05AFB002002F057FBB920F3
:1039300002F054FB002002F051FBC42002F04EFBC9
:10394000002002F04BFBCA2002F048FB002002F0EE
:1039500045FBD22002F042FB002002F03FFBD820C2
:1039600002F03CFB002002F039FBE02002F036FBC5
:10397000002002F033FBF32002F030FB002002F0C5
:103980002DFBE22002F036FB052002F027FB002091
:1039900002F024FB0B2002F021FB002002F01EFBB2
:1039A0001B2002F01BFB002002F018FB342002F069
:1039B00015FB002002F012FB442002F00FFB002058
:1039C00002F00CFB4F2002F009FB002002F006FB86
:1039D000612002F003FB002002F000FB792002F0DE
:1039E000FDFA002002F0FAFA882002F0F7FA00202F
:1039F00002F0F4FA972002F0F1FA002002F0EEFA59
:103A0000A62002F0EBFA002002F0E8FAB72002F05C
:103A1000E5FA002002F0E2FAC22002F0DFFA00200C
:103A200002F0DCFAC72002F0D9FA002002F0D6FA40
:103A3000D12002F0D3FA002002F0D0FAD62002F012
:103A4000CDFA002002F0CAFADD2002F0C7FA002009
:103A500002F0C4FAF32002F0C1FA002002F0BEFA2C
:103A6000E32002F0C7FA052002F0B8FA002002F0C5
:103A7000B5FA0A2002F0B2FA002002F0AFFA1C20D8
:103A800002F0ACFA002002F0A9FA332002F0A6FA04
:103A9000002002F0A3FA442002F0A0FA002002F075
:103AA0009DFA502002F09AFA002002F097FA622064
:103AB00002F094FA002002F091FA782002F08EFAD7
:103AC000002002F08BFA882002F088FA002002F031
:103AD00085FA972002F082FA002002F07FFAA620F1
:103AE00002F07CFA002002F079FAB72002F076FAB0
:103AF000002002F073FAC22002F070FA002002F0F7
:103B00006DFAC72002F06AFA002002F067FAD120AD
:103B100002F064FA002002F061FAD52002F05EFAA9
:103B2000002002F05BFADD2002F058FA002002F0DB
:103B300055FAF32002F052FA002002F04FFAE42086
:103B400002F058FA012002F049FA002002F046FA89
:103B5000012002F043FA002002F040FA022002F0B5
:103B60003DFA002002F03AFA2A2002F037FA00204B
:103B700002F034FA3C2002F031FA002002F02EFA72
:103B80004B2002F02BFA002002F028FA5D2002F010
:103B900025FA002002F022FA742002F01FFA002019
:103BA00002F01CFA842002F019FA002002F016FA42
:103BB000932002F013FA002002F010FAA22002F083
:103BC0000DFA002002F00AFAB32002F007FA0020F2
:103BD00002F004FABE2002F001FA002002F0FEF921
:103BE000C42002F0FBF9002002F0F8F9CD2002F029
:103BF000F5F9002002F0F2F9D32002F0EFF90020ED
:103C000002F0ECF9DD2002F0E9F9002002F0E6F91B
:103C1000F32002F0E3F9002002F0E0F9E52002F0E1
:103C2000E9F9002002F0DAF9002002F0D7F90020CB
:103C300002F0D4F9002002F0D1F9022002F0CEF90E
:103C4000002002F0CBF9292002F0C8F9002002F090
:103C5000C5F93C2002F0C2F9002002F0BFF94B2068
:103C600002F0BCF9002002F0B9F95D2002F0B6F9CB
:103C7000002002F0B3F9742002F0B0F9002002F045
:103C8000ADF9842002F0AAF9002002F0A7F99320F0
:103C900002F0A4F9002002F0A1F9A22002F09EF99E
:103CA000002002F09BF9B32002F098F9002002F006
:103CB00095F9BE2002F092F9002002F08FF9C4209D
:103CC00002F08CF9002002F089F9CD2002F086F98B
:103CD000002002F083F9D32002F080F9002002F0E6
:103CE0007DF9DC2002F07AF9002002F077F9F32068
:103CF00002F074F9002002F071F9E62002F07AF97E
:103D0000112002F06BF9002002F068F9342002F073
:103D100065F9002002F062F9562002F05FF90020F8
:103D200002F05CF9762002F059F9002002F056F911
:103D3000772002F053F9002002F050F9662002F0DB
:103D40004DF9002002F04AF9882002F047F90020DE
:103D500002F044F9992002F041F9002002F03EF906
:103D6000BB2002F03BF9002002F038F9992002F064
:103D700035F9002002F032F9662002F02FF9002018
:103D800002F02CF9552002F029F9002002F026F962
:103D9000552002F023F9002002F020F9452002F01E
:103DA0001DF9002002F01AF9432002F017F9002053
:103DB00002F014F9442002F011F9002002F00EF98B
:103DC000E72002F017F9322002F008F9002002F093
:103DD00005F9552002F002F9002002F0FFF87620E4
:103DE00002F0FCF8002002F0F9F8662002F0F6F884
:103DF000002002F0F3F8672002F0F0F8002002F053
:103E0000EDF8672002F0EAF8002002F0E7F88720DA
:103E100002F0E4F8002002F0E1F8992002F0DEF868
:103E2000002002F0DBF8BB2002F0D8F8002002F0FE
:103E3000D5F8992002F0D2F8002002F0CFF87720D0
:103E400002F0CCF8002002F0C9F8442002F0C6F8D5
:103E5000002002F0C3F8562002F0C0F8002002F063
:103E6000BDF8232002F0BAF8002002F0B7F83320A2
:103E700002F0B4F8002002F0B1F8452002F0AEF8EC
:103E8000002002F0ABF8E82002F0B4F8002002F0C5
:103E9000A5F8002002F0A2F8992002F09FF8002077
:103EA00002F09CF8872002F099F8002002F096F8C2
:103EB000882002F093F8002002F090F8772002F0BA
:103EC0008DF8002002F08AF8662002F087F80020C2
:103ED00002F084F8882002F081F8002002F07EF8D9
:103EE000AA2002F07BF8002002F078F8BB2002F054
:103EF00075F8002002F072F8992002F06FF80020A7
:103F000002F06CF8662002F069F8002002F066F812
:103F1000552002F063F8002002F060F8552002F00E
:103F20005DF8002002F05AF8442002F057F8002013
:103F300002F054F8442002F051F8002002F04EF84C
:103F4000552002F04BF8002002F048F8E92002F07A
:103F500051F8AA2002F042F8002002F03FF80020B9
:103F600002F03CF8002002F039F8002002F042F89C
:103F7000AA2002F033F8CF2002F03CF8002002F033
:103F80002DF8002002F02AF8002002F027F8002087
:103F900002F024F8002002F021F8002002F01EF8C0
:103FA000002002F01BF8002002F018F8002002F0B8
:103FB00015F8002002F012F8002002F00FF800209F
:103FC00002F00CF8002002F009F8002002F006F8D8
:103FD000002002F003F8002002F000F8002001F0B9
:103FE000FDFFF02002F006F8002001F0F7FF50205E
:103FF00001F0F4FF002001F0F1FF002001F0EEFFDE
:10400000002001F0EBFFF32001F0F4FF002001F0AD
:10401000E5FFF92001F0EEFF062001F0DFFF1020A0
:1040200001F0DCFF292001F0D9FF002001F0D6FFCC
:104030003A2001F0DFFF552001F0D0FF112001F000
:10404000D9FF6420FEF762FB292001F0D3FF352061
:1040500001F0D0FF002001F0C1FF512001F0CAFFA4
:10406000FF2001F0BBFF532001F0C4FF2C2001F022
:10407000B5FF552001F0BEFF822001F0AFFF2C20DC
:1040800001F0B8FF10BD10B555214FF4704001F09C
:10409000C7FFAA214FF2010001F0C2FF52214FF2E7
:1040A000020001F0BDFF08214FF2030001F0B8FF4C
:1040B00001214FF2040001F0B3FF0D214FF4304015
:1040C00001F0AEFF0D214BF2010001F0A9FF0D211F
:1040D0004BF2020001F0A4FF34214FF4364001F00E
:1040E0009FFF34214BF2016001F09AFF34214BF223
:1040F000026001F095FF0D214FF4314001F090FF77
:104100000D214BF2011001F08BFF0D214BF202103B
:1041100001F086FF34214FF4374001F081FF342154
:104120004BF2017001F07CFF34214BF2027001F080
:1041300077FF00214FF4324001F072FF00214BF273
:10414000012001F06DFF00214BF2022001F068FF19
:1041500024214FF4384001F063FF24214BF6010085
:1041600001F05EFF24214BF6020001F059FF01210E
:104170004FF43F4001F054FF0F214FF4334001F062
:104180004FFF0F214BF2013001F04AFF0F214BF29C
:10419000023001F045FF34214FF4394001F040FF77
:1041A00034214BF6011001F03BFF34214BF6021095
:1041B00001F036FF08214FF4354001F031FF0821AE
:1041C0004BF2015001F02CFF08214BF2025001F09C
:1041D00027FF03214FF4424001F022FF24214FF436
:1041E0003A4001F01DFF24214BF6012001F018FF99
:1041F00024214BF6022001F013FF00214FF43C4034
:1042000001F00EFF78214BF6014001F009FF00217B
:104210004BF6024001F004FF00214FF43D4001F055
:10422000FFFE78214BF6015001F0FAFE00214BF61B
:10423000025001F0F5FE00214FF43E4001F0F0FE87
:1042400064214BF6016001F0EBFE00214FF4514078
:1042500001F0E6FE33214DF2011001F0E1FE0021F4
:104260004DF2021001F0DCFE34214DF2031001F09A
:10427000D7FE00214DF2041001F0D2FE3A214DF29A
:10428000051001F0CDFE00214DF2061001F0C8FE30
:104290004A214DF2071001F0C3FE00214DF2081033
:1042A00001F0BEFE5C214DF2091001F0B9FE0021C3
:1042B0004DF20A1001F0B4FE81214DF20B1001F015
:1042C000AFFE00214DF20C1001F0AAFEA6214DF226
:1042D0000D1001F0A5FE00214DF20E1001F0A0FE20
:1042E000E5214DF20F1001F09BFE01214DF210105F
:1042F00001F096FE13214DF2111001F091FE012103
:104300004DF2121001F08CFE54214DF2131001F009
:1043100087FE01214DF2141001F082FE82214DF240
:10432000151001F07DFE01214DF2161001F078FE0E
:10433000CA214DF2171001F073FE02214DF2181040
:1043400001F06EFE00214DF2191001F069FE02210C
:104350004DF21A1001F064FE01214DF21B1001F024
:104360005FFE02214DF21C1001F05AFE34214DF285
:104370001D1001F055FE02214DF21E1001F050FEFD
:1043800067214DF21F1001F04BFE02214DF220106B
:1043900001F046FE84214DF2211001F041FE022180
:1043A0004DF2221001F03CFEA4214DF2231001F049
:1043B00037FE02214DF2241001F032FEB7214DF2FA
:1043C000251001F02DFE02214DF2261001F028FEED
:1043D000CF214DF2271001F023FE02214DF22810CB
:1043E00001F01EFEDE214DF2291001F019FE02211E
:1043F0004DF22A1001F014FEF2214DF22B1001F0C3
:104400000FFE02214DF22C1001F00AFEFE214DF2AA
:104410002D1001F005FE03214DF22E1001F000FEDB
:1044200010214DF22F1001F0FBFD03214DF2301051
:1044300001F0F6FD33214DF2311001F0F1FD0321C1
:104440004DF2321001F0ECFD6D214DF2331001F010
:10445000E7FD00214FF4524001F0E2FD33214DF21F
:10446000012001F0DDFD00214DF2022001F0D8FD18
:1044700034214DF2032001F0D3FD00214DF2042040
:1044800001F0CEFD3A214DF2052001F0C9FD0021D9
:104490004DF2062001F0C4FD4A214DF2072001F043
:1044A000BFFD00214DF2082001F0BAFD5C214DF264
:1044B000092001F0B5FD00214DF20A2001F0B0FD08
:1044C00081214DF20B2001F0ABFD00214DF20C20BB
:1044D00001F0A6FDA6214DF20D2001F0A1FD002165
:1044E0004DF20E2001F09CFDE5214DF20F2001F070
:1044F00097FD01214DF2102001F092FD13214DF2A4
:10450000112001F08DFD01214DF2122001F088FDF6
:1045100054214DF2132001F083FD01214DF21420AE
:1045200001F07EFD82214DF2152001F079FD01217F
:104530004DF2162001F074FDCA214DF2172001F052
:104540006FFD02214DF2182001F06AFD00214DF2AD
:10455000192001F065FD02214DF21A2001F060FDE5
:1045600001214DF21B2001F05BFD02214DF21C20C8
:1045700001F056FD34214DF21D2001F051FD0221C4
:104580004DF21E2001F04CFD67214DF21F2001F07D
:1045900047FD02214DF2202001F042FD84214DF221
:1045A000212001F03DFD02214DF2222001F038FDD5
:1045B000A4214DF2232001F033FD02214DF22420ED
:1045C00001F02EFDB7214DF2252001F029FD022139
:1045D0004DF2262001F024FDCF214DF2272001F0DD
:1045E0001FFD02214DF2282001F01AFDDE214DF2BF
:1045F000292001F015FD02214DF22A2001F010FDC5
:10460000F2214DF22B2001F00BFD02214DF22C2066
:1046100001F006FDFE214DF22D2001F001FD0321E8
:104620004DF22E2001F0FCFC10214DF22F2001F064
:10463000F7FC03214DF2302001F0F2FC33214DF262
:10464000312001F0EDFC03214DF2322001F0E8FCB5
:104650006D214DF2332001F0E3FC00214FF4534073
:1046600001F0DEFC33214DF2013001F0D9FC0021D4
:104670004DF2023001F0D4FC34214DF2033001F050
:10468000CFFC00214DF2043001F0CAFC3A214DF27A
:10469000053001F0C5FC00214DF2063001F0C0FCF0
:1046A0004A214DF2073001F0BBFC00214DF20830E9
:1046B00001F0B6FC5C214DF2093001F0B1FC0021A3
:1046C0004DF20A3001F0ACFC81214DF20B3001F0CB
:1046D000A7FC00214DF20C3001F0A2FCA6214DF206
:1046E0000D3001F09DFC00214DF20E3001F098FCE0
:1046F000E5214DF20F3001F093FC01214DF2103015
:1047000001F08EFC13214DF2113001F089FC0121E2
:104710004DF2123001F084FC54214DF2133001F0BF
:104720007FFC01214DF2143001F07AFC82214DF220
:10473000153001F075FC01214DF2163001F070FCCE
:10474000CA214DF2173001F06BFC02214DF21830F6
:1047500001F066FC00214DF2193001F061FC0221EC
:104760004DF21A3001F05CFC01214DF21B3001F0DA
:1047700057FC02214DF21C3001F052FC34214DF265
:104780001D3001F04DFC02214DF21E3001F048FCBD
:1047900067214DF21F3001F043FC02214DF2203021
:1047A00001F03EFC84214DF2213001F039FC022160
:1047B0004DF2223001F034FCA4214DF2233001F0FF
:1047C0002FFC02214DF2243001F02AFCB7214DF2DA
:1047D000253001F025FC02214DF2263001F020FCAD
:1047E000CF214DF2273001F01BFC02214DF2283081
:1047F00001F016FCDE214DF2293001F011FC0221FE
:104800004DF22A3001F00CFCF2214DF22B3001F078
:1048100007FC02214DF22C3001F002FCFE214DF28A
:104820002D3001F0FDFB03214DF22E3001F0F8FB9D
:1048300010214DF22F3001F0F3FB03214DF2303007
:1048400001F0EEFB33214DF2313001F0E9FB0321A1
:104850004DF2323001F0E4FB6D214DF2333001F0C6
:10486000DFFB00214FF4544001F0DAFB33214DF21D
:10487000014001F0D5FB00214DF2024001F0D0FBD8
:1048800034214DF2034001F0CBFB00214DF20440F6
:1048900001F0C6FB3A214DF2054001F0C1FB0021B9
:1048A0004DF2064001F0BCFB4A214DF2074001F0F9
:1048B000B7FB00214DF2084001F0B2FB5C214DF244
:1048C000094001F0ADFB00214DF20A4001F0A8FBC8
:1048D00081214DF20B4001F0A3FB00214DF20C4071
:1048E00001F09EFBA6214DF20D4001F099FB002145
:1048F0004DF20E4001F094FBE5214DF20F4001F026
:104900008FFB01214DF2104001F08AFB13214DF283
:10491000114001F085FB01214DF2124001F080FBB6
:1049200054214DF2134001F07BFB01214DF2144064
:1049300001F076FB82214DF2154001F071FB01215F
:104940004DF2164001F06CFBCA214DF2174001F008
:1049500067FB02214DF2184001F062FB00214DF28D
:10496000194001F05DFB02214DF21A4001F058FBA5
:1049700001214DF21B4001F053FB02214DF21C407E
:1049800001F04EFB34214DF21D4001F049FB0221A4
:104990004DF21E4001F044FB67214DF21F4001F033
:1049A0003FFB02214DF2204001F03AFB84214DF201
:1049B000214001F035FB02214DF2224001F030FB95
:1049C000A4214DF2234001F02BFB02214DF22440A3
:1049D00001F026FBB7214DF2254001F021FB022119
:1049E0004DF2264001F01CFBCF214DF2274001F093
:1049F00017FB02214DF2284001F012FBDE214DF29F
:104A0000294001F00DFB02214DF22A4001F008FB84
:104A1000F2214DF22B4001F003FB02214DF22C401C
:104A200001F0FEFAFE214DF22D4001F0F9FA0321CA
:104A30004DF22E4001F0F4FA10214DF22F4001F01A
:104A4000EFFA03214DF2304001F0EAFA33214DF242
:104A5000314001F0E5FA03214DF2324001F0E0FA75
:104A60006D214DF2334001F0DBFA00214FF4554047
:104A700001F0D6FA33214DF2015001F0D1FA0021B4
:104A80004DF2025001F0CCFA34214DF2035001F006
:104A9000C7FA00214DF2045001F0C2FA3A214DF25A
:104AA000055001F0BDFA00214DF2065001F0B8FAB0
:104AB0004A214DF2075001F0B3FA00214DF208509F
:104AC00001F0AEFA5C214DF2095001F0A9FA002183
:104AD0004DF20A5001F0A4FA81214DF20B5001F081
:104AE0009FFA00214DF20C5001F09AFAA6214DF2E6
:104AF0000D5001F095FA00214DF20E5001F090FAA0
:104B0000E5214DF20F5001F08BFA01214DF21050CA
:104B100001F086FA13214DF2115001F081FA0121C2
:104B20004DF2125001F07CFA54214DF2135001F075
:104B300077FA01214DF2145001F072FA82214DF200
:104B4000155001F06DFA01214DF2165001F068FA8E
:104B5000CA214DF2175001F063FA02214DF21850AC
:104B600001F05EFA00214DF2195001F059FA0221CC
:104B70004DF21A5001F054FA01214DF21B5001F090
:104B80004FFA02214DF21C5001F04AFA34214DF245
:104B90001D5001F045FA02214DF21E5001F040FA7D
:104BA00067214DF21F5001F03BFA02214DF22050D7
:104BB00001F036FA84214DF2215001F031FA022140
:104BC0004DF2225001F02CFAA4214DF2235001F0B5
:104BD00027FA02214DF2245001F022FAB7214DF2BA
:104BE000255001F01DFA02214DF2265001F018FA6D
:104BF000CF214DF2275001F013FA02214DF2285037
:104C000001F00EFADE214DF2295001F009FA0221DD
:104C10004DF22A5001F004FAF2214DF22B5001F02E
:104C2000FFF902214DF22C5001F0FAF9FE214DF26C
:104C30002D5001F0F5F903214DF22E5001F0F0F95D
:104C400010214DF22F5001F0EBF903214DF23050BD
:104C500001F0E6F933214DF2315001F0E1F9032181
:104C60004DF2325001F0DCF96D214DF2335001F07C
:104C7000D7F900214FF4564001F0D2F933214DF21B
:104C8000016001F0CDF900214DF2026001F0C8F998
:104C900034214DF2036001F0C3F900214DF20460AC
:104CA00001F0BEF93A214DF2056001F0B9F9002199
:104CB0004DF2066001F0B4F94A214DF2076001F0AF
:104CC000AFF900214DF2086001F0AAF95C214DF224
:104CD000096001F0A5F900214DF20A6001F0A0F988
:104CE00081214DF20B6001F09BF900214DF20C6027
:104CF00001F096F9A6214DF20D6001F091F9002125
:104D00004DF20E6001F08CF9E5214DF20F6001F0DB
:104D100087F901214DF2106001F082F913214DF263
:104D2000116001F07DF901214DF2126001F078F976
:104D300054214DF2136001F073F901214DF214601A
:104D400001F06EF982214DF2156001F069F901213F
:104D50004DF2166001F064F9CA214DF2176001F0BE
:104D60005FF902214DF2186001F05AF900214DF26D
:104D7000196001F055F902214DF21A6001F050F965
:104D800001214DF21B6001F04BF902214DF21C6034
:104D900001F046F934214DF21D6001F041F9022184
:104DA0004DF21E6001F03CF967214DF21F6001F0E9
:104DB00037F902214DF2206001F032F984214DF2E1
:104DC000216001F02DF902214DF2226001F028F955
:104DD000A4214DF2236001F023F902214DF2246059
:104DE00001F01EF9B7214DF2256001F019F90221F9
:104DF0004DF2266001F014F9CF214DF2276001F049
:104E00000FF902214DF2286001F00AF9DE214DF27E
:104E1000296001F005F902214DF22A6001F000F944
:104E2000F2214DF22B6001F0FBF802214DF22C60D3
:104E300001F0F6F8FE214DF22D6001F0F1F80321AA
:104E40004DF22E6001F0ECF810214DF22F6001F0D0
:104E5000E7F803214DF2306001F0E2F833214DF222
:104E6000316001F0DDF803214DF2326001F0D8F835
:104E70006D214DF2336001F0D3F855214FF47040AD
:104E800001F0CEF8AA214FF2010001F0C9F8522139
:104E90004FF2020001F0C4F808214FF2030001F0C4
:104EA000BFF800214FF2040001F0BAF8CC214FF412
:104EB000314001F0B5F800214BF2011001F0B0F8DB
:104EC00005214FF4364001F0ABF870214FF4374024
:104ED00001F0A6F870214BF2017001F0A1F8012158
:104EE0004FF4384001F09CF803214BF6010001F02B
:104EF00097F803214BF6020001F092F803214BF6DC
:104F0000030001F08DF802214FF43C4001F088F8D5
:104F100000214BF6014001F083F800214BF60240DE
:104F200001F07EF8D0214FF4494001F079F80221D8
:104F30004CF6011001F074F850214CF6021001F00B
:104F40006FF850214CF6031001F06AF850214CF62E
:104F5000041001F065F800214FF4545001F060F89E
:104F600055214FF4685001F05BF84FF4885001F080
:104F700041F87820FDF7D6FB4FF4245001F03AF8C1
:104F800010BD10B5E22001F035F81D2001F026F823
:104F9000022001F023F8042001F020F86420FDF73E
:104FA000C1FBE02001F026F8012001F017F80A20EB
:104FB000FDF7ACFBE02001F01DF8032001F00EF836
:104FC0000C20FDF7A3FB012001F014F80A20FDF7E7
:104FD0009DFBE62001F00EF82F2000F0FFFFFF20E0
:104FE00000F0FCFFFF2000F0F9FFB02001F002F814
:104FF000202000F0F3FF002000F0F0FF032000F07D
:10500000EDFF40F21F3000F0E9FF012000F0E6FF65
:1050100040F2DF1000F0E2FF002000F0DFFFB420DC
:1050200000F0E8FF042000F0D9FF40F21F4000F03C
:10503000D5FF002000F0D2FF2E2000F0CFFF00208F
:1050400000F0CCFF002000F0C9FF002000F0C6FFF8
:10505000002000F0C3FFB62000F0CCFF022000F0DB
:10506000BDFF4FF4037000F0B9FF002000F0B6FF61
:10507000172000F0B3FF152000F0B0FF002000F073
:10508000ADFF002000F0AAFFF02000F0B3FF0320E6
:1050900000F0A4FF292000F0ADFFD02000F0AAFF0F
:1050A000002000F09BFFBE2000F0A4FF052000F0D0
:1050B00095FFFE2000F092FF012000F08FFF0020FE
:1050C00000F08CFF002000F089FF002000F086FF38
:1050D000B82000F08FFF032000F080FF012000F0D7
:1050E0007DFFBA2000F086FF012000F077FF10BDA1
:1050F00010B5112000F07EFF7820FDF707FB362069
:1051000000F078FF002000F069FF3A2000F072FF05
:10511000052000F063FFB22000F06CFF0C2000F0CF
:105120005DFF0C2000F05AFF002000F057FF3320F5
:1051300000F054FF332000F051FFB72000F05AFF79
:10514000352000F04BFFBB2000F054FF322000F070
:1051500045FFC02000F04EFF0C2000F03FFFC220B2
:1051600000F048FF012000F039FFC32000F042FFAB
:10517000102000F033FFC42000F03CFF202000F09E
:105180002DFFC62000F036FF0F2000F027FFD020B3
:1051900000F030FFA42000F021FFA12000F01EFF4E
:1051A000E02000F027FFD02000F018FF002000F0E2
:1051B00015FF022000F012FF072000F00FFF0A2069
:1051C00000F00CFF282000F009FF322000F006FF5D
:1051D000442000F003FF422000F000FF062000F012
:1051E000FDFE0E2000F0FAFE122000F0F7FE142063
:1051F00000F0F4FE172000F0F1FEE12000F0FAFECE
:10520000D02000F0EBFE002000F0E8FE022000F0CD
:10521000E5FE072000F0E2FE0A2000F0DFFE282075
:1052200000F0DCFE312000F0D9FE542000F0D6FE64
:10523000472000F0D3FE0E2000F0D0FE1C2000F02E
:10524000CDFE172000F0CAFE1B2000F0C7FE1E2076
:1052500000F0C4FE2A2000F0CDFE002000F0BEFECB
:10526000002000F0BBFE002000F0B8FEEF2000F0B0
:10527000B5FE2B2000F0BEFE002000F0AFFE0020A7
:1052800000F0ACFE012000F0A9FE3F2000F0A6FED9
:10529000292000F0AFFE10BD10B5112000F0AAFECD
:1052A0007820FDF733FA362000F0A4FE482000F005
:1052B00095FE3A2000F09EFE552000F08FFEF02073
:1052C00000F098FEC32000F089FEF02000F092FE6E
:1052D000962000F083FEB42000F08CFE012000F048
:1052E0007DFEB62000F086FE0A2000F077FEA220A8
:1052F00000F074FEB72000F07DFEC62000F06EFEC8
:10530000B92000F077FE022000F068FEE02000F0F7
:1053100065FEC02000F06EFE802000F05FFE1620CB
:1053200000F05CFEC12000F065FE192000F056FE82
:10533000C22000F05FFEA72000F050FEC52000F064
:1053400059FE162000F04AFEE82000F053FE4020EF
:1053500000F044FE8A2000F041FE002000F03EFEF6
:10536000002000F03BFE292000F038FE192000F05C
:1053700035FEA52000F032FE332000F02FFEE020A5
:1053800000F038FEF02000F029FE072000F026FE95
:105390000D2000F023FE042000F020FE052000F088
:1053A0001DFE142000F01AFE362000F017FE5420D7
:1053B00000F014FE4C2000F011FE382000F00EFE2C
:1053C000132000F00BFE142000F008FE2E2000F049
:1053D00005FE342000F002FEE12000F00BFEF0207C
:1053E00000F0FCFD102000F0F9FD142000F0F6FDA7
:1053F0000E2000F0F3FD0C2000F0F0FD082000F07E
:10540000EDFD352000F0EAFD442000F0E7FD4C20E2
:1054100000F0E4FD262000F0E1FD102000F0DEFDAC
:10542000122000F0DBFD2C2000F0D8FD322000F02F
:10543000D5FDF02000F0DEFD3C2000F0CFFDF02097
:1054400000F0D8FD692000F0C9FD7820FDF75EF975
:10545000212000F0CFFD292000F0CCFD10BD000080
:1054600000B595B000BF00BF00200190F84800686B
:1054700040F04000F64908600846006800F040002F
:10548000019000BF00BF00BF00BF00BF002001901F
:105490000846006840F0080008600846006800F010
:1054A0000800019000BF00BF00BF00BF00BF002088
:1054B00001900846006840F008000860084600684F
:1054C00000F00800019000BF00BF00BF00BF00BF98
:1054D000002001900846006840F04000086008463F
:1054E000006800F04000019000BF00BF00BF00BF97
:1054F00000BF002001900846006840F002000860EC
:105500000846006800F00200019000BF00BF00BF25
:105510008814109002201190012012900220139004
:105520000C20149010A9CB48FBF712FB2020109000
:1055300010A9C948FBF70CFB1020109010A9C64811
:10554000FBF706FB4FF48050109010A9C348FBF7FF
:10555000FFFA4FF4004010900120119010A9C048AC
:10556000FBF7F6FA4FF02040BE490860BE4848609D
:10557000062088600021BB48C160102141610021E4
:105580008161C16141624FF4805181620021C16239
:105590004FF4804101630021416381630F20099032
:1055A00000200A903C200B9000200F9009200290D0
:1055B00000200390092004900020089002AA09A965
:1055C000A848FCF71DF83220FDF7A0F8D32000F022
:1055D00011FD00F0E1F9A549888000F0DDF9A3494B
:1055E000888000F0D9F9A1498880084680884FF664
:1055F000FF7101EA00209D49888000F0CDF99B49A8
:1056000089880843994988800846808849F2413151
:1056100088427CD0042000F0EDFC00F0BDF99349F5
:10562000888000F0B9F99149888000F0B5F98F4978
:105630008880084680884FF6FF7101EA00208B4978
:10564000888000F0A9F989498988084387498880BA
:105650000846808848F25251884203D147F2897047
:10566000824988808148808847F289718842D0D0F9
:10567000D42000F0BFFC00F08FF97C49888000F056
:105680008BF97A49888000F087F978498880084644
:1056900080884FF6FF7101EA00207449888000F08D
:1056A0007BF9724989880843704988800846808858
:1056B00045F210318842ACD0D32000F09BFC00F0C2
:1056C0006BF96A49888000F067F96849888000F0C2
:1056D00063F966498880084680884FF6FF7101EAC1
:1056E00000206249888000F057F9604989880843A2
:1056F0005E4988800846808847F29671884288D043
:1057000055214FF4704000F08BFCAA2100E07EE0B0
:105710004FF2010000F084FC52214FF2020000F031
:105720007FFC08214FF2030000F07AFC01214FF2C8
:10573000040000F075FC4FF4454000F05BFC00F005
:105740002BF94A498880084680884FF6FF7101EAA4
:105750000020464988804CF2015000F04BFC00F0DC
:105760001BF9424989880843404988800520FCF795
:10577000CDFF3E48808845F21051884247D0D32063
:1057800000F038FC00F008F93849888000F004F98E
:105790003649888000F000F93449888008468088BE
:1057A0004FF6FF7101EA00203049888000F0F4F8DC
:1057B0002E49898808432D4988800846808849F603
:1057C0000601884223D0A12000F014FC00F0E4F888
:1057D0002649888000F0E0F82449888008468088BF
:1057E0004FF6FF7101EA00202049888000F0D4F8CC
:1057F0001E49898808431D4988800846808845F2EB
:105800006171884203D141F66310184988801748B6
:10581000818817A0FAF714FE1448808847F289712E
:10582000884202D1FFF764FC4EE01048808849F2BC
:105830004131884202D1FDF7F7F945E00B488088F5
:1058400045F21031884219D1FDF7A4FC3CE000007C
:105850003038024000180240000C024000140240A0
:105860000004024010020020040100A06002002099
:105870004C43442049443A25780D0A003A48808830
:1058800047F29671884202D1FFF706FD1CE03648C8
:10589000808845F21051884202D1FEF7F4FB13E0F4
:1058A0003148808849F60601884202D1FDF7D2FAD4
:1058B0000AE02D48808841F66311884204D1FFF741
:1058C00060FB642000F05AFB2748808847F289710A
:1058D00088420BD02448808849F24131884205D063
:1058E0002148808841F6631188420AD10320029042
:1058F00004901E490B6B8A68486802A9FBF74AF8B6
:1059000021E01948808845F21031884211D01648AC
:10591000808847F2967188420BD01348808845F200
:105920001051884205D01048808849F60601884207
:1059300009D10220029004900C490B6B8A684868D8
:1059400002A9FBF727F80020FDF7A8F800BF012205
:10595000D1030748FBF706FA00BF4FF6FF70FDF7CB
:1059600083F815B000BD0000600200201002002086
:105970000004024000BF011EA0F10100FBD17047EE
:1059800010B50246012000E050430B1EA1F10104B6
:10599000E1B2F9D110BD000008B50220FFF7EAFF1F
:1059A000024800880090BDF8000008BD8000006C2F
:1059B000F0B50546002400278B488079012805D1E1
:1059C0008948808841F66311884208D186488079E9
:1059D000F0B98548808841F66311884218D1082DB6
:1059E00015D2DFE805F00406080A0C0E1012062591
:1059F0000DE007250BE0042509E0052507E001255A
:105A000005E0002503E0032501E0022500BF00BFFB
:105A1000082D1CD2DFE805F00406090C0F1215183A
:105A200000BF14E044F0800411E044F040040EE0B4
:105A300044F0C0040BE044F0200408E044F06004AB
:105A400005E044F0A00402E044F0E00400BF00BF21
:105A500036276548808845F21051884200D13F02C0
:105A60006148808849F2413188420BD05E48808885
:105A700047F28971884205D05B48808847F2967169
:105A8000884201D144F008042146384600F0C8FAA3
:105A90005548808841F6631188421DD004F02000EB
:105AA00068B15148008850494988884214DA4E4804
:105AB000068840884C490880084646800CE04A48E1
:105AC000008849494988884206DD47480688408859
:105AD00045490880084646804348808845F2105171
