:020000040800F2
:1000000070B30120090300086B1E0008631E00087E
:10001000671E0008290A0008A1230008000000004C
:10002000000000000000000000000000490200087D
:100030002D0A000800000000A50200084B1F000860
:100040002D0300082D0300082D0300082D030008D0
:100050002D0300082D0300082D0300082D030008C0
:100060002D0300082D0300082D0300082D030008B0
:100070002D0300082D0300082D0300082D030008A0
:100080002D0300082D0300082D0300082D03000890
:100090002D0300082D0300082D0300082D03000880
:1000A0002D0300082D0300082D0300082D03000870
:1000B0002D030008751F00082D0300082D030008FC
:1000C0002D0300082D0300082D0300082D03000850
:1000D0002D030008912300082D0300082D030008BC
:1000E0002D0300082D0300082D0300082D03000830
:1000F0002D0300082D0300082D0300082D03000820
:100100002D0300082D0300082D0300082D0300080F
:100110002D0300082D0300082D030008851F00088B
:100120002D0300082D0300082D0300082D030008EF
:100130002D0300082D0300082D0300082D030008DF
:100140002D0300082D0300082D0300082D030008CF
:100150002D0300082D0300082D0300082D030008BF
:100160002D0300082D0300082D0300082D030008AF
:100170002D0300082D0300082D03000800000000D7
:100180002D0300082D03000800F002F800F04DF8E0
:100190000AA090E8000C82448344AAF10107DA45E2
:1001A00001D100F042F8AFF2090EBAE80F0013F0E7
:1001B000010F18BFFB1A43F001031847A8C0000045
:1001C000C8C00000103A24BF78C878C1FAD85207D6
:1001D00024BF30C830C144BF04680C6070470000C1
:1001E0000023002400250026103A28BF78C1FBD840
:1001F000520728BF30C148BF0B607047642900F028
:100200006B81752900F06881782900F0A18163294C
:1002100000F06183732900F06683002070471FB5EA
:1002200009F028F81FBD10B510BD00F0CBFB11463A
:10023000FFF7F5FF05F0ACFD00F0E9FB03B4FFF7B5
:10024000F2FF03BC02F0E2F82C4B19680868B0E832
:10025000F04F80F30988BFF36F8F4FF0000080F3F9
:10026000118870470000000008480068006880F3AB
:1002700008884FF0000080F3148862B661B6BFF3BF
:100280004F8FBFF36F8F00DF00BF00BF08ED00E0AE
:10029000DFF80C00016841F470010160704700BF95
:1002A00088ED00E0EFF30980BFF36F8F134B1A68FE
:1002B0001EF0100F08BF20ED108A20E9F04F1060EB
:1002C00009B44FF0500080F31188BFF34F8FBFF394
:1002D0006F8F07F06DFF4FF0000080F3118809BCAD
:1002E00019680868B0E8F04F1EF0100F08BFB0ECB6
:1002F000108A80F30988BFF36F8F70476C0000206D
:10030000EFF30580704700000C48016841F470016C
:1003100001600B4880470B480047FEE7FEE7FEE719
:10032000FEE7FEE7FEE7FEE7FEE7FEE7FEE700008A
:1003300005480649044A064B7047000088ED00E076
:10034000611F00088901000870AF012070B301200F
:1003500070AF0120704753EA020C00F069802DE96C
:10036000F04B4FF00006002B1FBFB3FA83F503FAE2
:1003700005F424FA05F65E4012BF1643B2FA82F580
:1003800002FA05F4C5F120051EBF22FA05FC44EA75
:100390000C04203556EA044C4FEA144418BF641C80
:1003A0004FF000084FF00009904271EB030C39D375
:1003B000002919BFB1FA81F701FA07F6B0FA80F700
:1003C00000FA07F6C7F120071EBF20FA07FC46EA2D
:1003D0000C062037B6FBF4FCA7EB0507103F07F02F
:1003E0001F0BCBF120060CFA0BFB2CFA06F644BFD0
:1003F000B3460026202FA4BF5E464FF0000B5BEAF9
:10040000060C08BF4FF0010B19EB0B09ABFB027C8C
:1004100048EB0608C01B06FB02CC0BFB03CC71EBC0
:100420000C01C1E70B46024641464846BDE8F08B49
:1004300013B54FF000004FF00001AFF30080BDE8AE
:100440001C4070470FB4044910B503AA029800F08D
:100450004FFA10BC5DF814FB2C0000200FB41CB543
:10046000074B06AA7B4469460090059800F011FAF4
:100470000020694600F020FA1CBC5DF814FB000067
:100480005104000070B50C460546012A05D02878B5
:10049000800600D5EA69002302E0012305E05B1C29
:1004A000934202D2E05C0028F9D1A869E618C01A8C
:1004B000A861286A184428622846AFF3008004E047
:1004C000D5E9012114F8010B9047B442F8D328462E
:1004D000AFF3008070BD00002DE9F0410646002416
:1004E00010687529314616A510D0AFF3008000289A
:1004F00002DA404213A507E031688A0701D512A548
:1005000002E0490704D511A5012401E0AFF3008002
:1005100000210A2206F1240709E0B0FBF2FCB0FB3F
:10052000F2F302FB1C00303078541846491C0028B6
:10053000F3D123462A463046BDE8F04100F04BB9DE
:10054000000000002D0000002B0000002000000033
:1005500070B504460D4621461068AFF3008021882F
:10056000090502D50F4A7A4402E00E4A7A440E3257
:10057000002104F1240305E000F00F060009965D58
:100580005E54491C0028F7D120780023000704D5C9
:10059000702D02D009B1022311322046BDE870400F
:1005A00000F019B9D2BC00002DE9F0410F46054614
:1005B000002028622846E968884770B3252805D0BE
:1005C000D5E901219047286A401CF2E7E9682846EE
:1005D000002688476C2804460AD0682C08D04C2C8A
:1005E00035D06A2C31D0742C31D07A2C2FD016E033
:1005F000E968064628468847B042044608D16C2E72
:1006000023D04FF480662846E9688847044606E010
:100610006C2E03D04FF4807601E01EE04026E4B15A
:10062000A4F14100192802D8203446F400663A4665
:10063000214628462E60FFF7E1FD60B1012808D071
:10064000FF1D27F007070837B4E78026DBE7002601
:10065000D9E73F1DAEE72046B2E7286ABDE8F08142
:1006600040EA0103024630B59B0710D14FF0013438
:1006700000E008C208C91D1B9D4315EAC41FF8D03D
:1006800013F0FF0102F8011B0DD01B0AF8E711F867
:10069000013B002B02F8013B05D011F8013B002B78
:1006A00002F8013BF3D130BD10B5431C02E010F855
:1006B000011B71B18107FAD14FF0013202C88C1AC7
:1006C0008C4314EAC211F9D0C01A0A0603D0C01E26
:1006D00010BDC01A10BD0A0401D0801E10BD090251
:1006E000FCD0401E10BD032A40F2308010F0030CF5
:1006F00000F0158011F8013BBCF1020F624498BF75
:1007000011F801CB00F8013B38BF11F8013BA2F111
:10071000040298BF00F801CB38BF00F8013B11F08C
:10072000030300F0F780083AC0F0088051F8043B5A
:10073000083A51F804CBA0E80810F5E7121D5CBF99
:1007400051F8043B40F8043BAFF30080D20724BFCC
:1007500011F8013B11F801CB48BF11F8012B24BF60
:1007600000F8013B00F801CB48BF00F8012B7047AF
:1007700002F0FF0343EA032242EA024200F0FEB81D
:100780004FF0000200B5134694469646203922BF2A
:10079000A0E80C50A0E80C50B1F12001BFF4F7AF75
:1007A000090728BFA0E80C5048BF0CC05DF804EB57
:1007B000890028BF40F8042B08BF704748BF20F8C5
:1007C000022B11F0804F18BF00F8012B70477047C3
:1007D0007047704770472DE9F0470D46994692469D
:1007E000044600F124080168880604D5E06921F078
:1007F0001001216000E00120A84201DD471B00E05C
:100800000027A1697A1902EB0900081AA061207873
:10081000C00602D42046AFF30080002608E0D4E9E9
:1008200001211AF806009047206A401C761C2062BD
:100830004E45F4DB2078C0060AD52046AFF3008091
:1008400006E0D4E9012130209047206A401C206254
:10085000381EA7F10107F4DC07E0D4E9012118F8FC
:1008600005009047206A401C2062281EA5F1010562
:10087000F3DC2046AFF300802078000602D502208A
:10088000BDE8F0870120FBE701694A1C0261087896
:10089000704700B58FB0CDE90131002105910549C0
:1008A0007944CDE9031011466846FFF77DFE0FB08D
:1008B00000BD0000E5FFFFFF0A6802F8010B0A60B7
:1008C000704710B5436913B1AFF3008001E0FFF743
:1008D000D9FD012010BD127800F124010A70002218
:1008E0004A700122EDE711684FF0FF32E9E700009E
:1008F000074B70B50D467B44FFF7CBFF04462846F7
:1009000000F05CF810B14FF0FF3070BD204670BDB4
:100910004B1D000010B5203AC0F00B80B1E8185014
:10092000203AA0E81850B1E81850A0E81850BFF4D9
:10093000F5AF5FEA027C24BFB1E81850A0E8185078
:1009400044BF18C918C0BDE810405FEA827C24BFCC
:1009500051F8043B40F8043B08BF7047D20728BF5A
:1009600031F8023B48BF11F8012B28BF20F8023BA9
:1009700048BF00F8012B70474FF000020429C0F077
:10098000128010F0030C3FF4FDAECCF1040CBCF16E
:10099000020F18BF00F8012BA8BF20F8022BA1EB13
:1009A0000C01FFF7EFBE5FEAC17C24BF00F8012B0A
:1009B00000F8012B48BF00F8012B7047007B00F0C6
:1009C00080007047754600F02BF8AE46050069467A
:1009D000534620F00700854618B020B5FFF7A8FC65
:1009E000BDE820404FF000064FF000074FF0000830
:1009F0004FF0000B21F00701AC46ACE8C009ACE8B1
:100A0000C009ACE8C009ACE8C0098D46704710B514
:100A10000446AFF300802046BDE81040FFF70EBC4F
:100A2000004870470CAF012000BFFEE77047000090
:100A300070B504461D460023B5F5804F13D154F818
:100A400022300C480340D1E9000640EA06108E68C7
:100A500040EA06208E8940EA06408E69304303430F
:100A600044F8223003E06FF0704044F82200002088
:100A700070BD00000000F0CF10B5034600220868EA
:100A800053F8202012480240D1E901042043CC68E9
:100A900020430C6920434C6920438C692043CC6976
:100AA00020430C6A20434C6A20438C6A2043CC6A62
:100AB0002043CC6B20430C6B2043024388680828FA
:100AC00001D142F04002086843F82020002010BD08
:100AD0008000F0FF30B503460024501C53F820403E
:100AE00004F04044D1E9000540EA05108D6840EA71
:100AF00005208D8940EA0545088A401E45EA0055D3
:100B0000087D801E45EA00608D6928430443501C1F
:100B100043F82040002030BD70B50446A56D00F0BC
:100B20007DF9064694F83500022808D080206065DB
:100B300000BF002084F8340000BF012070BD206891
:100B4000006820F01600216808602068406920F0E5
:100B5000800021684861206C08B9A06C28B1206829
:100B6000006820F00800216808602068006820F014
:100B70000100216808600FE000F050F9801B052893
:100B80000AD92020606500BF002084F8340000BF2F
:100B9000032084F83500D1E72068006800F00100E8
:100BA0000028E9D194F85C103F208840A86000BF7D
:100BB000002084F8340000BF012084F835000020B4
:100BC000BCE7014691F83500022803D08020486533
:100BD00001207047052081F835000868006820F082
:100BE00001000A6810600020F3E70000F8B5024633
:100BF0000B460025002400200021DEE0012606FA35
:100C000001F51E6806EA0504AC4275D11E7906F0AE
:100C10000306012E04D01E7906F00306022E13D11E
:100C200090684F000326BE40B0434F00DE68BE40D0
:100C300030439060506801268E40B0431E79C6F361
:100C400000168E40304350601E7906F00306032ED6
:100C500009D0D0684F000326BE40B0434F009E68C5
:100C6000BE403043D0601E7906F00306022E13D139
:100C7000CF0802F1200656F827004E07F70E0F2680
:100C8000BE40B0434F07FF0E1E69BE403043CF0841
:100C900002F1200646F8270010684F000326BE40E8
:100CA000B0431E7906F003064F00BE40304310608B
:100CB0005E6806F08056B6F1805F7DD100BF0026E9
:100CC0000096404E366846F480463E4F3E603E46B3
:100CD000366806F48046009600BF00BF3A4E8F0883
:100CE00056F827008E07370F0F26BE40B043374E09
:100CF000B24202D1002624E05EE0354EB24201D17C
:100D000001261EE0334EB24201D1022619E0324ED6
:100D1000B24201D1032614E0304EB24201D1042682
:100D20000FE02F4EB24201D105260AE02D4EB2420D
:100D300001D1062605E02C4EB24201D1072600E083
:100D400008268F073F0FBE4030431F4E8F0846F8DE
:100D50002700264E3068A0435E6806F48036B6F55C
:100D6000803F00D12043214E3060361D3068A043C3
:100D70005E6806F40036B6F5003F00D120431B4EF6
:100D8000361D3060361D3068A0435E6806F480165C
:100D9000B6F5801F00D12043144E08363060361D52
:100DA0003068A0435E6806F40016B6F5001F00D157
:100DB00020430E4E0C363060491C1029FFF41EAF44
:100DC000F8BD0000443802400838014000000240ED
:100DD0000004024000080240000C024000100240E3
:100DE0000014024000180240001C0240003C014078
:100DF00010B5426921EA020302EA010443EA04430E
:100E0000836110BD0AB1816101E00B048361704709
:100E100001480068000C7047002004E001480068A9
:100E20007047000034000020034800680349097837
:100E30000844014908607047340000203C0000204D
:100E400010B50A48006840F4007008490860084678
:100E5000006840F480600860032000F07FF80F20F5
:100E600000F006F800F02AF8002010BD003C024017
:100E700070B504460E4800784FF47A71B1FBF0F07B
:100E80000C490968B1FBF0F5284600F09BFC08B15D
:100E9000012070BD102C07D200222146501E00F008
:100EA0001EF80548046001E00120F2E70020F0E7A9
:100EB0003C00002000000020380000207047014660
:100EC0000846002809DB00F01F0301229A4043096D
:100ED0009B0003F1E023C3F8002100BF70472DE918
:100EE000F05F80460D461646002701F073FA07466C
:100EF00039462A46334601F00700C0F1070ABAF125
:100F0000040F02D94FF0040A01E0C0F1070AD146EC
:100F100000F1040ABAF1070F02D24FF0000A01E013
:100F2000A0F1030AD4464FF0010A0AFA09FAAAF11D
:100F3000010A0AEA020A0AFA0CFA4FF0010B0BFA4C
:100F40000CFBABF1010B0BEA030B4AEA0B04214645
:100F5000404601F047FABDE8F09F000000BF00F0F6
:100F60000702064B19684FF6FF031940044B0B4369
:100F700043EA0221014B196000BF70470CED00E00D
:100F80000000FA0570B504460D460CB9012070BD8D
:100F90005848006800F00700A84209D255490D7072
:100FA0000846006800F00700A84201D00120EEE7E3
:100FB000207800F0020002281DD1207800F0040003
:100FC000042805D14C48006840F4E0504A490860C4
:100FD000207800F00800082805D14748006840F450
:100FE0006040454908604448006820F0F000A1686E
:100FF000084341490860207800F00100A8B3606808
:10100000012807D13C4808380068C0F34040B8B90F
:101010000120BCE76068022802D06068032807D17D
:10102000354808380068C0F3406048B90120AEE791
:10103000314808380068C0F3400008B90120A6E72D
:101040002D48006820F00300616808432A490860C1
:10105000FFF7E4FE064609E0FFF7E0FE801B41F2E1
:101060008831884202D9032091E707E022480068CE
:1010700000F00C006168B0EB810FEDD11D480068F5
:1010800000F00700A84209D91A490D700846006807
:1010900000F00700A84201D0012078E7207800F096
:1010A0000400042807D11448006820F4E050E168E7
:1010B000084311490860207800F00800082808D18A
:1010C0000D48006820F46040216940EAC1000A49E7
:1010D000086000F03FF808490968C1F30311074AA6
:1010E000515CC8400649086006480068FFF7C0FE2A
:1010F00000204CE7003C0240083802407E92000885
:1011000000000020380000200148006870470000FF
:101110000000002000B5FFF7F7FF04490968C1F39C
:101120008221034A515CC84000BD000008380240DB
:101130008E92000800B5FFF7E7FF04490968C1F384
:101140004231034A515CC84000BD000008380240EB
:101150008E9200082DE9F047002400250026A146C4
:101160002548006800F00C0020B1042805D00828AC
:101170003AD105E0DFF8849039E0DFF8849036E07A
:101180001D48001F006800F03F041B48001F006856
:1011900000F4800078B11A481749091F0968C1F3A3
:1011A0008811A0FB01700146224600233846FFF754
:1011B000D2F805460EE011480F49091F0968C1F32E
:1011C0008811A0FB01700146224600233846FFF734
:1011D000C2F805460848001F0068C0F30140401CE3
:1011E0004600B5FBF6F902E0DFF8109000BF00BF43
:1011F0004846BDE8F0870000083802400024F400AB
:1012000000127A00F8B504460CB90120F8BD207828
:1012100000F00100002874D0F948006800F00C00CC
:1012200004280DD0F648006800F00C00082813D1FF
:10123000F348001F006800F48000B0F5800F0BD168
:10124000EF4808380068C0F34040002859D0606873
:10125000002856D10120D9E700BF6068B0F5803F73
:1012600008D1E7480838006840F48030E44908397C
:1012700008601EE06068B0F5A02F0DD1E048083886
:10128000006840F48020DE4908390860084600689C
:1012900040F4803008600CE0D9480838006820F439
:1012A0008030D749083908600846006820F480205B
:1012B000086000BF606890B1FFF7B0FD054606E02A
:1012C000FFF7ACFD401B642801D903209EE7CC4802
:1012D00008380068C0F340400028F1D011E0FFF763
:1012E0009DFD054606E0FFF799FD401B642801D9E6
:1012F00003208BE7C24808380068C0F3404000284C
:10130000F1D1207800F0020002285FD1BC480068CB
:1013100000F00C0058B1BA48006800F00C00082832
:101320001CD1B748001F006800F48000B0B9B44871
:1013300008380068C0F3400020B1E068012801D0FF
:10134000012063E7AE480838006820F0F800216902
:1013500040EAC100AA490839086037E0E06800B3F4
:101360000120A8490860FFF759FD054606E0FFF790
:1013700055FD401B022801D9032047E7A048083843
:101380000068C0F340000028F1D09D48083800688C
:1013900020F0F800216940EAC10099490839086045
:1013A00014E0002097490860FFF738FD054606E085
:1013B000FFF734FD401B022801D9032026E790489F
:1013C00008380068C0F340000028F1D1207800F010
:1013D000080008282CD16069A8B101208A4908605A
:1013E000FFF71CFD054606E0FFF718FD401B02282D
:1013F00001D903200AE782486C300068C0F340003E
:101400000028F1D014E000207F490860FFF706FDB6
:10141000054606E0FFF702FD401B022801D9032024
:10142000F4E677486C300068C0F340000028F1D142
:10143000207800F00400042870D10027704838306C
:10144000006800F0805090B900BF002000906C4808
:101450003830006840F080506949383108600846EB
:10146000006800F08050009000BF00BF012767486F
:10147000006800F48070B0B96448006840F480707F
:1014800062490860FFF7CAFC054606E0FFF7C6FCA4
:10149000401B022801D90320B8E65C48006800F42C
:1014A00080700028F2D000BFA068012808D15448FD
:1014B0006830006840F001005149683108601DE063
:1014C000A06805280DD14E486830006840F004003F
:1014D0004B49683108600846006840F00100086028
:1014E0000CE047486830006820F00100444968314A
:1014F00008600846006820F00400086000BFA0688B
:10150000A8B1FFF78BFC054609E0FFF787FC401BFD
:1015100041F28831884202D9032077E626E0384834
:1015200068300068C0F340000028EED013E0FFF7F9
:1015300075FC054608E0FFF771FC401B41F288315D
:10154000884201D9032061E62D4868300068C0F365
:1015500040000028EFD1012F07D12948383000681A
:1015600020F0805026493831086000BFA06900286B
:1015700045D02348006800F00C0008285DD0A06921
:10158000022845D100201F490866FFF747FC0546A1
:1015900006E0FFF743FC401B022801D9032035E693
:1015A000174808380068C0F340600028F1D1D4E93A
:1015B00007010843616A40EA81110122A06AC2EB77
:1015C000500041EA00412C20005D41EA00600C49D6
:1015D000091F086001200B490866FFF71FFC05463C
:1015E00006E0FFF71BFC401B022801D903200DE693
:1015F000034808380068C0F340600028F1D049E093
:101600000838024000004742800E47420070004008
:10161000002021490866FFF701FC054606E0FFF7B8
:10162000FDFB401B022801D90320EFE51B480068A1
:10163000C0F340600028F2D12CE0A069012800D15D
:10164000E4E51648001D0668A069012820D006F4CC
:101650008001E06981421BD106F03F01206A81428E
:1016600016D147F6C0703040616AB0EB811F0FD1D0
:1016700006F440310122A06AC2EB5000B1EB004FEA
:1016800006D106F070612C20005DB1EB006F01D037
:101690000120BBE50020B9E50000474200380240C8
:1016A00070B504460E4615460CB9012070BD94F87D
:1016B000490028B9002084F84800204600F01CF8B2
:1016C00004F108012068FFF7D7F93146A2682068C5
:1016D000FFF700FA2946236BD4E90102FFF7A8F9C6
:1016E000A168206850F8210040F00100A26821683C
:1016F00041F822000020D9E710B586B0044600BFAB
:10170000002000902248006840F001002049086055
:101710000846006800F00100009000BF00BF00BF55
:10172000002000901A480838006840F00800184966
:10173000083908600846006800F00800009000BF03
:1017400000BF00BF002000900846006840F0100075
:1017500008600846006800F01000009000BF00BF5D
:101760004CF20370019002200290012003900220AD
:1017700004900C20059001A90648FFF737FA4FF6B0
:101780008070019001A90448FFF730FA06B010BD3F
:1017900038380240000C024000100240042808D1F2
:1017A0004FF0E021096941F004014FF0E02211619E
:1017B00007E04FF0E021096921F004014FF0E02239
:1017C0001161704770B504462546681EB0F1807FF0
:1017D00001D301200FE0681E4FF0E02148610F2186
:1017E0004FF0FF3000F0FEFD00204FF0E021886157
:1017F00007200861002070BD70477047704710B522
:10180000044620680069C0F34000D8B12068C06871
:10181000C0F34000B0B16FF0020021680861012000
:1018200020772068806900F0030018B12046FFF798
:10183000E5FF05E0204600F0ADF8204600F0ABF8EB
:101840000020207720680069C0F38000D8B12068AC
:10185000C068C0F38000B0B16FF004002168086177
:10186000022020772068806900F4407018B120467B
:10187000FFF7C4FF05E0204600F08CF8204600F09A
:101880008AF80020207720680069C0F3C000D8B132
:101890002068C068C0F3C000B0B16FF008002168D4
:1018A0000861042020772068C06900F0030018B1A7
:1018B0002046FFF7A3FF05E0204600F06BF8204626
:1018C00000F069F80020207720680069C0F300105C
:1018D000D8B12068C068C0F30010B0B16FF010003C
:1018E00021680861082020772068C06900F44070F2
:1018F00018B12046FFF782FF05E0204600F04AF8C5
:10190000204600F048F8002020772068006900F0A9
:10191000010058B12068C06800F0010030B16FF0DC
:10192000010021680861204600F036F8206800694F
:10193000C0F3C01058B12068C068C0F3C01030B107
:101940006FF08000216808612046FFF755FF20688E
:101950000069C0F3801058B12068C068C0F38010DF
:1019600030B16FF0400021680861204600F03CF87B
:1019700020680069C0F3401058B12068C068C0F307
:10198000401030B16FF02000216808612046FFF759
:1019900034FF10BD7047704710B5044606488442B6
:1019A00003D106A0FEF74EFD05E00948844202D1AE
:1019B00008A0FEF747FD10BDA804002054494D3390
:1019C000CAE4B3F62E2E2E2E2E2E2E0D0A00000067
:1019D000F004002054494D37CAE4B3F62E2E2E2EC3
:1019E0002E2E2E0D0A000000704770477047000031
:1019F0002DE9F84F0446206805682068C66820680D
:101A000047694FF00009CA4605F00F09B9F1000F08
:101A10000AD105F0200038B106F0200020B12046A0
:101A200000F0EDFABDE8F88FB9F1000F72D007F0C1
:101A3000010018B906F4907000286BD005F0010081
:101A400030B106F4807018B1206C40F001002064C1
:101A500005F0040030B107F0010018B1206C40F02F
:101A60000200206405F0020030B107F0010018B157
:101A7000206C40F00400206405F0080048B106F036
:101A8000200010B907F0010018B1206C40F00800E8
:101A90002064206C70B305F0200028B106F020000F
:101AA00010B1204600F0ABFA20684069C0F3801AFC
:101AB000206C00F0080010B9BAF1000F23D02046C6
:101AC00000F072FA2068406900F04000402816D10A
:101AD0002068406920F0400021684861A06B50B147
:101AE0005648A16B0865A06BFFF76BF810B1A06BAF
:101AF000016D88470CE02046FFF778FF08E020469C
:101B0000FFF774FF04E02046FFF770FF0020206419
:101B100088E7FFE7206B012879D105F01000002845
:101B200075D006F01000002871D000BF0020009092
:101B300020680068009020684068009000BF00BFE7
:101B40002068406900F04000402839D1A06B00684F
:101B500040681FFA80F8B8F1000F30D0A08D4045E2
:101B60002DDDA4F82E80A06BC069B0F5807F1FD05A
:101B70002068C06820F480702168C86020684069CF
:101B800020F00100216848612068406920F0400091
:101B900021684861202084F83E00002020632068EE
:101BA000C06820F010002168C860A06BFEF7B4FF89
:101BB000A08DE28D801A81B22046FFF716FF31E733
:101BC000A08DE18D401A1FFA80F8E08DE8B1B8F1E0
:101BD000000F1AD02068C06820F490702168C86097
:101BE0002068406920F0010021684861202084F8C5
:101BF0003E00002020632068C06820F010002168AB
:101C0000C86041462046FFF7F0FE0BE7FFE705F00E
:101C1000800030B106F0800018B1204600F087FB4C
:101C200000E705F0400030B106F0400018B1204652
:101C300000F0D5F9F6E600BFF4E60000951F0008B5
:101C400010B504460CB9012010BDA06900B100E038
:101C500000BF94F83D0028B9002084F83C002046DD
:101C600000F028F8242084F83D002068C06820F4A3
:101C700000502168C860204600F020FA2068006902
:101C800020F49040216808612068406920F02A0013
:101C9000216848612068C06840F400502168C8602D
:101CA00000202064202084F83D0084F83E000020BD
:101CB000CAE7000010B586B004462E492068884265
:101CC00055D100BF00BF002000902B48006840F0B5
:101CD0001000294908600846006800F010000090D4
:101CE00000BF00BF00BF00BF00BF0020009022481F
:101CF0001438006840F001001F4914390860084694
:101D0000006800F00100009000BF00BF00BF00BFEE
:101D100000BF002000900846006840F00100086005
:101D20000846006800F00100009000BF00BF00BF3F
:101D30004815019002200290012003900220049097
:101D40000720059001A90D48FEF750FF4FF4806071
:101D500001900720059001A90848FEF747FF2520BC
:101D6000FFF7ADF8032211462520FFF7B8F806B0BB
:101D700010BD000000100140443802400000024045
:101D800070B504460D46164694F83E00202816D13C
:101D900005B10EB9012070BD00BF94F83C000128C8
:101DA00001D10220F7E7012084F83C0000BF0020A9
:101DB000206332462946204600F096FAEBE70220DF
:101DC000E9E7000010B504462049206888423BD16D
:101DD0001F48008800F4004088BB1D48008800F4BC
:101DE000804070B11B4800780A2803D000201849B1
:101DF000088024E01648008840F400401449088018
:101E00001DE0144800780D2806D11148008840F4E0
:101E100080400F49088012E00E4800780C4909887C
:101E2000C1F30D010C4A505409480088401C084970
:101E3000088008460088C72801DD002008800122AC
:101E400004490648FFF79CFF10BD00000010014048
:101E50003000002032000020EC020020B4030020FB
:101E6000704700BFFEE700BFFEE770472DE9F0476F
:101E70000C46DDE90867002100258C4600BF60E0C4
:101E80004FF0010808FA01F504EA050CAC4557D1FA
:101E9000D0F800804FEA410A4FF0030909FA0AF925
:101EA00028EA0908C0F80080D0F800804FEA41090C
:101EB00002FA09F948EA0908C0F80080012A01D0AD
:101EC000022A27D1D0F808804FEA410A4FF00309CF
:101ED00009FA0AF928EA0908C0F80880D0F8088049
:101EE0004FEA410906FA09F948EA0908C0F80880EA
:101EF000D0F804904FF0010808FA01F829EA08091F
:101F0000C0F80490D0F8048003FA01F948EA0908FF
:101F1000C0F80480D0F80C804FEA410A4FF0030962
:101F200009FA0AF928EA0908C0F80C80D0F80C80F0
:101F30004FEA410907FA09F948EA0908C0F80C8094
:101F4000491C10299CD3BDE8F08710B5FEF76CFF43
:101F500006F002FD012801D006F05CFA10BD000079
:101F60000348006840F470000149086070470000B1
:101F700088ED00E010B50248FFF741FC10BD0000FD
:101F8000A804002010B50248FFF739FC10BD00007E
:101F9000F004002070B50546AC6B0020E085E084BD
:101FA0002046FFF723FD70BD0168C96821F49071D8
:101FB0000268D1600168496921F00101026851613C
:101FC000016B012905D10168C96821F0100102687F
:101FD000D160202180F83E1000210163704710B5C8
:101FE00004462068C06820F040002168C8602020B6
:101FF00084F83D002046FFF733FF002010BD70B588
:10200000044694F83E00222856D1A068B0F5805FBF
:102010000CD1206950B90025A66A20684068C0F339
:1020200008003080A06A801CA06215E0A56A002626
:10203000A068B0F5805F03D0A06828B9206918B9FE
:1020400020684068287004E02068406800F07F0045
:102050002870A06A401CA062E08D401E80B2E0851E
:1020600040BB2068C06820F020002168C86020685C
:10207000C06820F480702168C8602068406920F042
:10208000010021684861202084F83E00206B01286F
:102090000AD12068C06820F010002168C860A18DB6
:1020A0002046FFF7A2FC02E02046FFF78BFE00204F
:1020B000206370BD0020FCE70220FAE72DE9F84F0D
:1020C00004462068006920F44050E1680843216814
:1020D00008612169A068084361690843E169084310
:1020E00000902068C06849F20C6188430099084359
:1020F0002168C8602068406920F44070A1690843E5
:102100002168486176492068884203D07549206873
:10211000884203D1FFF70EF8814602E0FEF7FAFF8E
:102120008146E069B0F5004F6CD102206168A0FBE8
:10213000015003461920A9FB007001462A46384683
:10214000FEF709F96421B0FBF1F04FEA001A022012
:102150006168A0FB01510B461920A9FB00712A46BA
:102160003846FEF7F8F8834602206168A0FB01506C
:1021700003461920A9FB00712A463846FEF7EBF802
:102180006421B0FBF1F000EBC00101EB0010ABEB00
:102190008000322101EBC0006421B0FBF1F000F0BF
:1021A000F8000AEB400A02206168A0FB01500346D8
:1021B0001920A9FB007001462A463846FEF7CBF8E5
:1021C000834602206168A0FB015003461920A9FB49
:1021D00000712A463846FEF7BEF86421B0FBF1F0E4
:1021E00000EBC00101EB0010ABEB8000322101EBF2
:1021F000C0006421B0FBF1F000F0070050442168FA
:1022000088606AE004206168A0FB01500346192041
:10221000A9FB007001462A463846FEF79CF8824624
:1022200004206168A0FB015003461920A9FB00703F
:1022300001462A463846FEF78EF86421B0FBF1F0DD
:1022400000EBC00101EB0010AAEB8000322101EB92
:1022500000106421B0FBF1F000F0F00A0420616886
:10226000A0FB017003461920A9FB00513A462846FD
:10227000FEF771F86421B0FBF1F00AEB001A0420BC
:102280006168A0FB01510B461920A9FB00712A4689
:102290003846FEF760F8834604206168A0FB0150D1
:1022A00003461920A9FB007001462A463846FEF76E
:1022B00052F86421B0FBF1F000EBC00101EB00101B
:1022C000ABEB8000322101EB00106421B0FBF1F098
:1022D00000F00F00504421688860BDE8F88F0000CE
:1022E000001001400014014010B5034699629A8520
:1022F000DA8500201864222083F83E0000BF002009
:1023000083F83C0000BF1868C06840F480701C6807
:10231000E0601868406940F001001C68606118685E
:10232000C06840F020001C68E060002010BD01463D
:1023300091F83D00212828D18868B0F5805F0BD145
:10234000086948B90A6A1088C0F308000B68586029
:10235000086A801C086205E00B6A581C086218783D
:102360000B685860C88C401E80B2C88458B9086891
:10237000C06820F080000B68D8600868C06840F032
:1023800040000B68D860002070470220FCE7000086
:1023900010B50248FFF72CFB10BD0000B40300206D
:1023A00000BFFEE770B50621302004F035FF302075
:1023B00004F042FE0546062D03D00621302004F02D
:1023C0002BFF002403E006F00FFE601C84B2C82C33
:1023D000F9DB70BD02480068C0F3022070470000BE
:1023E0000CED00E010B5002804DB0A07130E054AC7
:1023F000135406E00A07140E034A00F00F031B1FD4
:10240000D45410BD00E400E018ED00E000BF7047B8
:1024100000F00101194A1160C0F34001184AC2F8E6
:102420008412C0F38001154A08321160C0F3001114
:10243000121F1160C0F34011104A3C321160C0F30A
:102440008011104A1160C0F3C0110C4A383211607B
:10245000C0F300210B4A121D1160C0F34021074A4E
:1024600034321160C0F38021044A14321160C0F389
:10247000C021024A0C321160704700008082424243
:10248000000043429002434200F00101104A1160F3
:10249000C0F340010F4AC2F8BC12C0F380010C4ADD
:1024A000383A1160C0F3C001121D1160C0F3001171
:1024B000094A1160C0F34011121D1160C0F3801170
:1024C000121D1160C109054AC2F8A8127047000028
:1024D000B8824142008041429C0242420000424296
:1024E00070B504460420FFF759F90A4804602546F0
:1024F0004FF47A7045434FF0E020006940F002004D
:102500004FF0E021086108464561006940F0010094
:10251000086170BD2800002030B50446002504E0A5
:102520004FF47A7000F004F86D1CA542F8D330BD6A
:1025300070B5034600224FF0E02675690D4E3668EF
:1025400003FB06F44FF0E026B16910E04FF0E026FF
:10255000B06988420BD0884202D20E1A324402E09F
:102560002E1A0E4432440146A24200D300E0EDE7A9
:1025700000BF70BD280000202DE9F04707463E4609
:102580002EB940F275521DA125A0FDF75BFF28482A
:102590000068864201D100242DE005F05FF97569DD
:1025A0002448D0F800802448D0F8009005F0A2F923
:1025B000454501D04D4501D102241CE01F4885420C
:1025C00012D1B06A70B90324002007E006F1580167
:1025D000095C012901D1022402E0401C0128F5DB3D
:1025E00000BF08E0022406E01548854200D00DB97E
:1025F000042400E001242046BDE8F0872E2E5C2E46
:102600002E5C4D6964646C6577617265735C4672BB
:10261000656552544F535C7461736B732E63000095
:102620004572726F723A2025732C2025640D0A00C2
:102630006C0000207000002074000020D086012073
:10264000BC86012000BF054A126802F04002002A41
:10265000F9D0C2B2014B5A6070470000001001402F
:102660000EB54FF4784019A120221346CDE9002180
:102670000290DC220A21084603F0ACFA4FF47840BD
:1026800014A118221346CDE900210290DC222F214B
:102690000A2003F09FFA4FF4784013A1102213464A
:1026A000CDE900210290DC224C210A2003F092FAAD
:1026B0001148012100238022CDE900100FA112480A
:1026C00006F0AEF805F00AFD0EBD000053544D3380
:1026D000320000004672656552544F5320506F72AD
:1026E00074696E670000000041544F4D40414C49F1
:1026F000454E54454B000000040000207374617285
:10270000745F7461736B0000FD72000800B587B0E0
:1027100000BF00BF002001903848006840F0100062
:10272000364908600846006800F01000019000BFBC
:1027300000BF00BF00BF00BF002001900846006836
:1027400040F0100008600846006800F0100001909A
:1027500000BF00BF00BF00BF00BF002001900846BF
:10276000006840F0100008600846006800F01000A3
:10277000019000BF00BF00BF00BF00BF002001905C
:102780000846006840F0010008600846006800F054
:102790000100019000BF00BF00BF10200290002088
:1027A0000390012004900220059002A91448FEF72E
:1027B0001DFA0820029000200390012004900220BE
:1027C000059002A90E48FEF711FA0420029000209D
:1027D0000390012004900220059002A90848FEF70A
:1027E00005FA012002900020039002200490059039
:1027F00002A90448FEF7FAF907B000BD30380240DC
:10280000001002400000024070B50446002609484E
:102810000588408845430021084603F0ABF803F0E3
:1028200057FA00BF02E004480480761CAE42FAD397
:1028300070BD0000480400208000006C10B5044604
:1028400058488471002C58D1F020564908804FF424
:10285000A07048800846808845F21051884210D107
:102860004FF430504F4908814FF4285048814FF4BD
:102870002C5088814FF4F07008804FF448704880E5
:102880001AE04848808841F6631188420DD12C2017
:10289000444908812B2048812A2088814FF4F07018
:1028A00008804FF44870488006E02C203D4908819C
:1028B0002A2048812B2088813A48808845F21031AF
:1028C000884205D03748808847F29671884206D101
:1028D0004FF4A070334908804FF4F07048803148BD
:1028E000808849F60601884258D14FF4F0702D498E
:1028F00008804FF44870488050E04FF4A070294998
:102900000880F02048800846808845F210518842AF
:1029100010D14FF43050234908814FF4285048819A
:102920004FF42C5088814FF4487008804FF4F070B9
:10293000488020E01B48808841F66311884205D01A
:102940001848808849F6060188420DD12C20154987
:1029500008812A2048812B2088814FF44870088004
:102960004FF4F070488006E02C200E4908812A20A0
:1029700048812B2088810B48808845F2103188429D
:1029800005D00848808847F29671884206D14FF4F6
:10299000F070044908804FF4A0704880002002F0D5
:1029A000CBFE10BD4804002070B505460E46144607
:1029B0003146284602F0DEFF03F08AF901490C8017
:1029C00070BD00008000006C10B5CF2003F074F9DA
:1029D000002003F065F9C12003F062F9302003F014
:1029E0005FF9ED2003F068F9642003F059F9032042
:1029F00003F056F9122003F053F9812003F050F947
:102A0000E82003F059F9852003F04AF9102003F07B
:102A100047F97A2003F044F9CB2003F04DF939202F
:102A200003F03EF92C2003F03BF9002003F038F9C5
:102A3000342003F035F9022003F032F9F72003F0D7
:102A40003BF9202003F02CF9EA2003F035F90020AF
:102A500003F026F9002003F023F9C02003F02CF93D
:102A60001B2003F01DF9C12003F026F9012003F01B
:102A700017F9C52003F020F9302003F011F93020B8
:102A800003F00EF9C72003F017F9B72003F008F997
:102A9000362003F011F9482003F002F93A2003F040
:102AA0000BF9552003F0FCF8B12003F005F90020E4
:102AB00003F0F6F81A2003F0F3F8B62003F0FCF860
:102AC0000A2003F0EDF8A22003F0EAF8F22003F068
:102AD000F3F8002003F0E4F8262003F0EDF80120DD
:102AE00003F0DEF8E02003F0E7F80F2003F0D8F859
:102AF0002A2003F0D5F8282003F0D2F8082003F0AC
:102B0000CFF80E2003F0CCF8082003F0C9F85420C9
:102B100003F0C6F8A92003F0C3F8432003F0C0F87F
:102B20000A2003F0BDF80F2003F0BAF8002003F0EC
:102B3000B7F8002003F0B4F8002003F0B1F800204B
:102B400003F0AEF8E12003F0B7F8002003F0A8F896
:102B5000152003F0A5F8172003F0A2F8072003F0D2
:102B60009FF8112003F09CF8062003F099F82B2021
:102B700003F096F8562003F093F83C2003F090F809
:102B8000052003F08DF8102003F08AF80F2003F0E1
:102B900087F83F2003F084F83F2003F081F80F20EE
:102BA00003F07EF82B2003F087F8002003F078F87C
:102BB000002003F075F8012003F072F83F2003F0C5
:102BC0006FF82A2003F078F8002003F069F800205D
:102BD00003F066F8002003F063F8EF2003F060F8DC
:102BE000112003F069F87820FFF796FC292003F004
:102BF00063F810BD10B5FF2003F05EF8FF2003F06E
:102C00004FF8982003F04CF8062003F049F8BC2058
:102C100003F052F8012003F043F80F2003F040F8CE
:102C2000612003F03DF8FF2003F03AF8012003F0A3
:102C300037F8012003F034F80B2003F031F81020AE
:102C400003F02EF8372003F02BF8632003F028F868
:102C5000FF2003F025F8FF2003F022F8012003F005
:102C60001FF8012003F01CF8002003F019F80020E1
:102C700003F016F8FF2003F013F8522003F010F8C9
:102C8000012003F00DF8002003F00AF8402003F0C3
:102C900007F8BD2003F010F8012003F001F823200D
:102CA00002F0FEFF452002F0FBFF672002F0F8FF74
:102CB000012002F0F5FF232002F0F2FF452002F090
:102CC000EFFF672002F0ECFFBE2002F0F5FF0020CE
:102CD00002F0E6FF012002F0E3FFAB2002F0E0FF8C
:102CE000602002F0DDFF222002F0DAFF222002F055
:102CF000D7FF222002F0D4FF222002F0D1FF2220B1
:102D000002F0CEFFC72002F0D7FF362002F0C8FF46
:102D1000ED2002F0D1FF7F2002F0C2FF0F2002F071
:102D2000BFFFC02002F0C8FF0F2002F0B9FF0B2048
:102D300002F0B6FF0A2002F0B3FFFC2002F0BCFF55
:102D4000082002F0ADFFDF2002F0B6FF002002F005
:102D5000A7FF002002F0A4FF002002F0A1FF002046
:102D600002F09EFF002002F09BFF202002F098FF5F
:102D7000F32002F0A1FF742002F092FFB42002F0D1
:102D80009BFF002002F08CFF002002F089FF002052
:102D900002F086FFF72002F08FFF822002F080FF12
:102DA000B12002F089FF002002F07AFF132002F028
:102DB00077FF132002F074FFF22002F07DFF8020E5
:102DC00002F06EFF042002F06BFF402002F068FF6B
:102DD000282002F065FFC12002F06EFF172002F0EC
:102DE0005FFF882002F05CFF882002F059FF20205E
:102DF00002F056FFE02002F05FFF002002F050FFDB
:102E00000A2002F04DFF122002F04AFF102002F0CB
:102E100047FF0E2002F044FF202002F041FFCC20AB
:102E200002F03EFF072002F03BFF062002F038FFD1
:102E30000B2002F035FF0E2002F032FF0F2002F0CF
:102E40002FFF0D2002F02CFF152002F029FF10208B
:102E500002F026FF002002F023FFE12002F02CFF09
:102E6000002002F01DFF0B2002F01AFF132002F0D9
:102E700017FF0D2002F014FF0E2002F011FF1B209F
:102E800002F00EFF712002F00BFF062002F008FF97
:102E9000062002F005FF0A2002F002FF0F2002F0D8
:102EA000FFFE0E2002F0FCFE0F2002F0F9FE1520BE
:102EB00002F0F6FE0C2002F0F3FE002002F0F0FE1D
:102EC0002A2002F0F9FE002002F0EAFE002002F0C3
:102ED000E7FE012002F0E4FEDF2002F0E1FE2B20FD
:102EE00002F0EAFE002002F0DBFE002002F0D8FE35
:102EF000032002F0D5FE1F2002F0D2FE3A2002F09D
:102F0000DBFE552002F0CCFE362002F0D5FE00207C
:102F100002F0C6FE112002F0CFFE7820FFF7FCFA87
:102F2000292002F0C9FE1420FFF7F6FA2C2002F047
:102F3000C3FE10BD10B5ED2002F0BEFE012002F070
:102F4000AFFEFE2002F0ACFEEE2002F0B5FEDE2069
:102F500002F0A6FE212002F0A3FEF12002F0ACFE5A
:102F6000012002F09DFEDF2002F0A6FE102002F0FC
:102F700097FEC42002F0A0FE8F2002F091FEC62032
:102F800002F09AFE002002F08BFEE22002F088FEA2
:102F9000E22002F085FEE22002F082FEBF2002F075
:102FA0008BFEAA2002F07CFEB02002F085FE0D20F0
:102FB00002F076FE002002F073FE0D2002F070FE9B
:102FC000002002F06DFE112002F06AFE002002F0E7
:102FD00067FE192002F064FE002002F061FE21204D
:102FE00002F05EFE002002F05BFE2D2002F058FE93
:102FF000002002F055FE3D2002F052FE002002F0BB
:103000004FFE5D2002F04CFE002002F049FE5D20E4
:1030100002F046FE002002F043FEB12002F04CFE1A
:10302000802002F03DFE002002F03AFE8B2002F0EC
:1030300037FE002002F034FE962002F031FE002020
:1030400002F02EFEB22002F037FE002002F028FE31
:10305000002002F025FE022002F022FE002002F0F5
:103060001FFE032002F01CFE002002F019FEB32018
:1030700002F022FE002002F013FE002002F010FEFB
:10308000002002F00DFE002002F00AFE002002F0F7
:1030900007FE002002F004FE002002F001FE0020E6
:1030A00002F0FEFD002002F0FBFD002002F0F8FD22
:1030B000002002F0F5FD002002F0F2FD002002F0F9
:1030C000EFFD002002F0ECFD002002F0E9FD002001
:1030D00002F0E6FD002002F0E3FD002002F0E0FD3A
:1030E000002002F0DDFD002002F0DAFD002002F0F9
:1030F000D7FD002002F0D4FD002002F0D1FD002019
:1031000002F0CEFDB42002F0D7FD8B2002F0C8FD06
:10311000002002F0C5FD962002F0C2FD002002F062
:10312000BFFDA12002F0BCFD002002F0B9FDB520DA
:1031300002F0C2FD022002F0B3FD002002F0B0FD5B
:10314000032002F0ADFD002002F0AAFD042002F0F1
:10315000A7FD002002F0A4FDB62002F0ADFD002086
:1031600002F09EFD002002F09BFDB72002F0A4FDBE
:10317000002002F095FD002002F092FD3F2002F0B9
:103180008FFD002002F08CFD5E2002F089FD002002
:1031900002F086FD642002F083FD002002F080FD35
:1031A0008C2002F07DFD002002F07AFDAC2002F0C0
:1031B00077FD002002F074FDDC2002F071FD00209C
:1031C00002F06EFD702002F06BFD002002F068FD41
:1031D000902002F065FD002002F062FDEB2002F07D
:1031E0005FFD002002F05CFDDC2002F059FD0020B4
:1031F00002F056FDB82002F05FFD002002F050FD05
:10320000002002F04DFD002002F04AFD002002F0F7
:1032100047FD002002F044FD002002F041FD0020A7
:1032200002F03EFD002002F03BFDBA2002F044FD1A
:10323000242002F035FD002002F032FD002002F0D3
:103240002FFD002002F02CFDC12002F035FD2020D2
:1032500002F026FD002002F023FD542002F020FDA4
:10326000002002F01DFDFF2002F01AFD002002F0F8
:1032700017FDC22002F020FD0A2002F011FD0020FF
:1032800002F00EFD042002F00BFD002002F008FD0C
:10329000C32002F011FD3C2002F002FD002002F0EC
:1032A000FFFC3A2002F0FCFC002002F0F9FC39207F
:1032B00002F0F6FC002002F0F3FC372002F0F0FCF4
:1032C000002002F0EDFC3C2002F0EAFC002002F0BD
:1032D000E7FC362002F0E4FC002002F0E1FC3220A2
:1032E00002F0DEFC002002F0DBFC2F2002F0D8FC14
:1032F000002002F0D5FC2C2002F0D2FC002002F0CD
:10330000CFFC292002F0CCFC002002F0C9FC2620D2
:1033100002F0C6FC002002F0C3FC242002F0C0FC36
:10332000002002F0BDFC242002F0BAFC002002F0D4
:10333000B7FC232002F0B4FC002002F0B1FC3C20DA
:1033400002F0AEFC002002F0ABFC362002F0A8FC3C
:10335000002002F0A5FC322002F0A2FC002002F0C6
:103360009FFC2F2002F09CFC002002F099FC2C20F6
:1033700002F096FC002002F093FC292002F090FC61
:10338000002002F08DFC262002F08AFC002002F0D2
:1033900087FC242002F084FC002002F081FC242021
:1033A00002F07EFC002002F07BFC232002F078FC7F
:1033B000002002F075FCC42002F07EFC622002F0C6
:1033C0006FFC002002F06CFC052002F069FC00207C
:1033D00002F066FC842002F063FC002002F060FC36
:1033E000F02002F05DFC002002F05AFC182002F0F0
:1033F00057FC002002F054FCA42002F051FC0020F5
:1034000002F04EFC182002F04BFC002002F048FCB9
:10341000502002F045FC002002F042FC0C2002F09B
:103420003FFC002002F03CFC172002F039FC002099
:1034300002F036FC952002F033FC002002F030FC54
:10344000F32002F02DFC002002F02AFCE62002F01E
:1034500027FC002002F024FCC52002F02DFC3220C5
:1034600002F01EFC002002F01BFC442002F018FCBD
:10347000002002F015FC652002F012FC002002F092
:103480000FFC762002F00CFC002002F009FC8820E2
:1034900002F006FC002002F003FCC62002F00CFC47
:1034A000202002F0FDFB002002F0FAFB172002F0C2
:1034B000F7FB002002F0F4FB012002F0F1FB0020FA
:1034C00002F0EEFBC72002F0F7FB002002F0E8FB61
:1034D000002002F0E5FB002002F0E2FB002002F0F9
:1034E000DFFBC82002F0E8FB002002F0D9FB00203F
:1034F00002F0D6FB002002F0D3FB002002F0D0FB4C
:10350000C92002F0D9FB002002F0CAFB002002F023
:10351000C7FB002002F0C4FB002002F0C1FB00202A
:1035200002F0BEFB002002F0BBFB002002F0B8FB63
:10353000002002F0B5FB002002F0B2FB002002F0F8
:10354000AFFB002002F0ACFB002002F0A9FB002042
:1035500002F0A6FB002002F0A3FB002002F0A0FB7B
:10356000002002F09DFBE02002F0A6FB162002F0F6
:1035700097FB002002F094FB1C2002F091FB00203E
:1035800002F08EFB212002F08BFB002002F088FB72
:10359000362002F085FB002002F082FB462002F07C
:1035A0007FFB002002F07CFB522002F079FB002020
:1035B00002F076FB642002F073FB002002F070FB47
:1035C0007A2002F06DFB002002F06AFB8B2002F0F3
:1035D00067FB002002F064FB992002F061FB0020F1
:1035E00002F05EFBA82002F05BFB002002F058FB1B
:1035F000B92002F055FB002002F052FBC42002F07B
:103600004FFB002002F04CFBCA2002F049FB0020D7
:1036100002F046FBD22002F043FB002002F040FB08
:10362000D92002F03DFB002002F03AFBE02002F03E
:1036300037FB002002F034FBF32002F031FB0020C6
:1036400002F02EFBE12002F037FB162002F028FBEF
:10365000002002F025FB1C2002F022FB002002F0DB
:103660001FFB222002F01CFB002002F019FB362079
:1036700002F016FB002002F013FB452002F010FBC5
:10368000002002F00DFB522002F00AFB002002F0A5
:1036900007FB642002F004FB002002F001FB7A200B
:1036A00002F0FEFA002002F0FBFA8B2002F0F8FA9A
:1036B000002002F0F5FA992002F0F2FA002002F060
:1036C000EFFAA82002F0ECFA002002F0E9FAB920A3
:1036D00002F0E6FA002002F0E3FAC42002F0E0FA79
:1036E000002002F0DDFACA2002F0DAFA002002F02F
:1036F000D7FAD22002F0D4FA002002F0D1FAD82072
:1037000002F0CEFA002002F0CBFAE02002F0C8FA74
:10371000002002F0C5FAF32002F0C2FA002002F005
:10372000BFFAE22002F0C8FA052002F0B9FA002040
:1037300002F0B6FA0B2002F0B3FA002002F0B0FA61
:103740001B2002F0ADFA002002F0AAFA342002F0A9
:10375000A7FA002002F0A4FA442002F0A1FA002007
:1037600002F09EFA4F2002F09BFA002002F098FA35
:10377000612002F095FA002002F092FA792002F01E
:103780008FFA002002F08CFA882002F089FA0020DB
:1037900002F086FA972002F083FA002002F080FA05
:1037A000A62002F07DFA002002F07AFAB72002F09B
:1037B00077FA002002F074FAC22002F071FA0020B9
:1037C00002F06EFAC72002F06BFA002002F068FAED
:1037D000D12002F065FA002002F062FAD62002F051
:1037E0005FFA002002F05CFADD2002F059FA0020B6
:1037F00002F056FAF32002F053FA002002F050FAD9
:10380000E32002F059FA052002F04AFA002002F003
:1038100047FA0A2002F044FA002002F041FA1C2084
:1038200002F03EFA002002F03BFA332002F038FAB0
:10383000002002F035FA442002F032FA002002F0B3
:103840002FFA502002F02CFA002002F029FA622010
:1038500002F026FA002002F023FA782002F020FA83
:10386000002002F01DFA882002F01AFA002002F06F
:1038700017FA972002F014FA002002F011FAA6209D
:1038800002F00EFA002002F00BFAB72002F008FA5C
:10389000002002F005FAC22002F002FA002002F035
:1038A000FFF9C72002F0FCF9002002F0F9F9D1205D
:1038B00002F0F6F9002002F0F3F9D52002F0F0F959
:1038C000002002F0EDF9DD2002F0EAF9002002F01C
:1038D000E7F9F32002F0E4F9002002F0E1F9E42036
:1038E00002F0EAF9012002F0DBF9002002F0D8F939
:1038F000012002F0D5F9002002F0D2F9022002F0F6
:10390000CFF9002002F0CCF92A2002F0C9F90020FA
:1039100002F0C6F93C2002F0C3F9002002F0C0F921
:103920004B2002F0BDF9002002F0BAF95D2002F050
:10393000B7F9002002F0B4F9742002F0B1F90020C8
:1039400002F0AEF9842002F0ABF9002002F0A8F9F1
:10395000932002F0A5F9002002F0A2F9A22002F0C3
:103960009FF9002002F09CF9B32002F099F90020A1
:1039700002F096F9BE2002F093F9002002F090F9CF
:10398000C42002F08DF9002002F08AF9CD2002F067
:1039900087F9002002F084F9D32002F081F9002099
:1039A00002F07EF9DD2002F07BF9002002F078F9C8
:1039B000F32002F075F9002002F072F9E52002F020
:1039C0007BF9002002F06CF9002002F069F9002078
:1039D00002F066F9002002F063F9022002F060F9BB
:1039E000002002F05DF9292002F05AF9002002F0CF
:1039F00057F93C2002F054F9002002F051F94B2015
:103A000002F04EF9002002F04BF95D2002F048F977
:103A1000002002F045F9742002F042F9002002F083
:103A20003FF9842002F03CF9002002F039F993209C
:103A300002F036F9002002F033F9A22002F030F94A
:103A4000002002F02DF9B32002F02AF9002002F044
:103A500027F9BE2002F024F9002002F021F9C42049
:103A600002F01EF9002002F01BF9CD2002F018F937
:103A7000002002F015F9D32002F012F9002002F024
:103A80000FF9DC2002F00CF9002002F009F9F32014
:103A900002F006F9002002F003F9E62002F00CF92A
:103AA000112002F0FDF8002002F0FAF8342002F0B4
:103AB000F7F8002002F0F4F8562002F0F1F80020A8
:103AC00002F0EEF8762002F0EBF8002002F0E8F8C1
:103AD000772002F0E5F8002002F0E2F8662002F01C
:103AE000DFF8002002F0DCF8882002F0D9F800208E
:103AF00002F0D6F8992002F0D3F8002002F0D0F8B6
:103B0000BB2002F0CDF8002002F0CAF8992002F0A4
:103B1000C7F8002002F0C4F8662002F0C1F80020C7
:103B200002F0BEF8552002F0BBF8002002F0B8F811
:103B3000552002F0B5F8002002F0B2F8452002F05E
:103B4000AFF8002002F0ACF8432002F0A9F8002002
:103B500002F0A6F8442002F0A3F8002002F0A0F83A
:103B6000E72002F0A9F8322002F09AF8002002F0D3
:103B700097F8552002F094F8002002F091F8762092
:103B800002F08EF8002002F08BF8662002F088F830
:103B9000002002F085F8672002F082F8002002F091
:103BA0007FF8672002F07CF8002002F079F8872087
:103BB00002F076F8002002F073F8992002F070F815
:103BC000002002F06DF8BB2002F06AF8002002F03D
:103BD00067F8992002F064F8002002F061F877207D
:103BE00002F05EF8002002F05BF8442002F058F882
:103BF000002002F055F8562002F052F8002002F0A2
:103C00004FF8232002F04CF8002002F049F833204E
:103C100002F046F8002002F043F8452002F040F898
:103C2000002002F03DF8E82002F046F8002002F003
:103C300037F8002002F034F8992002F031F8002023
:103C400002F02EF8872002F02BF8002002F028F86E
:103C5000882002F025F8002002F022F8772002F0F8
:103C60001FF8002002F01CF8662002F019F800206E
:103C700002F016F8882002F013F8002002F010F885
:103C8000AA2002F00DF8002002F00AF8BB2002F092
:103C900007F8002002F004F8992002F001F8002053
:103CA00001F0FEFF662001F0FBFF002001F0F8FFAD
:103CB000552001F0F5FF002001F0F2FF552001F042
:103CC000EFFF002001F0ECFF442001F0E9FF0020AD
:103CD00001F0E6FF442001F0E3FF002001F0E0FFE7
:103CE000552001F0DDFF002001F0DAFFE92001F0AE
:103CF000E3FFAA2001F0D4FF002001F0D1FF002053
:103D000001F0CEFF002001F0CBFF002001F0D4FF36
:103D1000AA2001F0C5FFCF2001F0CEFF002001F066
:103D2000BFFF002001F0BCFF002001F0B9FF002020
:103D300001F0B6FF002001F0B3FF002001F0B0FF5A
:103D4000002001F0ADFF002001F0AAFF002001F0EB
:103D5000A7FF002001F0A4FF002001F0A1FF002038
:103D600001F09EFF002001F09BFF002001F098FF72
:103D7000002001F095FF002001F092FF002001F0EB
:103D80008FFFF02001F098FF002001F089FF502004
:103D900001F086FF002001F083FF002001F080FF8A
:103DA000002001F07DFFF32001F086FF002001F0EC
:103DB00077FFF92001F080FF062001F071FF10204D
:103DC00001F06EFF292001F06BFF002001F068FF79
:103DD0003A2001F071FF552001F062FF112001F03F
:103DE0006BFF6420FEF798FB292001F065FF35206A
:103DF00001F062FF002001F053FF512001F05CFF51
:103E0000FF2001F04DFF532001F056FF2C2001F060
:103E100047FF552001F050FF822001F041FF2C2088
:103E200001F04AFF10BD10B555214FF4704001F06C
:103E300059FFAA214FF2010001F054FF52214FF225
:103E4000020001F04FFF08214FF2030001F04AFF8A
:103E500001214FF2040001F045FF0D214FF43040E5
:103E600001F040FF0D214BF2010001F03BFF0D215D
:103E70004BF2020001F036FF34214FF4364001F0DE
:103E800031FF34214BF2016001F02CFF34214BF261
:103E9000026001F027FF0D214FF4314001F022FFB5
:103EA0000D214BF2011001F01DFF0D214BF202100C
:103EB00001F018FF34214FF4374001F013FF342193
:103EC0004BF2017001F00EFF34214BF2027001F051
:103ED00009FF00214FF4324001F004FF00214BF2B2
:103EE000012001F0FFFE00214BF2022001F0FAFE5A
:103EF00024214FF4384001F0F5FE24214BF6010057
:103F000001F0F0FE24214BF6020001F0EBFE01214E
:103F10004FF43F4001F0E6FE0F214FF4334001F033
:103F2000E1FE0F214BF2013001F0DCFE0F214BF2DC
:103F3000023001F0D7FE34214FF4394001F0D2FEB7
:103F400034214BF6011001F0CDFE34214BF6021066
:103F500001F0C8FE08214FF4354001F0C3FE0821EE
:103F60004BF2015001F0BEFE08214BF2025001F06D
:103F7000B9FE03214FF4424001F0B4FE24214FF476
:103F80003A4001F0AFFE24214BF6012001F0AAFED9
:103F900024214BF6022001F0A5FE00214FF43C4005
:103FA00001F0A0FE78214BF6014001F09BFE0021BC
:103FB0004BF6024001F096FE00214FF43D4001F027
:103FC00091FE78214BF6015001F08CFE00214BF65A
:103FD000025001F087FE00214FF43E4001F082FEC6
:103FE00064214BF6016001F07DFE00214FF4514049
:103FF00001F078FE33214DF2011001F073FE002133
:104000004DF2021001F06EFE34214DF2031001F06A
:1040100069FE00214DF2041001F064FE3A214DF2D8
:10402000051001F05FFE00214DF2061001F05AFE6E
:104030004A214DF2071001F055FE00214DF2081003
:1040400001F050FE5C214DF2091001F04BFE002101
:104050004DF20A1001F046FE81214DF20B1001F0E5
:1040600041FE00214DF20C1001F03CFEA6214DF264
:104070000D1001F037FE00214DF20E1001F032FE5E
:10408000E5214DF20F1001F02DFE01214DF210102F
:1040900001F028FE13214DF2111001F023FE012141
:1040A0004DF2121001F01EFE54214DF2131001F0DA
:1040B00019FE01214DF2141001F014FE82214DF27F
:1040C000151001F00FFE01214DF2161001F00AFE4D
:1040D000CA214DF2171001F005FE02214DF2181011
:1040E00001F000FE00214DF2191001F0FBFD02214C
:1040F0004DF21A1001F0F6FD01214DF21B1001F0F6
:10410000F1FD02214DF21C1001F0ECFD34214DF2C5
:104110001D1001F0E7FD02214DF21E1001F0E2FD3D
:1041200067214DF21F1001F0DDFD02214DF220103C
:1041300001F0D8FD84214DF2211001F0D3FD0221C0
:104140004DF2221001F0CEFDA4214DF2231001F01A
:10415000C9FD02214DF2241001F0C4FDB7214DF23A
:10416000251001F0BFFD02214DF2261001F0BAFD2D
:10417000CF214DF2271001F0B5FD02214DF228109C
:1041800001F0B0FDDE214DF2291001F0ABFD02215E
:104190004DF22A1001F0A6FDF2214DF22B1001F094
:1041A000A1FD02214DF22C1001F09CFDFE214DF2EB
:1041B0002D1001F097FD03214DF22E1001F092FD1C
:1041C00010214DF22F1001F08DFD03214DF2301022
:1041D00001F088FD33214DF2311001F083FD032100
:1041E0004DF2321001F07EFD6D214DF2331001F0E1
:1041F00079FD00214FF4524001F074FD33214DF25E
:10420000012001F06FFD00214DF2022001F06AFD56
:1042100034214DF2032001F065FD00214DF2042010
:1042200001F060FD3A214DF2052001F05BFD002117
:104230004DF2062001F056FD4A214DF2072001F013
:1042400051FD00214DF2082001F04CFD5C214DF2A2
:10425000092001F047FD00214DF20A2001F042FD46
:1042600081214DF20B2001F03DFD00214DF20C208B
:1042700001F038FDA6214DF20D2001F033FD0021A3
:104280004DF20E2001F02EFDE5214DF20F2001F040
:1042900029FD01214DF2102001F024FD13214DF2E2
:1042A000112001F01FFD01214DF2122001F01AFD35
:1042B00054214DF2132001F015FD01214DF214207F
:1042C00001F010FD82214DF2152001F00BFD0121BE
:1042D0004DF2162001F006FDCA214DF2172001F023
:1042E00001FD02214DF2182001F0FCFC00214DF2ED
:1042F000192001F0F7FC02214DF21A2001F0F2FC26
:1043000001214DF21B2001F0EDFC02214DF21C2099
:1043100001F0E8FC34214DF21D2001F0E3FC022104
:104320004DF21E2001F0DEFC67214DF21F2001F04E
:10433000D9FC02214DF2202001F0D4FC84214DF261
:10434000212001F0CFFC02214DF2222001F0CAFC15
:10435000A4214DF2232001F0C5FC02214DF22420BE
:1043600001F0C0FCB7214DF2252001F0BBFC022179
:104370004DF2262001F0B6FCCF214DF2272001F0AE
:10438000B1FC02214DF2282001F0ACFCDE214DF2FF
:10439000292001F0A7FC02214DF22A2001F0A2FC05
:1043A000F2214DF22B2001F09DFC02214DF22C2038
:1043B00001F098FCFE214DF22D2001F093FC032129
:1043C0004DF22E2001F08EFC10214DF22F2001F035
:1043D00089FC03214DF2302001F084FC33214DF2A1
:1043E000312001F07FFC03214DF2322001F07AFCF4
:1043F0006D214DF2332001F075FC00214FF4534044
:1044000001F070FC33214DF2013001F06BFC002112
:104410004DF2023001F066FC34214DF2033001F020
:1044200061FC00214DF2043001F05CFC3A214DF2B8
:10443000053001F057FC00214DF2063001F052FC2E
:104440004A214DF2073001F04DFC00214DF20830B9
:1044500001F048FC5C214DF2093001F043FC0021E1
:104460004DF20A3001F03EFC81214DF20B3001F09B
:1044700039FC00214DF20C3001F034FCA6214DF244
:104480000D3001F02FFC00214DF20E3001F02AFC1E
:10449000E5214DF20F3001F025FC01214DF21030E5
:1044A00001F020FC13214DF2113001F01BFC012121
:1044B0004DF2123001F016FC54214DF2133001F090
:1044C00011FC01214DF2143001F00CFC82214DF25F
:1044D000153001F007FC01214DF2163001F002FC0D
:1044E000CA214DF2173001F0FDFB02214DF21830C8
:1044F00001F0F8FB00214DF2193001F0F3FB02212D
:104500004DF21A3001F0EEFB01214DF21B3001F0AB
:10451000E9FB02214DF21C3001F0E4FB34214DF2A5
:104520001D3001F0DFFB02214DF21E3001F0DAFBFD
:1045300067214DF21F3001F0D5FB02214DF22030F2
:1045400001F0D0FB84214DF2213001F0CBFB0221A0
:104550004DF2223001F0C6FBA4214DF2233001F0D0
:10456000C1FB02214DF2243001F0BCFBB7214DF21A
:10457000253001F0B7FB02214DF2263001F0B2FBED
:10458000CF214DF2273001F0ADFB02214DF2283052
:1045900001F0A8FBDE214DF2293001F0A3FB02213E
:1045A0004DF22A3001F09EFBF2214DF22B3001F04A
:1045B00099FB02214DF22C3001F094FBFE214DF2CB
:1045C0002D3001F08FFB03214DF22E3001F08AFBDC
:1045D00010214DF22F3001F085FB03214DF23030D8
:1045E00001F080FB33214DF2313001F07BFB0321E0
:1045F0004DF2323001F076FB6D214DF2333001F097
:1046000071FB00214FF4544001F06CFB33214DF25B
:10461000014001F067FB00214DF2024001F062FB16
:1046200034214DF2034001F05DFB00214DF20440C6
:1046300001F058FB3A214DF2054001F053FB0021F7
:104640004DF2064001F04EFB4A214DF2074001F0C9
:1046500049FB00214DF2084001F044FB5C214DF282
:10466000094001F03FFB00214DF20A4001F03AFB06
:1046700081214DF20B4001F035FB00214DF20C4041
:1046800001F030FBA6214DF20D4001F02BFB002183
:104690004DF20E4001F026FBE5214DF20F4001F0F6
:1046A00021FB01214DF2104001F01CFB13214DF2C2
:1046B000114001F017FB01214DF2124001F012FBF5
:1046C00054214DF2134001F00DFB01214DF2144035
:1046D00001F008FB82214DF2154001F003FB01219E
:1046E0004DF2164001F0FEFACA214DF2174001F0DA
:1046F000F9FA02214DF2184001F0F4FA00214DF2CE
:10470000194001F0EFFA02214DF21A4001F0EAFAE5
:1047100001214DF21B4001F0E5FA02214DF21C404F
:1047200001F0E0FA34214DF21D4001F0DBFA0221E4
:104730004DF21E4001F0D6FA67214DF21F4001F004
:10474000D1FA02214DF2204001F0CCFA84214DF241
:10475000214001F0C7FA02214DF2224001F0C2FAD5
:10476000A4214DF2234001F0BDFA02214DF2244074
:1047700001F0B8FAB7214DF2254001F0B3FA022159
:104780004DF2264001F0AEFACF214DF2274001F064
:10479000A9FA02214DF2284001F0A4FADE214DF2DF
:1047A000294001F09FFA02214DF22A4001F09AFAC5
:1047B000F2214DF22B4001F095FA02214DF22C40EE
:1047C00001F090FAFE214DF22D4001F08BFA032109
:1047D0004DF22E4001F086FA10214DF22F4001F0EB
:1047E00081FA03214DF2304001F07CFA33214DF281
:1047F000314001F077FA03214DF2324001F072FAB4
:104800006D214DF2334001F06DFA00214FF4554017
:1048100001F068FA33214DF2015001F063FA0021F2
:104820004DF2025001F05EFA34214DF2035001F0D6
:1048300059FA00214DF2045001F054FA3A214DF298
:10484000055001F04FFA00214DF2065001F04AFAEE
:104850004A214DF2075001F045FA00214DF208506F
:1048600001F040FA5C214DF2095001F03BFA0021C1
:104870004DF20A5001F036FA81214DF20B5001F051
:1048800031FA00214DF20C5001F02CFAA6214DF224
:104890000D5001F027FA00214DF20E5001F022FADE
:1048A000E5214DF20F5001F01DFA01214DF210509B
:1048B00001F018FA13214DF2115001F013FA012101
:1048C0004DF2125001F00EFA54214DF2135001F046
:1048D00009FA01214DF2145001F004FA82214DF23F
:1048E000155001F0FFF901214DF2165001F0FAF9CF
:1048F000CA214DF2175001F0F5F902214DF218507E
:1049000001F0F0F900214DF2195001F0EBF902210C
:104910004DF21A5001F0E6F901214DF21B5001F061
:10492000E1F902214DF21C5001F0DCF934214DF285
:104930001D5001F0D7F902214DF21E5001F0D2F9BD
:1049400067214DF21F5001F0CDF902214DF22050A8
:1049500001F0C8F984214DF2215001F0C3F9022180
:104960004DF2225001F0BEF9A4214DF2235001F086
:10497000B9F902214DF2245001F0B4F9B7214DF2FA
:10498000255001F0AFF902214DF2265001F0AAF9AD
:10499000CF214DF2275001F0A5F902214DF2285008
:1049A00001F0A0F9DE214DF2295001F09BF902211E
:1049B0004DF22A5001F096F9F2214DF22B5001F000
:1049C00091F902214DF22C5001F08CF9FE214DF2AB
:1049D0002D5001F087F903214DF22E5001F082F99C
:1049E00010214DF22F5001F07DF903214DF230508E
:1049F00001F078F933214DF2315001F073F90321C0
:104A00004DF2325001F06EF96D214DF2335001F04C
:104A100069F900214FF4564001F064F933214DF259
:104A2000016001F05FF900214DF2026001F05AF9D6
:104A300034214DF2036001F055F900214DF204607C
:104A400001F050F93A214DF2056001F04BF90021D7
:104A50004DF2066001F046F94A214DF2076001F07F
:104A600041F900214DF2086001F03CF95C214DF262
:104A7000096001F037F900214DF20A6001F032F9C6
:104A800081214DF20B6001F02DF900214DF20C60F7
:104A900001F028F9A6214DF20D6001F023F9002163
:104AA0004DF20E6001F01EF9E5214DF20F6001F0AC
:104AB00019F901214DF2106001F014F913214DF2A2
:104AC000116001F00FF901214DF2126001F00AF9B5
:104AD00054214DF2136001F005F901214DF21460EB
:104AE00001F000F982214DF2156001F0FBF801217F
:104AF0004DF2166001F0F6F8CA214DF2176001F090
:104B0000F1F802214DF2186001F0ECF800214DF2AD
:104B1000196001F0E7F802214DF21A6001F0E2F8A5
:104B200001214DF21B6001F0DDF802214DF21C6005
:104B300001F0D8F834214DF21D6001F0D3F80221C4
:104B40004DF21E6001F0CEF867214DF21F6001F0BA
:104B5000C9F802214DF2206001F0C4F884214DF221
:104B6000216001F0BFF802214DF2226001F0BAF895
:104B7000A4214DF2236001F0B5F802214DF224602A
:104B800001F0B0F8B7214DF2256001F0ABF8022139
:104B90004DF2266001F0A6F8CF214DF2276001F01A
:104BA000A1F802214DF2286001F09CF8DE214DF2BF
:104BB000296001F097F802214DF22A6001F092F885
:104BC000F2214DF22B6001F08DF802214DF22C60A4
:104BD00001F088F8FE214DF22D6001F083F80321E9
:104BE0004DF22E6001F07EF810214DF22F6001F0A1
:104BF00079F803214DF2306001F074F833214DF261
:104C0000316001F06FF803214DF2326001F06AF873
:104C10006D214DF2336001F065F855214FF470407D
:104C200001F060F8AA214FF2010001F05BF8522177
:104C30004FF2020001F056F808214FF2030001F094
:104C400051F800214FF2040001F04CF8CC214FF450
:104C5000314001F047F800214BF2011001F042F819
:104C600005214FF4364001F03DF870214FF43740F4
:104C700001F038F870214BF2017001F033F8012196
:104C80004FF4384001F02EF803214BF6010001F0FB
:104C900029F803214BF6020001F024F803214BF61A
:104CA000030001F01FF802214FF43C4001F01AF814
:104CB00000214BF6014001F015F800214BF60240AF
:104CC00001F010F8D0214FF4494001F00BF8022117
:104CD0004CF6011001F006F850214CF6021001F0DC
:104CE00001F850214CF6031000F0FCFF50214CF667
:104CF000041000F0F7FF00214FF4545000F0F2FFD1
:104D000055214FF4685000F0EDFF4FF4885000F04B
:104D1000D3FF7820FDF70CFC4FF4245000F0CCFFBB
:104D200010BD10B5E22000F0C7FF1D2000F0B8FF55
:104D3000022000F0B5FF042000F0B2FF6420FDF770
:104D4000F7FBE02000F0B8FF012000F0A9FF0A20E7
:104D5000FDF7E2FBE02000F0AFFF032000F0A0FF32
:104D60000C20FDF7D9FB012000F0A6FF0A20FDF77B
:104D7000D3FBE62000F0A0FF2F2000F091FFFF20E2
:104D800000F08EFFFF2000F08BFFB02000F094FFBA
:104D9000202000F085FF002000F082FF032000F0BB
:104DA0007FFF40F21F3000F07BFF012000F078FF12
:104DB00040F2DF1000F074FF002000F071FFB4201B
:104DC00000F07AFF042000F06BFF40F21F4000F07B
:104DD00067FF002000F064FF2E2000F061FF00203C
:104DE00000F05EFF002000F05BFF002000F058FFA5
:104DF000002000F055FFB62000F05EFF022000F01A
:104E00004FFF4FF4037000F04BFF002000F048FF0D
:104E1000172000F045FF152000F042FF002000F0B1
:104E20003FFF002000F03CFFF02000F045FF032092
:104E300000F036FF292000F03FFFD02000F03CFFBB
:104E4000002000F02DFFBE2000F036FF052000F00E
:104E500027FFFE2000F024FF012000F021FF0020AA
:104E600000F01EFF002000F01BFF002000F018FFE4
:104E7000B82000F021FF032000F012FF012000F015
:104E80000FFFBA2000F018FF012000F009FF10BD4D
:104E900010B5112000F010FF7820FDF73DFB362003
:104EA00000F00AFF002000F0FBFE3A2000F004FFB3
:104EB000052000F0F5FEB22000F0FEFE0C2000F010
:104EC000EFFE0C2000F0ECFE002000F0E9FE3320A5
:104ED00000F0E6FE332000F0E3FEB72000F0ECFE29
:104EE000352000F0DDFEBB2000F0E6FE322000F0B1
:104EF000D7FEC02000F0E0FE0C2000F0D1FEC22062
:104F000000F0DAFE012000F0CBFEC32000F0D4FE5A
:104F1000102000F0C5FEC42000F0CEFE202000F0DE
:104F2000BFFEC62000F0C8FE0F2000F0B9FED02062
:104F300000F0C2FEA42000F0B3FEA12000F0B0FEFD
:104F4000E02000F0B9FED02000F0AAFE002000F022
:104F5000A7FE022000F0A4FE072000F0A1FE0A2018
:104F600000F09EFE282000F09BFE322000F098FE0C
:104F7000442000F095FE422000F092FE062000F052
:104F80008FFE0E2000F08CFE122000F089FE14200F
:104F900000F086FE172000F083FEE12000F08CFE7A
:104FA000D02000F07DFE002000F07AFE022000F00C
:104FB00077FE072000F074FE0A2000F071FE282022
:104FC00000F06EFE312000F06BFE542000F068FE11
:104FD000472000F065FE0E2000F062FE1C2000F06D
:104FE0005FFE172000F05CFE1B2000F059FE1E2023
:104FF00000F056FE2A2000F05FFE002000F050FE78
:10500000002000F04DFE002000F04AFEEF2000F0EE
:1050100047FE2B2000F050FE002000F041FE002053
:1050200000F03EFE012000F03BFE3F2000F038FE85
:10503000292000F041FE10BD10B5112000F03CFE0B
:105040007820FDF769FA362000F036FE482000F09F
:1050500027FE3A2000F030FE552000F021FEF0201F
:1050600000F02AFEC32000F01BFEF02000F024FE1A
:10507000962000F015FEB42000F01EFE012000F086
:105080000FFEB62000F018FE0A2000F009FEA22054
:1050900000F006FEB72000F00FFEC62000F000FE74
:1050A000B92000F009FE022000F0FAFDE02000F037
:1050B000F7FDC02000F000FE802000F0F1FD16207A
:1050C00000F0EEFDC12000F0F7FD192000F0E8FD32
:1050D000C22000F0F1FDA72000F0E2FDC52000F0A5
:1050E000EBFD162000F0DCFDE82000F0E5FD40209F
:1050F00000F0D6FD8A2000F0D3FD002000F0D0FDA6
:10510000002000F0CDFD292000F0CAFD192000F09C
:10511000C7FDA52000F0C4FD332000F0C1FDE02054
:1051200000F0CAFDF02000F0BBFD072000F0B8FD44
:105130000D2000F0B5FD042000F0B2FD052000F0C8
:10514000AFFD142000F0ACFD362000F0A9FD542086
:1051500000F0A6FD4C2000F0A3FD382000F0A0FDDB
:10516000132000F09DFD142000F09AFD2E2000F089
:1051700097FD342000F094FDE12000F09DFDF0202B
:1051800000F08EFD102000F08BFD142000F088FD53
:105190000E2000F085FD0C2000F082FD082000F0BC
:1051A0007FFD352000F07CFD442000F079FD4C208F
:1051B00000F076FD262000F073FD102000F070FD59
:1051C000122000F06DFD2C2000F06AFD322000F06E
:1051D00067FDF02000F070FD3C2000F061FDF02044
:1051E00000F06AFD692000F05BFD7820FDF794F97E
:1051F000212000F061FD292000F05EFD10BD0000BF
:1052000000B595B000BF00BF00200190F8480068CD
:1052100040F04000F64908600846006800F0400091
:10522000019000BF00BF00BF00BF00BF0020019081
:105230000846006840F0080008600846006800F072
:105240000800019000BF00BF00BF00BF00BF0020EA
:1052500001900846006840F00800086008460068B1
:1052600000F00800019000BF00BF00BF00BF00BFFA
:10527000002001900846006840F0400008600846A1
:10528000006800F04000019000BF00BF00BF00BFF9
:1052900000BF002001900846006840F0020008604E
:1052A0000846006800F00200019000BF00BF00BF88
:1052B0008814109002201190012012900220139067
:1052C0000C20149010A9CB48FBF790FC20201090E4
:1052D00010A9C948FBF78AFC1020109010A9C648F5
:1052E000FBF784FC4FF48050109010A9C348FBF7E3
:1052F0007DFC4FF4004010900120119010A9C0488F
:10530000FBF774FC4FF02040BE490860BE4848607F
:10531000062088600021BB48C16010214161002146
:105320008161C16141624FF4805181620021C1629B
:105330004FF4804101630021416381630F20099094
:1053400000200A903C200B9000200F900920029032
:1053500000200390092004900020089002AA09A9C7
:10536000A848FCF79DF93220FDF7D6F8D32000F0CD
:10537000A3FC00F0D5F9A549888000F0D1F9A34934
:10538000888000F0CDF9A1498880084680884FF6D2
:10539000FF7101EA00209D49888000F0C1F99B4916
:1053A00089880843994988800846808849F24131B4
:1053B00088427CD0042000F07FFC00F0B1F99349D2
:1053C000888000F0ADF99149888000F0A9F98F49F3
:1053D0008880084680884FF6FF7101EA00208B49DB
:1053E000888000F09DF98949898808438749888029
:1053F0000846808848F25251884203D147F28970AA
:10540000824988808148808847F289718842D0D05B
:10541000D42000F051FC00F083F97C49888000F032
:105420007FF97A49888000F07BF9784988800846BE
:1054300080884FF6FF7101EA00207449888000F0EF
:105440006FF97249898808437049888008468088C6
:1054500045F210318842ACD0D32000F02DFC00F092
:105460005FF96A49888000F05BF96849888000F03C
:1054700057F966498880084680884FF6FF7101EA2F
:1054800000206249888000F04BF960498988084310
:105490005E4988800846808847F29671884288D0A5
:1054A00055214FF4704000F01DFCAA2100E07EE081
:1054B0004FF2010000F016FC52214FF2020000F002
:1054C00011FC08214FF2030000F00CFC01214FF207
:1054D000040000F007FC4FF4454000F0EDFB00F045
:1054E0001FF94A498880084680884FF6FF7101EA13
:1054F0000020464988804CF2015000F0DDFB00F0AE
:105500000FF9424989880843404988800520FDF702
:1055100003F83E48808845F21051884247D0D32096
:1055200000F0CAFB00F0FCF83849888000F0F8F879
:105530003649888000F0F4F834498880084680882D
:105540004FF6FF7101EA00203049888000F0E8F84A
:105550002E49898808432D4988800846808849F665
:105560000601884223D0A12000F0A6FB00F0D8F865
:105570002649888000F0D4F824498880084680882D
:105580004FF6FF7101EA00202049888000F0C8F83A
:105590001E49898808431D4988800846808845F24D
:1055A0006171884203D141F6631018498880174819
:1055B000818817A0FAF746FF1448808847F289715E
:1055C000884202D1FFF764FC4EE01048808849F21F
:1055D0004131884202D1FDF7F7F945E00B48808858
:1055E00045F21031884219D1FDF7A4FC3CE00000DF
:1055F0003038024000180240000C02400014024003
:1056000000040240F8030020040100A04804002028
:105610004C43442049443A25780D0A003A48808892
:1056200047F29671884202D1FFF706FD1CE036482A
:10563000808845F21051884202D1FEF7F4FB13E056
:105640003148808849F60601884202D1FDF7D2FA36
:105650000AE02D48808841F66311884204D1FFF7A3
:1056600060FB642000F0ECFA2748808847F28971DB
:1056700088420BD02448808849F24131884205D0C5
:105680002148808841F6631188420AD103200290A4
:1056900004901E490B6B8A68486802A9FBF7C8F999
:1056A00021E01948808845F21031884211D016480F
:1056B000808847F2967188420BD01348808845F263
:1056C0001051884205D01048808849F6060188426A
:1056D00009D10220029004900C490B6B8A6848683B
:1056E00002A9FBF7A5F90020FDF7A8F800BF0122E9
:1056F000D1030748FBF786FB00BF4FF6FF70FDF7AD
:1057000083F815B000BD000048040020F803002015
:105710000004024000BF011EA0F10100FBD1704750
:1057200008B50220FFF7F6FF024800880090BDF898
:10573000000008BD8000006CF0B50546002400277D
:105740008B488079012805D18948808841F663110A
:10575000884208D186488079F0B98548808841F62A
:105760006311884218D1082D15D2DFE805F0040630
:10577000080A0C0E101206250DE007250BE0042583
:1057800009E0052507E0012505E0002503E00325E4
:1057900001E0022500BF00BF082D1CD2DFE805F0A4
:1057A0000406090C0F12151800BF14E044F0800421
:1057B00011E044F040040EE044F0C0040BE044F07B
:1057C000200408E044F0600405E044F0A00402E096
:1057D00044F0E00400BF00BF36276548808845F2EA
:1057E0001051884200D13F026148808849F241311E
:1057F00088420BD05E48808847F28971884205D084
:105800005B48808847F29671884201D144F00804D1
:105810002146384600F066FA5548808841F6631103
:1058200088421DD004F0200068B1514800885049DA
:105830004988884214DA4E48068840884C490880D6
:10584000084646800CE04A48008849494988884211
:1058500006DD474806884088454908800846468056
:105860004348808845F21051884252D140494889C6
:1058700000F022FA002000F013FA3D494989491C42
:1058800088B200F019FA002000F00AFA3849498974
:10589000891C88B200F010FA35490988491EC1F305
:1058A0000F2000F0FDF932494989C91C88B200F087
:1058B00003FA2F490978491EC8B200F0F1F92C49C2
:1058C000888900F0F9F9002000F0EAF9284989896F
:1058D000491C88B200F0F0F9002000F0E1F92449F9
:1058E0008989891C88B200F0E7F921494988491E55
:1058F000C1F30F2000F0D4F91D498989C91C88B271
:1059000000F0DAF91A498978491EC8B200F0C8F9DE
:105910002DE01749488900F0CFF9002000F0C0F9C8
:10592000002000F0BDF912490988491EC1F30F207B
:1059300000F0B6F90E490978491EC8B200F0B0F976
:105940000B49888900F0B8F9002000F0A9F900207F
:1059500000F0A6F906494988491EC1F30F2000F05E
:105960009FF903498978491EC8B200F099F9F0BD42
:105970004804002010B502460C464548808841F690
:105980006311884247D142488079A8B940480088CD
:10599000401E801A82B23E49488900F08DF90020ED
:1059A00000F07EF9002000F07BF9101200F078F989
:1059B000D0B200F075F916E03549488900F07CF95D
:1059C000101200F06DF9D0B200F06AF93049098880
:1059D000491EC1F30F2000F063F92D490978491ED3
:1059E000C8B200F05DF92A49888900F065F92012F3
:1059F00000F056F9E0B200F053F925494988491EF4
:105A0000C1F30F2000F04CF921498978491EC8B232
:105A100000F046F93AE01E48808845F2105188426D
:105A200020D11B49488900F047F9101200F038F9DD
:105A300017494989491C88B200F03EF9D0B200F0FC
:105A40002FF91349888900F037F9201200F028F95E
:105A50000F498989491C88B200F02EF9E0B200F0A4
:105A60001FF913E00A49488900F026F9101200F0E6
:105A700017F9D0B200F014F90549888900F01CF933
:105A8000201200F00DF9E0B200F00AF910BD00009C
:105A9000480400202DE9FC4F80460E4615461C4662
:105AA000B3460020019000902046E31704EB5373A7
:105AB000DB1021464FEAE47C04EB5C7C4FEAEC0C03
:105AC000A4EBCC0CBCF1000F02D04FF0010C01E0B4
:105AD0004FF0000C6344224604EBD27C4FEA6C0C7E
