:020000040800F2
:1000000088080020290200084B400008B7130008A8
:1000100049400008C503000805480008000000002A
:100020000000000000000000000000004F40000839
:10003000C7030008000000004D400008E54000082C
:10004000430200084302000843020008430200087C
:10005000430200084302000843020008430200086C
:10006000430200084302000843020008430200085C
:10007000430200084302000843020008430200084C
:10008000430200084302000843020008430200083C
:10009000430200084302000843020008430200082C
:1000A000430200084302000843020008430200081C
:1000B000430200088541000843020008430200088B
:1000C00043020008430200084302000843020008FC
:1000D00043020008D9470008430200084302000811
:1000E00043020008430200084302000843020008DC
:1000F00043020008430200084302000843020008CC
:1001000043020008430200084302000843020008BB
:1001100043020008430200084302000843020008AB
:10012000430200084302000843020008430200089B
:10013000430200084302000843020008430200088B
:10014000430200084302000843020008430200087B
:10015000430200084302000843020008430200086B
:10016000430200084302000843020008430200085B
:100170004302000843020008430200080000000098
:10018000430200084302000800F002F800F03CF8C7
:100190000AA090E8000C82448344AAF10107DA45E2
:1001A00001D100F031F8AFF2090EBAE80F0013F0F8
:1001B000010F18BFFB1A43F0010318470C9200000F
:1001C0002C920000103A24BF78C878C1FAD85207A0
:1001D00024BF30C830C144BF04680C6070470000C1
:1001E0000023002400250026103A28BF78C1FBD840
:1001F000520728BF30C148BF0B6070471FB504F0DD
:1002000031FD1FBD10B510BD00F0AAF81146FFF773
:10021000F5FF04F03BFB00F0C8F803B4FFF7F2FF72
:1002200003BC04F000FB0000094880470948004770
:10023000FEE7FEE7FEE7FEE7FEE7FEE7FEE7FEE796
:10024000FEE7FEE704480549054A064B70470000F3
:10025000E940000889010008880200208808002081
:100260008804002088040020704753EA020C00F044
:1002700069802DE9F04B4FF00006002B1FBFB3FA49
:1002800083F503FA05F424FA05F65E4012BF16431F
:10029000B2FA82F502FA05F4C5F120051EBF22FA72
:1002A00005FC44EA0C04203556EA044C4FEA144499
:1002B00018BF641C4FF000084FF00009904271EB2A
:1002C000030C39D3002919BFB1FA81F701FA07F6F7
:1002D000B0FA80F700FA07F6C7F120071EBF20FA30
:1002E00007FC46EA0C062037B6FBF4FCA7EB050733
:1002F000103F07F01F0BCBF120060CFA0BFB2CFA7A
:1003000006F644BFB3460026202FA4BF5E464FF03A
:10031000000B5BEA060C08BF4FF0010B19EB0B0951
:10032000ABFB027C48EB0608C01B06FB02CC0BFBB8
:1003300003CC71EB0C01C1E70B460246414648462F
:10034000BDE8F08B13B54FF000004FF00001AFF3A4
:100350000080BDE81C407047704770477047704789
:10036000754600F02BF8AE4605006946534620F06E
:100370000700854618B020B5FFF764FFBDE82040B0
:100380004FF000064FF000074FF000084FF0000B51
:1003900021F00701AC46ACE8C009ACE8C009ACE804
:1003A000C009ACE8C0098D46704710B50446AFF3EC
:1003B00000802046BDE81040FFF72FBF004870477F
:1003C00024020020FEE7704770B5B3F5804F05D0DA
:1003D0006FF0704140F82210002070BD50F82230BC
:1003E000084C2340D1E9004544EA05148D688E8904
:1003F0002D0245EA064589692C430C431C4340F80D
:100400002240E9E70000F0CFF0B50C6850F8245026
:10041000114A1540D1E90123D1E903671A433E434C
:1004200032434E6932438E693243CE6932430E6A9B
:1004300032434E6A32438E6A3243CE6A3243CE6BC7
:10044000096B32430A432A43082B01D142F0400290
:1004500040F824200020F0BD8000F0FF30B500EB14
:1004600082004268D1E9003443EA04138C688D8924
:10047000240244EA054423430C8A084D02F040421A
:1004800005EB045423430C7D6D0105EB046489697D
:1004900023430B4313434360002030BD0000F0FFB3
:1004A00090F83510022903D0802141650120704762
:1004B000052180F835100068016821F00101016014
:1004C000002070472DE9F84FDFF88C91002209F1E8
:1004D000040A0AF1040B4FF00F080BF1040E012679
:1004E0000B6896403340B34271D14C68022C01D066
:1004F000122C11D1D40800EB84073D6A5407E40E96
:1005000008FA04FC25EA0C05D1F810C00CFA04FC2A
:100510004CEA050CC7F820C007685400032591F881
:1005200004C0A5400CF0030CAF430CFA04FC4CEAE9
:10053000070CC0F800C04F68012F05D0022F03D070
:10054000112F01D0122F11D18768D1F80CC0AF4301
:100550000CFA04FC4CEA070CC0F808C04768B74323
:100560000E79C6F3001696403E434660C668AE4319
:100570008D68A5403543C5604C68E40065D5374CAF
:10058000256845F480452560246822F0030504F4BD
:1005900080440094324C2E19D6F808789407250F21
:1005A00008FA05F4A7432F4CA04201D1002424E00F
:1005B0002D4CA04201D101241FE02C4CA04201D1BE
:1005C00002241AE02A4CA04202D1032415E03CE0A8
:1005D000284CA04201D104240FE0274CA04201D1B5
:1005E00005240AE0254CA04201D1062405E0244C54
:1005F000A04201D1072400E00824AC403C43C6F8E7
:100600000848D9F800404D464E689C43F60300D593
:100610001C432C60DAF8004055464E689C43B603F4
:1006200000D51C432C60DBF800405D464E689C43BF
:10063000F60200D51C432C60DEF8004075464E687B
:100640009C43B60200D51C432C60521C102AFFF4B8
:1006500046AFBDE8F88F0000003C0140443802403E
:100660000030014000000240000402400008024047
:10067000000C02400010024000140240001802402A
:10068000001C02400AB1816170470904FBE70000C9
:1006900001480068000C7047002004E001488068B1
:1006A000704700000400002002488168027811446D
:1006B0008160704704000020094810B5016841F4CA
:1006C00000710160016841F480610160052000F063
:1006D00057F80F2000F006F800F024F8002010BDB5
:1006E000003C024070B50D4D04464FF47A712878F5
:1006F000B1FBF0F00A490968B1FBF0F000F058FBDB
:1007000048B9102C07D200222146501E00F018F8DC
:1007100000206C6070BD012070BD0000040000204E
:10072000000000207047002809DB00F01F020121B3
:1007300091404009800000F1E020C0F800117047AE
:10074000F0B40E4B1B68C3F30223C3F10704042C5F
:1007500000D904241D1D072D01D2002300E0DB1E5B
:10076000012606FA04F56D1E0D409D409E40761E42
:10077000164045EA0601F0BC04F045B80CED00E077
:10078000064A00F0070110684FF6FF03184040EAE0
:100790000120034908431060704700000CED00E0A1
:1007A0000000FA052DE9F0470D46040065D0DFF89A
:1007B0001491D9F80000EFB200F00F00A84207D260
:1007C00089F80070D9F8000000F00F00A84254D159
:1007D00020683D4E810712D5400703D5306840F4AC
:1007E000E05030602078000703D5306840F4604066
:1007F00030603068A16820F0F00008433060207855
:10080000C0072DD0304960680839012812D002286D
:1008100013D0032811D00968890700292DDA31681F
:1008200021F0030101433160FFF738FF804641F2B8
:10083000883A0EE009688903EFE709688901ECE767
:10084000FFF72CFFA0EB0801514502D90320BDE8BA
:10085000F0873068616800F00C00B0EB810FEFD1D9
:10086000D9F80010484601F00F01A94207D90770D6
:10087000006800F00F00A84201D00120E7E72078CF
:10088000400705D53068E16820F4E0500843306047
:100890002078000706D53068216920F4604040EADE
:1008A000C100306000F036F83168084AC1F3031126
:1008B000515CC840064908600F20FFF713FF002075
:1008C000C5E70000003C0240083802406E4C0008BA
:1008D000000000200448054900680968044AC1F383
:1008E0008221515CC8407047000000200838024057
:1008F0007E4C00080448054900680968044AC1F3B1
:100900004231515CC8407047000000200838024066
:100910007E4C0008154810B5006810F00C01144812
:1009200013D0431004290FD008290ED10F4C241FD7
:10093000216801F03F022168490207D52068C0F311
:100940008810A0FB030106E0184610BD2168C1F322
:100950008811A1FB00010023FFF787FC2168C1F388
:100960000141491C4900B0FBF1F010BD08380240BC
:100970000024F4002DE9F84F040073D02078BD4D19
:10098000C00748D0BB4808300168C1F38101012984
:1009900008D00068C0F3810002280AD1281D006831
:1009A000400206D52868800335D560680028E4D069
:1009B00031E06068B0F5803F10D0B0F5A02F286816
:1009C00010D020F480302860286820F4802028602F
:1009D0006068A0B1FFF762FE06460CE0286840F4AC
:1009E0008030F4E740F480202860F7E7FFF756FEF8
:1009F000801B642872D828688003F7D50BE0FFF7C6
:100A00004DFE064604E0FFF749FE801B6428F1D83E
:100A100028688003F7D42078DFF85C9280074FF0D5
:100A2000000A3ED593480830016811F00C0F09D038
:100A30000068C0F3810002280BD18E48001D0068B9
:100A4000400206D42868800715D5E068012809D13E
:100A500011E0E068B8B10120C9F80000FFF71EFE00
:100A6000064605E003E1FFF719FE801B0228C1D806
:100A700028688007F7D52868216920F0F80040EA47
:100A8000C10028600DE0C9F800A0FFF707FE064688
:100A900004E0FFF703FE801B02281FD828688007A8
:100AA000F7D42078000722D5724F744960697437F3
:100AB00070B101200860FFF7F1FD064604E0FFF782
:100AC000EDFD801B022809D838688007F7D50EE0B5
:100AD000C1F800A0FFF7E2FD064605E081E0FFF760
:100AE000DDFD801B02287CD838688007F7D4207889
:100AF000400769D5DFF87CB14FF000080BF1400BDF
:100B0000DBF80000C0000CD4DBF8001041F080518D
:100B1000CBF80010DBF800004FF0010800F0805027
:100B20000090574F3868C0050FD4386840F4807083
:100B30003860FFF7B3FD064604E0FFF7AFFD801B0A
:100B400002284ED83868C005F7D54A4FA0687037DC
:100B500001280FD00528386810D020F00100386037
:100B6000386820F004003860A068B0B1FFF796FD47
:100B700006460EE0386840F00100F4E740F004005B
:100B80003860F7E7FFF78AFD811B41F28830814228
:100B900065D838688007F5D50DE0FFF77FFD06467C
:100BA00006E0FFF77BFD811B41F28830814256D879
:100BB00038688007F5D4B8F1000F05D0DBF80010D5
:100BC00021F08051CBF80010A069C8B32949083141
:100BD0000968C1F38101022949D00228504607D093
:100BE00000E03CE0C9F86000FFF758FD044639E03A
:100BF0004F46C9F86000FFF751FD064604E0FFF7D5
:100C00004DFD801B02282AD828688001F7D4D4E93A
:100C100007010843A16A1B4A490802EB0141626AC5
:100C200041EA8211084394F82C1040EA016111480E
:100C3000001D016001203866FFF730FD044605E025
:100C400013E0FFF72BFD001B022808D8286880015D
:100C5000F7D50AE0FFF722FD001B022802D9032086
:100C6000BDE8F88F28688001F4D40020F8E701205F
:100C7000F6E700000038024000004742800E47427D
:100C8000007000400000FFFF70B515460E460400DE
:100C900003D094F8490010B107E0012070BD002096
:100CA00084F84800204600F01BF804F10801206891
:100CB000FFF7AAFB3146A2682068FFF7CFFBD4E913
:100CC00001022946236BFFF77FFBA168206850F8DB
:100CD000212042F0010240F82120002070BD0000D8
:100CE000284810B5016886B041F001010160006834
:100CF00000F00100059023480838016841F0080120
:100D00000160016801F008010591016841F01001DE
:100D10000160016801F010010591016841F02001B6
:100D20000160016801F020010591016841F0400176
:100D300001600068694600F0400005904CF2337095
:100D400000900220019001200290032003900C20CB
:100D500004900D48FFF7B6FB4FF68070009069468F
:100D60000A48FFF7AFFB4FF48054694608480094E7
:100D7000FFF7A8FB694607480094FFF7A3FB06B0FE
:100D800010BD000038380240000C02400010024044
:100D900000140240001802404FF0E02104280869C6
:100DA00003D020F004000861704740F00400FAE727
:100DB00010B5401EB0F1807F01D3012010BD4FF06F
:100DC000E02460610F21601703F01DFD0020A06189
:100DD00007202061002010BD70477047704770B534
:100DE0000446006801694FF00005C943890715D41E
:100DF000C168C943890711D4E91E01610120207728
:100E0000206880698007204602D0FFF7E7FF04E0F2
:100E100000F098F8204600F041F925772068016934
:100E2000C943490717D4C168C943490713D46FF0B0
:100E300004010161022020772068806910F4407F5E
:100E4000204602D0FFF7CAFF04E000F07BF82046FE
:100E500000F024F9257720680169C943090716D4F1
:100E6000C168C943090712D46FF008010161042069
:100E700020772068C0698007204602D0FFF7AEFFC8
:100E800004E000F05FF8204600F008F925772068BC
:100E90000169C943C90617D4C168C943C90613D437
:100EA0006FF010010161082020772068C06910F4FC
:100EB000407F204602D0FFF791FF04E000F042F8A7
:100EC000204600F0EBF8257720680169C943C9077F
:100ED00008D1C168C943C90704D1891E01612046F0
:100EE00000F000F920680169C943090609D4C16806
:100EF000C943090605D46FF0800101612046FFF760
:100F00006BFF20680169C943490609D4C168C94318
:100F1000490605D46FF040010161204600F0F4F865
:100F200020680169C94389060BD4C168C943890691
:100F300007D46FF0200101612046BDE87040FFF743
:100F40004CBF70BD704770B5044690F83C000D462C
:100F500001280DD0012684F83C60022084F83D0071
:100F600042B1042A18D0082A2AD00C2A4DD139E0DF
:100F7000022070BD206803F07DF92068816941F08E
:100F8000080181612068816921F004018161206884
:100F900081692A69114311E0206803F09BF92068F8
:100FA000816941F4006181612068816921F4806177
:100FB0008161206881692A6941EA0221816124E016
:100FC000206803F0BDF92068C16941F00801C161E2
:100FD0002068C16921F00401C1612068C1692A69E2
:100FE000114311E0206803F0DFF92068C16941F482
:100FF0000061C1612068C16921F48061C16120681C
:10100000C1692A6941EA0221C16184F83D6000207A
:1010100084F83C0070BD10B5040003D094F83D0086
:1010200010B107E0012010BD002084F83C002046EC
:1010300000F00CF8022084F83D00211D206803F028
:10104000A7F8012084F83D00002010BD114800B52C
:10105000016887B041F480710160006800F480701D
:1010600005900C481038016841F0200101600068CB
:10107000694600F0200005904FF4007000900220B7
:1010800001900390092004900348FFF71BFA07B072
:1010900000BD0000403802400014024070470000CC
:1010A00010B504460068012203F0D6F80B48216809
:1010B000814202D00A48814203D1486C40F400408A
:1010C00048642068816801F00701062903D001689F
:1010D00041F001010160002010BD0000000001404E
:1010E000000401400649884206D10649D1F8A80209
:1010F00018B10020C1F8A80270470120FAE70000EB
:1011000088010020008042427047704710F8391F64
:10111000407808437047000070B5026804461068C4
:10112000D168536910F00F0F50D003F0010501F49E
:10113000907635435DD0C20705D0CA0503D5E26B72
:1011400042F00102E263420705D5DA0703D0E26B01
:1011500042F00202E263820705D5DA0703D0E26BB0
:1011600042F00402E263020705D5DA0703D0E26B1E
:1011700042F00802E263E26B002A33D0800604D515
:10118000880602D5204603F053F920684069E16BD8
:10119000C0F38010090700D428B3204603F03AF9C1
:1011A0002068416949061AD5416921F04001416131
:1011B000606BA0B11B490165606BFFF771F90028F6
:1011C00010D0606B016DBDE870400847830610D5F4
:1011D0008B060ED52046BDE8704003F029B92046A5
:1011E000FFF793FF70BD2046FFF78FFF0020E063FD
:1011F00070BD030606D50B0604D52046BDE8704039
:1012000003F0B8BA4006F3D54806F1D5D1682046B8
:1012100021F04001D160202184F8391000F0CAF893
:1012200070BD00000544000870B5040004D094F8B7
:101230003900002510B106E0012070BD84F8385057
:10124000204600F023F8242084F839002068C16883
:1012500021F40051C160204603F036F9206801698D
:1012600021F4904101612068416921F02A01416126
:101270002068C16841F40051C160E563202084F812
:10128000390084F83A00002070BD000010B50068F5
:101290001A4986B088422FD11948016841F00101EE
:1012A0000160006800F001000590154814300168E5
:1012B00041F0100101600068012100F0100005906C
:1012C0004FF4007000900220CDE901010390072047
:1012D0000C4C049069462046FFF7F4F82115009164
:1012E00069462046FFF7EEF82520FFF71CFA032297
:1012F00011462520FFF724FA06B010BD001001406A
:10130000303802400000024090F83A30202B22D1C1
:10131000F9B1F2B190F83830012B1CD0816282858E
:10132000C2850021C163222280F83A2080F838105B
:101330000168CA6842F48072CA6001684A6942F072
:1013400001024A610068C16841F02001C1600020CB
:1013500070470120704702207047000030B50068D8
:10136000114988420CD1114A5088010408D4114611
:10137000440409784FF0000306D50A2901D05380B0
:1013800030BD40F400400DE00D2909D0C0F30D043C
:10139000074D401C80B229555080C728EFD830BD7A
:1013A00040F48040508030BD001001401400002007
:1013B000200000207047FEE770B5144886B0002575
:1013C000016841F001010160016801F0010105912E
:1013D000016841F0100101600068032400F0100072
:1013E000059002200126CDE90204CDE90065694699
:1013F0000748FFF767F81C2003948DE861006946F1
:101400000448FFF75FF806B070BD000030380240B6
:10141000000002400010024070B506460A48002451
:101420000188458820464D43214602F0ADFC02F07C
:10143000D3FDB1B24FF0D84002E0A0F88010641C98
:10144000AC42FAD370BD0000780100202DE9F04FC6
:101450002B4B2C27194698712B2589884FF4305A2D
:101460004FF4285B4FF4487441F6631E2A264FF070
:10147000F00845F210594FF4A07C4FF4F072C8B157
:10148000A3F800C0A3F80280494533D1A3F808A00F
:10149000A3F80AB0280298811C805A80A1F5A640C2
:1014A000103802D11A80A3F802C0BDE8F04F002026
:1014B00002F09ABBA3F80080A3F802C0494507D107
:1014C000A3F808A0A3F80AB04FF42C50988104E0C8
:1014D00071451F8104D15D819E811A805C8001E08D
:1014E0005E819D81A1F5A6401038DED1A3F800C031
:1014F0005A80DAE71F815E8171459D81CCD0CDE7AE
:10150000780100202DE9F041314D90460C4602460D
:10151000060AA9882846270A4089A1F5AA43103B54
:101520000FD0A1F5C853633B24D002F049FD3046EB
:1015300002F03AFDD0B202F037FDA88902F040FD7A
:1015400036E002F03DFD304602F02EFD6889401C79
:1015500080B202F035FDD0B202F026FDA88902F07B
:101560002FFD384602F020FDA889401C80B202F011
:1015700027FD20E0A97919B92988891A491E8AB25C
:1015800002F01EFD160A304602F00EFDD0B202F047
:101590000BFD304602F008FDD0B202F005FDA8892F
:1015A00002F00EFD384602F0FFFCE0B202F0FCFC57
:1015B000384602F0F9FCE0B202F0F6FC4FF0D841F8
:1015C000288921F87E0FA1F80280BDE8F081000093
:1015D000780100202DE9F04FFD4895B00024016806
:1015E00041F00201016000680EA900F002001390B2
:1015F0004FF400400E9001200F90109003201190A6
:10160000F448FEF75FFFF448F4494FF0204AC0E980
:1016100000A10621C0E902141021C0E9044184613F
:101620000902C461C0E909418900C0E90B4189018F
:101630004463C0E90E410F20CDE907043C20099026
:101640000920CDE9000408200D94029003946A4615
:1016500007A90694E048FFF717FB322003F0EEF8E5
:10166000D32002F0ADFC02F08DFADB4F5037B8808A
:1016700002F088FA3946888002F084FA4FF6FF7B40
:1016800039460BEA0020888002F07CFA394649F29C
:101690004136898845F210380843394645F21055DD
:1016A000888041F6631947F28974B04275D00420EE
:1016B00002F086FC02F066FAB88002F063FAB880A5
:1016C00002F060FA0BEA0020B88002F05BFAB988F9
:1016D0000843A0F50541B88052397DD0A0425CD0C6
:1016E000D42002F06DFC02F04DFAB88002F04AFA04
:1016F000B88002F047FA0BEA0020B88002F042FA04
:10170000B9880843B880404547D055214FF4704010
:1017100002F06CFCAA214FF2010002F067FC52219A
:101720004FF2020002F062FC08214FF2030002F0C7
:101730005DFC01214FF2040002F058FC4FF44540DB
:1017400002F03EFC02F01EFA0BEA0020B8804CF2D8
:10175000015002F035FC02F015FAB9880843B88050
:10176000052003F06BF8B888B0F5004F7ED0A84292
:1017700013D0A12002F024FC02F004FAB88002F099
:1017800001FA0BEA0020B88002F0FCF9B98808439E
:10179000A0F5AE41B880613969D0B888B04267D150
:1017A000CF2002F00DFC002002F0FEFBC12002F071
:1017B000FBFB302002F0F8FBED2002F001FC64207E
:1017C00002F0F2FB032002F0EFFB122002F0ECFB30
:1017D000812002F0E9FB00E002E1E82002F0F0FBEA
:1017E000852002F0E1FB102002F0DEFB7A2002F0FF
:1017F000DBFBCB2002F0E4FB392002F0D5FB2C20F0
:1018000002F0D2FB002002F0CFFB342002F0CCFB30
:10181000022002F0C9FBF72002F0D2FB202002F0E8
:10182000C3FBEA2002F0CCFB002002F0BDFB00204D
:1018300002F0BAFBC02002F0C3FB1B2002F0B4FB95
:10184000C12002F0BDFB012002F0AEFBC52002F07A
:10185000B7FB302002F0A8FB302002F0A5FBC72028
:1018600002F0AEFBB72002F09FFB02E0BEE0B9E061
:10187000BFE0362002F0A4FB482002F095FB3A209E
:1018800002F09EFB552002F08FFBB12002F098FB86
:10189000002002F089FB1A2002F086FBB62002F03D
:1018A0008FFB0A2002F080FBA22002F07DFBF220D9
:1018B00002F086FB002002F077FB262002F080FB7E
:1018C000012002F071FBE02002F07AFB0F2002F011
:1018D0006BFB2A2002F068FB282002F065FB082041
:1018E00002F062FB0E2002F05FFB082002F05CFBBE
:1018F000542002F059FBA92002F056FB432002F0CD
:1019000053FB0A2002F050FB0F2002F04DFB002099
:1019100002F04AFB002002F047FB002002F044FBEB
:10192000002002F041FBE12002F04AFB002002F01F
:101930003BFB152002F038FB172002F035FB072097
:1019400002F032FB112002F02FFB062002F02CFBEC
:101950002B2002F029FB562002F026FB3C2002F04F
:1019600023FB052002F020FB102002F01DFB0F20BE
:1019700002F01AFB3F2002F017FB3F2002F014FB9D
:101980000F2002F011FB2B2002F01AFB002002F0C6
:101990000BFB002002F008FB012002F005FB3F20BA
:1019A00002F002FB2A2002F00BFB002002F0FCFAFE
:1019B000002002F0F9FA002002F0F6FAEF2002F01F
:1019C000F3FA112002F0FCFA782002F037FFE3E08E
:1019D000303802400004024028010020040100A029
:1019E000BC8008E0A7F8049001F0DCBFBD8001F0E6
:1019F00054B8A0427ED1112002F0E2FA782002F021
:101A00001DFF362002F0DCFA002002F0CDFA3A2069
:101A100002F0D6FA052002F0C7FAB22002F0D0FA9E
:101A20000C2002F0C1FA0C2002F0BEFA002002F0F5
:101A3000BBFA332002F0B8FA332002F0B5FAB7202F
:101A400002F0BEFA352002F0AFFABB2002F0B8FA7D
:101A5000322002F0A9FAC02002F0B2FA0C2002F003
:101A6000A3FAC22002F0ACFA012002F09DFAC320D2
:101A700002F0A6FA102002F097FAC42002F0A0FAB1
:101A8000202002F091FAC62002F09AFA0F2002F00C
:101A90008BFAD02002F094FAA42002F085FAA1205B
:101AA00002F082FAE02002F08BFAD02002F07CFAF9
:101AB000002002F079FA022002F076FA072002F004
:101AC00073FA0A2002F070FA282002F06DFA322030
:101AD00002F06AFA442002F067FA422002F064FA47
:101AE000062002F061FA0E2002F05EFA122002F0E7
:101AF0005BFA00E053E0142002F056FA172002F0DF
:101B000053FAE12002F05CFAD02002F04DFA0020F6
:101B100002F04AFA022002F047FA072002F044FAE3
:101B20000A2002F041FA282002F03EFA312002F0A9
:101B30003BFA542002F038FA472002F035FA0E2022
:101B400002F032FA1C2002F02FFA172002F02CFAD1
:101B50001B2002F029FA1E2002F026FA2A2002F0A9
:101B60002FFA002002F020FA002002F01DFA0020D7
:101B700002F01AFAEF2002F017FA2B2002F020FAF6
:101B8000002002F011FA002002F00EFA012002F00B
:101B90000BFA3F2002F008FA292001F0FEBE404572
:101BA0007ED1ED2002F00CFA012002F0FDF9FE20BA
:101BB00002F0FAF9EE2002F003FADE2002F0F4F966
:101BC000212002F0F1F9F12002F0FAF9012002F0EF
:101BD000EBF9DF2002F0F4F9102002F0E5F9C4205F
:101BE00002F0EEF98F2002F0DFF9C62002F0E8F9EA
:101BF000002002F0D9F9E22002F0D6F9E22002F04A
:101C0000D3F9E22002F0D0F9BF2002F0D9F9AA20DE
:101C100002F0CAF9B02002F0D3F90D2002F0C4F9A5
:101C2000002002F0C1F90D2002F0BEF9002002F000
:101C3000BBF9112002F0B8F9002002F0B5F9192023
:101C400002F0B2F9002002F0AFF9212002F0ACF965
:101C5000002002F0A9F92D2002F0A6F9002002F0E0
:101C6000A3F93D2002F0A0F9002002F09DF95D20CB
:101C700002F09AF9002002F097F95D2002F094F941
:101C8000002002F091F9B12002F09AF9802002F0D0
:101C90008BF9002002F088F98B2002F085F900E032
:101CA000FDE3002002F080F9962002F07DF900208B
:101CB00002F07AF9B22002F083F9002002F074F900
:101CC000002002F071F9022002F06EF9002002F00B
:101CD0006BF9032002F068F9002002F065F9B320E7
:101CE00002F06EF9002002F05FF9002002F05CF9CA
:101CF000002002F059F9002002F056F9002002F00D
:101D000053F9002002F050F9002002F04DF90020B4
:101D100002F04AF9002002F047F9002002F044F9ED
:101D2000002002F041F9002002F03EF9002002F00C
:101D30003BF9002002F038F9002002F035F90020CC
:101D400002F032F9002002F02FF9002002F02CF905
:101D5000002002F029F9002002F026F9002002F00C
:101D600023F9002002F020F9002002F01DF90020E4
:101D700002F01AF9B42002F023F98B2002F014F9D2
:101D8000002002F011F9962002F00EF9002002F076
:101D90000BF9A12002F008F9002002F005F9B520A6
:101DA00002F00EF9022002F0FFF8002002F0FCF829
:101DB000032002F0F9F8002002F0F6F8042002F007
:101DC000F3F8002002F0F0F8B62002F0F9F8002055
:101DD00002F0EAF8002002F0E7F8B72002F0F0F88D
:101DE000002002F0E1F8002002F0DEF83F2002F0CF
:101DF000DBF8002002F0D8F85E2002F0D5F80020D1
:101E000002F0D2F8642002F0CFF8002002F0CCF803
:101E10008C2002F0C9F8002002F0C6F8AC2002F0D5
:101E2000C3F8002002F0C0F8DC2002F0BDF800206A
:101E300002F0BAF8702002F0B7F8002002F0B4F80F
:101E4000902002F0B1F8002002F0AEF8EB2002F092
:101E5000ABF8002002F0A8F8DC2002F0A5F8002082
:101E600002F0A2F8B82002F0ABF8002002F09CF8D3
:101E7000002002F099F8002002F096F8002002F00D
:101E800093F8002002F090F8002002F08DF8002076
:101E900002F08AF8002002F087F8BA2002F090F8E9
:101EA000242002F081F8002002F07EF8002002F0E9
:101EB0007BF8002002F078F8C12002F081F82020A1
:101EC00002F072F8002002F06FF8542002F06CF873
:101ED000002002F069F8FF2002F066F8002002F00E
:101EE00063F8C22002F06CF80A2002F05DF80020CE
:101EF00002F05AF8042002F057F8002002F054F8DB
:101F0000C32002F05DF83C2002F04EF8002002F001
:101F10004BF83A2002F048F8002002F045F839204A
:101F200002F042F8002002F03FF8372002F03CF8BF
:101F3000002002F039F83C2002F036F8002002F0D0
:101F400033F8362002F030F8002002F02DF832206D
:101F500002F02AF8002002F027F82F2002F024F8DF
:101F6000002002F021F82C2002F01EF8002002F0E0
:101F70001BF8292002F018F8002002F015F826209E
:101F800002F012F8002002F00FF8242002F00CF802
:101F9000002002F009F8242002F006F8002002F0E8
:101FA00003F8232002F000F8002001F0FDFF3C20A0
:101FB00001F0FAFF002001F0F7FF362001F0F4FFF6
:101FC000002001F0F1FF322001F0EEFF002001F0CF
:101FD000EBFF2F2001F0E8FF002001F0E5FF2C20AF
:101FE00001F0E2FF002001F0DFFF292001F0DCFF1B
:101FF000002001F0D9FF262001F0D6FF002001F0DB
:10200000D3FF242001F0D0FF002001F0CDFF2420D9
:1020100001F0CAFF002001F0C7FF232001F0C4FF38
:10202000002001F0C1FFC42001F0CAFF622001F0CE
:10203000BBFF002001F0B8FF052001F0B5FF002034
:1020400001F0B2FF842001F0AFFF002001F0ACFFEF
:10205000F02001F0A9FF002001F0A6FF182001F0F8
:10206000A3FF002001F0A0FFA42001F09DFF0020AD
:1020700001F09AFF182001F097FF002001F094FF73
:10208000502001F091FF002001F08EFF0C2001F0A4
:102090008BFF002001F088FF172001F085FF002052
:1020A00001F082FF952001F07FFF002001F07CFF0E
:1020B000F32001F079FF002001F076FFE62001F027
:1020C00073FF002001F070FFC52001F079FF32207E
:1020D00001F06AFF002001F067FF442001F064FF77
:1020E000002001F061FF652001F05EFF002001F09B
:1020F0005BFF762001F058FF002001F055FF88209B
:1021000001F052FF002001F04FFFC62001F058FF00
:10211000202001F049FF002001F046FF172001F0C8
:1021200043FF002001F040FF012001F03DFF0020AF
:1021300001F03AFFC72001F043FF002001F034FF17
:10214000002001F031FF002001F02EFF002001F0FF
:102150002BFFC82001F034FF002001F025FF0020F4
:1021600001F022FF002001F01FFF002001F01CFF02
:10217000C92001F025FF002001F016FF002001F02A
:1021800013FF002001F010FF002001F00DFF0020E0
:1021900001F00AFF002001F007FF002001F004FF1A
:1021A000002001F001FF002001F0FEFE002001F000
:1021B000FBFE002001F0F8FE002001F0F5FE0020FB
:1021C00001F0F2FE002001F0EFFE002001F0ECFE35
:1021D000002001F0E9FEE02001F0F2FE162001F0FF
:1021E000E3FE002001F0E0FE1C2001F0DDFE0020F7
:1021F00001F0DAFE212001F0D7FE002001F0D4FE2C
:10220000362001F0D1FE002001F0CEFE462001F084
:10221000CBFE002001F0C8FE522001F0C5FE0020D8
:1022200001F0C2FE642001F0BFFE002001F0BCFE00
:102230007A2001F0B9FE002001F0B6FE8B2001F0FB
:10224000B3FE002001F0B0FE992001F0ADFE0020A9
:1022500001F0AAFEA82001F0A7FE002001F0A4FED4
:10226000B92001F0A1FE002001F09EFEC42001F083
:102270009BFE002001F098FECA2001F095FE002090
:1022800001F092FED22001F08FFE002001F08CFEC2
:10229000D92001F089FE002001F086FEE02001F047
:1022A00083FE002001F080FEF32001F07DFE00207F
:1022B00001F07AFEE12001F083FE162001F074FEA9
:1022C000002001F071FE1C2001F06EFE002001F0E4
:1022D0006BFE222001F068FE002001F065FE362032
:1022E00001F062FE002001F05FFE452001F05CFE7F
:1022F000002001F059FE522001F056FE002001F0AE
:1023000053FE642001F050FE002001F04DFE7A20C3
:1023100001F04AFE002001F047FE8B2001F044FE50
:10232000002001F041FE992001F03EFE002001F066
:102330003BFEA82001F038FE002001F035FEB92058
:1023400001F032FE002001F02FFEC42001F02CFE2F
:10235000002001F029FECA2001F026FE002001F035
:1023600023FED22001F020FE002001F01DFED82027
:1023700001F01AFE002001F017FEE02001F014FE2B
:10238000002001F011FEF32001F00EFE002001F00C
:102390000BFEE22001F014FE052001F005FE0020F6
:1023A00001F002FE0B2001F0FFFD002001F0FCFD1A
:1023B0001B2001F0F9FD002001F0F6FD342001F0B2
:1023C000F3FD002001F0F0FD442001F0EDFD0020C0
:1023D00001F0EAFD4F2001F0E7FD002001F0E4FDEF
:1023E000612001F0E1FD002001F0DEFD792001F027
:1023F000DBFD002001F0D8FD882001F0D5FD002094
:1024000001F0D2FD972001F0CFFD002001F0CCFDBE
:10241000A62001F0C9FD002001F0C6FDB72001F0A3
:10242000C3FD002001F0C0FDC22001F0BDFD002071
:1024300001F0BAFDC72001F0B7FD002001F0B4FDA6
:10244000D12001F0B1FD002001F0AEFDD62001F059
:10245000ABFD002001F0A8FDDD2001F0A5FD00206E
:1024600001F0A2FDF32001F09FFD002001F09CFD92
:10247000E32001F0A5FD052001F096FD002001F00C
:1024800093FD0A2001F090FD002001F08DFD1C203D
:1024900001F08AFD002001F087FD332000E0FAE220
:1024A00001F082FD002001F07FFD442001F07CFD61
:1024B000002001F079FD502001F076FD002001F0B0
:1024C00073FD622001F070FD002001F06DFD7820A9
:1024D00001F06AFD002001F067FD882001F064FD35
:1024E000002001F061FD972001F05EFD002001F069
:1024F0005BFDA62001F058FD002001F055FDB7203E
:1025000001F052FD002001F04FFDC22001F04CFD12
:10251000002001F049FDC72001F046FD002001F038
:1025200043FDD12001F040FD002001F03DFDD5200C
:1025300001F03AFD002001F037FDDD2001F034FD0F
:10254000002001F031FDF32001F02EFD002001F00C
:102550002BFDE42001F034FD012001F025FD0020D9
:1025600001F022FD012001F01FFD002001F01CFD03
:10257000022001F019FD002001F016FD2A2001F0D3
:1025800013FD002001F010FD3C2001F00DFD0020A6
:1025900001F00AFD4B2001F007FD002001F004FDD1
:1025A0005D2001F001FD002001F0FEFC742001F02F
:1025B000FBFC002001F0F8FC842001F0F5FC002079
:1025C00001F0F2FC932001F0EFFC002001F0ECFCA4
:1025D000A22001F0E9FC002001F0E6FCB32001F0AC
:1025E000E3FC002001F0E0FCBE2001F0DDFC002057
:1025F00001F0DAFCC42001F0D7FC002001F0D4FC8B
:10260000CD2001F0D1FC002001F0CEFCD32001F060
:10261000CBFC002001F0C8FCDD2001F0C5FC00204F
:1026200001F0C2FCF32001F0BFFC002001F0BCFC73
:10263000E52001F0C5FC002001F0B6FC002001F00F
:10264000B3FC002001F0B0FC002001F0ADFC022042
:1026500001F0AAFC002001F0A7FC292001F0A4FC55
:10266000002001F0A1FC3C2001F09EFC002001F0C4
:102670009BFC4B2001F098FC002001F095FC5D20B4
:1026800001F092FC002001F08FFC742001F08CFC22
:10269000002001F089FC842001F086FC002001F07C
:1026A00083FC932001F080FC002001F07DFCA2203F
:1026B00001F07AFC002001F077FCB32001F074FCFB
:1026C000002001F071FCBE2001F06EFC002001F042
:1026D0006BFCC42001F068FC002001F065FCCD20FB
:1026E00001F062FC002001F05FFCD32001F05CFCF3
:1026F000002001F059FCDC2001F056FC002001F024
:1027000053FCF32001F050FC002001F04DFCE620CA
:1027100001F056FC112001F047FC002001F044FCC0
:10272000342001F041FC002001F03EFC562001F075
:102730003BFC002001F038FC762001F035FC002045
:1027400001F032FC772001F02FFC002001F02CFC7E
:10275000662001F029FC002001F026FC882001F011
:1027600023FC002001F020FC992001F01DFC00203A
:1027700001F01AFCBB2001F017FC002001F014FC52
:10278000992001F011FC002001F00EFC662001F000
:102790000BFC002001F008FC552001F005FC002096
:1027A00001F002FC552001F0FFFB002001F0FCFBD2
:1027B000452001F0F9FB002001F0F6FB432001F079
:1027C000F3FB002001F0F0FB442001F0EDFB0020C2
:1027D00001F0EAFBE72001F0F3FB322001F0E4FB1B
:1027E000002001F0E1FB552001F0DEFB002001F0AC
:1027F000DBFB762001F0D8FB002001F0D5FB662042
:1028000001F0D2FB002001F0CFFB672001F0CCFBF0
:10281000002001F0C9FB672001F0C6FB002001F099
:10282000C3FB872001F0C0FB002001F0BDFB992015
:1028300001F0BAFB002001F0B7FBBB2001F0B4FBB4
:10284000002001F0B1FB992001F0AEFB002001F067
:10285000ABFB772001F0A8FB002001F0A5FB442092
:1028600001F0A2FB002001F09FFB562001F09CFB31
:10287000002001F099FB232001F096FB002001F0DD
:1028800093FB332001F090FB002001F08DFB4520ED
:1028900001F08AFB002001F087FBE82001F090FBAB
:1028A000002001F081FB002001F07EFB992001F067
:1028B0007BFB002001F078FB872001F075FB0020F6
:1028C00001F072FB882001F06FFB002001F06CFB2F
:1028D000772001F069FB002001F066FB662001F023
:1028E00063FB002001F060FB882001F05DFB00200D
:1028F00001F05AFBAA2001F057FB002001F054FB25
:10290000BB2001F051FB002001F04EFB992001F0AB
:102910004BFB002001F048FB662001F045FB002046
:1029200001F042FB552001F03FFB002001F03CFB91
:10293000552001F039FB002001F036FB442001F066
:1029400033FB002001F030FB442001F02DFB002080
:1029500001F02AFB552001F027FB002001F024FBA9
:10296000E92001F02DFBAA2001F01EFB002001F060
:102970001BFB002001F018FB002001F015FB0020DC
:1029800001F01EFBAA2001F00FFBCF2001F018FB85
:10299000002001F009FB002001F006FB002001F0FF
:1029A00003FB002001F000FB002001F0FDFA0020F5
:1029B00001F0FAFA002001F0F7FA002001F0F4FA31
:1029C000002001F0F1FA002001F0EEFA002001F001
:1029D000EBFA002001F0E8FA002001F0E5FA00200F
:1029E00001F0E2FA002001F0DFFA002001F0DCFA49
:1029F000002001F0D9FAF02001F0E2FA002001F005
:102A0000D3FA502001F0D0FA002001F0CDFA0020D6
:102A100001F0CAFA002001F0C7FAF32001F0D0FA61
:102A2000002001F0C1FAF92001F0CAFA062001F0F5
:102A3000BBFA102001F0B8FA292001F0B5FA002005
:102A400001F0B2FA3A2001F0BBFA552001F0ACFADD
:102A5000112001F0B5FA642001F0F0FE292001F008
:102A6000AFFA352001F0ACFA002001F09DFA5120B8
:102A700001F0A6FAFF2001F097FA532001F0A0FA26
:102A80002C2001F091FA552001F09AFA822001F0F1
:102A90008BFA2C20FDE3A8427ED155214FF47040E3
:102AA00001F0A4FAAA214FF2010001F09FFA52218D
:102AB0004FF2020001F09AFA08214FF2030001F0F0
:102AC00095FA4FF204030121184601F08FFA0D2107
:102AD0004FF4304001F08AFA0D214BF2010001F071
:102AE00085FA0D214BF2020001F080FA34214FF4F7
:102AF000364001F07BFA34214BF2016001F076FAA6
:102B000034214BF2026001F071FA0D214FF4314093
:102B100001F06CFA0D214BF2011001F067FA0D2162
:102B20004BF2021001F062FA34214FF4374001F009
:102B30005DFA34214BF2017001F058FA34214BF266
:102B4000027001F053FA00214FF4324001F04EFAC6
:102B500000214BF2012001F049FA00214BF2022042
:102B600001F044FA24214FF4384001F03FFA2421C7
:102B70004BF6010001F03AFA24214BF6020001F075
:102B800035FA01214FF43F4001F030FA0F214FF4A4
:102B9000334001F02BFA00E0FEE30F214BF201304D
:102BA00001F024FA0F214BF2023001F01FFA342118
:102BB0004FF4394001F01AFA34214BF6011001F0BC
:102BC00015FA34214BF6021001F010FA08214FF4E7
:102BD000354001F00BFA08214BF2015001F006FAE2
:102BE00008214BF2025001F001FA03214FF4424058
:102BF00001F0FCF924214FF43A4001F0F7F92421C7
:102C00004BF6012001F0F2F924214BF6022001F0ED
:102C1000EDF900214FF43C4001F0E8F978214BF642
:102C2000014001F0E3F900214BF6024001F0DEF92A
:102C300000214FF43D4001F0D9F978214BF60150C5
:102C400001F0D4F900214BF6025001F0CFF9002138
:102C50004FF43E4001F0CAF964214BF6016001F0E7
:102C6000C5F900214FF4514001F0C0F933214DF274
:102C7000011001F0BBF900214DF2021001F0B6F98C
:102C800034214DF2031001F0B1F900214DF204108E
:102C900001F0ACF93A214DF2051001F0A7F900213D
:102CA0004DF2061001F0A2F94A214DF2071001F091
:102CB0009DF900214DF2081001F098F95C214DF2C8
:102CC000091001F093F900214DF20A1001F08EF97C
:102CD00081214DF20B1001F089F900214DF20C1009
:102CE00001F084F9A6214DF20D1001F07FF90021C9
:102CF0004DF20E1001F07AF9E5214DF20F1001F0BE
:102D000075F901214DF2101001F070F913214DF207
:102D1000111001F06BF901214DF2121001F066F96A
:102D200054214DF2131001F061F901214DF21410FC
:102D300001F05CF982214DF2151001F057F90121E3
:102D40004DF2161001F052F9CA214DF2171001F0A0
:102D50004DF902214DF2181001F048F900214DF211
:102D6000191001F043F902214DF21A1001F03EF959
:102D700001214DF21B1001F039F902214DF21C1016
:102D800001F034F934214DF21D1001F02FF9022128
:102D90004DF21E1001F02AF967214DF21F1001F0CB
:102DA00025F902214DF2201001F020F984214DF285
:102DB000211001F01BF902214DF2221001F016F949
:102DC000A4214DF2231001F011F902214DF224103B
:102DD00001F00CF9B7214DF2251001F007F902219D
:102DE0004DF2261001F002F9CF214DF2271001F02B
:102DF000FDF802214DF2281001F0F8F8DE214DF225
:102E0000291001F0F3F802214DF22A1001F0EEF83A
:102E1000F2214DF22B1001F0E9F802214DF22C10B5
:102E200001F0E4F8FE214DF22D1001F0DFF803214E
:102E30004DF22E1001F0DAF810214DF22F1001F0B2
:102E4000D5F803214DF2301001F0D0F833214DF2C6
:102E5000311001F0CBF803214DF2321001F0C6F829
:102E60006D214DF2331001F0C1F800214FF45240B2
:102E700001F0BCF833214DF2012001F0B7F8002138
:102E80004DF2022001F0B2F834214DF2032001F09E
:102E9000ADF800214DF2042001F0A8F83A214DF2DE
:102EA000052001F0A3F800214DF2062001F09EF864
:102EB0004A214DF2072001F099F800214DF2082037
:102EC00001F094F85C214DF2092001F08FF8002107
:102ED0004DF20A2001F08AF881214DF20B2001F019
:102EE00085F800214DF20C2001F080F8A6214DF26A
:102EF0000D2001F07BF800214DF20E2001F076F854
:102F0000E5214DF20F2001F071F801214DF2102062
:102F100001F06CF813214DF2112001F067F8012146
:102F20004DF2122001F062F854214DF2132001F00D
:102F30005DF801214DF2142001F058F882214DF284
:102F4000152001F053F801214DF2162001F04EF842
:102F5000CA214DF2172001F049F802214DF2182044
:102F600001F044F800214DF2192001F03FF8022150
:102F70004DF21A2001F03AF801214DF21B2001F028
:102F800035F802214DF21C2001F030F834214DF2C9
:102F90001D2001F02BF802214DF21E2001F026F831
:102FA00067214DF21F2001F021F802214DF220206F
:102FB00001F01CF884214DF2212001F017F80221C4
:102FC0004DF2222001F012F8A4214DF2232001F04D
:102FD0000DF802214DF2242001F008F8B7214DF23E
:102FE000252001F003F802214DF2262000F0FEFF1B
:102FF000CF214DF2272000F0F9FF02214DF22820C9
:1030000000F0F4FFDE214DF2292000F0EFFF022155
:103010004DF22A2000F0EAFFF2214DF22B2000F0C1
:10302000E5FF02214DF22C2000F0E0FFFE214DF2E1
:103030002D2000F0DBFF03214DF22E2000F0D6FF03
:1030400010214DF22F2000F0D1FF03214DF230204E
:1030500000F0CCFF33214DF2312000F0C7FF0321F7
:103060004DF2322000F0C2FF6D214DF2332000F00E
:10307000BDFF00214FF4534000F0B8FF33214DF263
:10308000013000F0B3FF00214DF2023000F0AEFF3E
:1030900034214DF2033000F0A9FF00214DF204303D
:1030A00000F0A4FF3A214DF2053000F09FFF00210F
:1030B0004DF2063000F09AFF4A214DF2073000F041
:1030C00095FF00214DF2083000F090FF5C214DF299
:1030D000093000F08BFF00214DF20A3000F086FF2E
:1030E00081214DF20B3000F081FF00214DF20C30B8
:1030F00000F07CFFA6214DF20D3000F077FF00219B
:103100004DF20E3000F072FFE5214DF20F3000F06D
:103110006DFF01214DF2103000F068FF13214DF2D8
:10312000113000F063FF01214DF2123000F05EFF1C
:1031300054214DF2133000F059FF01214DF21430AB
:1031400000F054FF82214DF2153000F04FFF0121B5
:103150004DF2163000F04AFFCA214DF2173000F050
:1031600045FF02214DF2183000F040FF00214DF2E2
:10317000193000F03BFF02214DF21A3000F036FF0B
:1031800001214DF21B3000F031FF02214DF21C30C5
:1031900000F02CFF34214DF21D3000F027FF0221FA
:1031A0004DF21E3000F022FF67214DF21F3000F07B
:1031B0001DFF02214DF2203000F018FF84214DF256
:1031C000213000F013FF02214DF2223000F00EFFFB
:1031D000A4214DF2233000F009FF02214DF22430EA
:1031E00000F004FFB7214DF2253000F0FFFE022170
:1031F0004DF2263000F0FAFECF214DF2273000F0DC
:10320000F5FE02214DF2283000F0F0FEDE214DF2F5
:10321000293000F0EBFE02214DF22A3000F0E6FEEC
:10322000F2214DF22B3000F0E1FE02214DF22C3064
:1032300000F0DCFEFE214DF22D3000F0D7FE032120
:103240004DF22E3000F0D2FE10214DF22F3000F062
:10325000CDFE03214DF2303000F0C8FE33214DF297
:10326000313000F0C3FE03214DF2323000F0BEFEDB
:103270006D214DF2333000F0B9FE00214FF454407F
:1032800000F0B4FE33214DF2014000F0AFFE00210A
:1032900000E082E34DF2024000F0A8FE34214DF23E
:1032A000034000F0A3FE00214DF2044000F09EFE1A
:1032B0003A214DF2054000F099FE00214DF2064002
:1032C00000F094FE4A214DF2074000F08FFE0021ED
:1032D0004DF2084000F08AFE5C214DF2094000F0FA
:1032E00085FE00214DF20A4000F080FE81214DF262
:1032F0000B4000F07BFE00214DF20C4000F076FE0A
:10330000A6214DF20D4000F071FE00214DF20E405D
:1033100000F06CFEE5214DF20F4000F067FE012148
:103320004DF2104000F062FE13214DF2114000F00A
:103330005DFE01214DF2124000F058FE54214DF285
:10334000134000F053FE01214DF2144000F04EFEF8
:1033500082214DF2154000F049FE01214DF2164048
:1033600000F044FECA214DF2174000F03FFE02215A
:103370004DF2184000F03AFE00214DF2194000F0E5
:1033800035FE02214DF21A4000F030FE01214DF2CF
:103390001B4000F02BFE00E002E302214DF21C4036
:1033A00000F024FE34214DF21D4000F01FFE0221EA
:1033B0004DF21E4000F01AFE67214DF21F4000F052
:1033C00015FE02214DF2204000F010FE84214DF246
:1033D000214000F00BFE02214DF2224000F006FEDB
:1033E000A4214DF2234000F001FE02214DF22440C1
:1033F00000F0FCFDB7214DF2254000F0F7FD022161
:103400004DF2264000F0F2FDCF214DF2274000F0B2
:10341000EDFD02214DF2284000F0E8FDDE214DF2E5
:10342000294000F0E3FD02214DF22A4000F0DEFDCC
:10343000F2214DF22B4000F0D9FD02214DF22C403B
:1034400000F0D4FDFE214DF22D4000F0CFFD032110
:103450004DF22E4000F0CAFD10214DF22F4000F039
:10346000C5FD03214DF2304000F0C0FD33214DF287
:10347000314000F0BBFD03214DF2324000F0B6FDBB
:103480006D214DF2334000F0B1FD00214FF4554065
:1034900000F0ACFD33214DF2015000F0A7FD0021FA
:1034A0004DF2025000F0A2FD34214DF2035000F025
:1034B0009DFD00214DF2045000F098FD3A214DF29F
:1034C000055000F093FD00214DF2065000F08EFDF6
:1034D0004A214DF2075000F089FD00214DF20850BD
:1034E00000F084FD5C214DF2095000F07FFD0021C9
:1034F0004DF20A5000F07AFD81214DF20B5000F0A0
:1035000075FD00214DF20C5000F070FDA6214DF22A
:103510000D5000F06BFD00214DF20E5000F066FDE5
:10352000E5214DF20F5000F061FD01214DF21050E8
:1035300000F05CFD13214DF2115000F057FD012108
:103540004DF2125000F052FD54214DF2135000F094
:103550004DFD01214DF2145000F048FD82214DF245
:10356000155000F043FD01214DF2165000F03EFDD4
:10357000CA214DF2175000F039FD02214DF21850CA
:1035800000F034FD00214DF2195000F02FFD022112
:103590004DF21A5000F02AFD01214DF21B5000F0AF
:1035A00025FD02214DF21C5000F020FD34214DF28A
:1035B0001D5000F01BFD02214DF21E5000F016FDC3
:1035C00067214DF21F5000F011FD02214DF22050F5
:1035D00000F00CFD84214DF2215000F007FD022186
:1035E0004DF2225000F002FDA4214DF2235000F0D4
:1035F000FDFC02214DF2245000F0F8FCB7214DF201
:10360000255000F0F3FC02214DF2265000F0EEFCB4
:10361000CF214DF2275000F0E9FC02214DF2285055
:1036200000F0E4FCDE214DF2295000F0DFFC022125
:103630004DF22A5000F0DAFCF2214DF22B5000F04E
:10364000D5FC02214DF22C5000F0D0FCFE214DF2B1
:103650002D5000F0CBFC03214DF22E5000F0C6FCA3
:1036600010214DF22F5000F0C1FC03214DF23050DB
:1036700000F0BCFC33214DF2315000F0B7FC0321C7
:103680004DF2325000F0B2FC6D214DF2335000F09B
:10369000ADFC00214FF4564000F0A8FC33214DF260
:1036A000016000F0A3FC00214DF2026000F09EFCDE
:1036B00034214DF2036000F099FC00214DF20460CA
:1036C00000F094FC3A214DF2056000F08FFC0021DF
:1036D0004DF2066000F08AFC4A214DF2076000F0CE
:1036E00085FC00214DF2086000F080FC5C214DF269
:1036F000096000F07BFC00214DF20A6000F076FCCE
:1037000081214DF20B6000F071FC00214DF20C6044
:1037100000F06CFCA6214DF20D6000F067FC00216A
:103720004DF20E6000F062FCE5214DF20F6000F0FA
:103730005DFC01214DF2106000F058FC13214DF2A8
:10374000116000F053FC01214DF2126000F04EFCBC
:1037500054214DF2136000F049FC01214DF2146038
:1037600000F044FC82214DF2156000F03FFC012185
:103770004DF2166000F03AFCCA214DF2176000F0DD
:1037800035FC02214DF2186000F030FC00214DF2B2
:10379000196000F02BFC02214DF21A6000F026FCAB
:1037A00001214DF21B6000F021FC02214DF21C6052
:1037B00000F01CFC34214DF21D6000F017FC0221CA
:1037C0004DF21E6000F012FC67214DF21F6000F008
:1037D0000DFC02214DF2206000F008FC84214DF226
:1037E000216000F003FC02214DF2226000F0FEFB9C
:1037F000A4214DF2236000F0F9FB02214DF2246078
:1038000000F0F4FBB7214DF2256000F0EFFB022140
:103810004DF2266000F0EAFBCF214DF2276000F068
:10382000E5FB02214DF2286000F0E0FBDE214DF2C5
:10383000296000F0DBFB02214DF22A6000F0D6FB8C
:10384000F2214DF22B6000F0D1FB02214DF22C60F1
:1038500000F0CCFBFE214DF22D6000F0C7FB0321F0
:103860004DF22E6000F0C2FB10214DF22F6000F0EF
:10387000BDFB03214DF2306000F0B8FB33214DF267
:10388000316000F0B3FB03214DF2326000F0AEFB7B
:103890006D214DF2336000F0A9FB55214FF47040CB
:1038A00000F0A4FBAA214FF2010000F09FFB52217F
:1038B0004FF2020000F09AFB08214FF2030000F0E3
:1038C00095FB0021184600F091FBCC214FF43140CC
:1038D00000F08CFB00214BF2011000F087FB05216A
:1038E0004FF4364000F082FB70214FF4374000F077
:1038F0007DFB70214BF2017000F078FB01214FF449
:10390000384000F073FB03214BF6010000F06EFB22
:1039100003214BF6020000F069FB03214BF6030084
:1039200000F064FB02214FF43C4000F05FFB0021FB
:103930004BF6014000F05AFB00214BF6024000F02C
:1039400055FBD0214FF4494000F050FB02214CF6CA
:10395000011000F04BFB50214CF6021000F046FB2A
:1039600050214CF6031000F041FB50214CF604109E
:1039700000F03CFB00214FF4545000F037FB552180
:103980004FF4685000F032FB4FF4885000F018FB01
:10399000782000F061FF4FF4245000F011FBB9E0F3
:1039A0004845FCD1E22000F00BFB1D2000F0FCFAA2
:1039B000022000F0F9FA042000F0F6FA642000F08A
:1039C0004BFFE02000F0FCFA012000F0EDFA0A20A5
:1039D00000F034FFE02000F0F3FA032000F0E4FAF6
:1039E0000C2000F02BFF012000F0EAFA0A2000F082
:1039F00025FFE62000F0E4FA2F2000F0D5FAFF20A2
:103A000000F0D2FAFF2000F0CFFAB02000F0D8FA90
:103A1000202000F0C9FA002000F0C6FA032000F0D0
:103A2000C3FA40F21F3000F0BFFA012000F0BCFAE8
:103A300040F2DF1000F0B8FA002000F0B5FAB42030
:103A400000F0BEFA042000F0AFFA40F21F4000F090
:103A5000ABFA002000F0A8FA2E2000F0A5FA002012
:103A600000F0A2FA002000F09FFA002000F09CFA7B
:103A7000002000F099FAB62000F0A2FA022000F02F
:103A800093FA4FF4037000F08FFA002000F08CFAE4
:103A9000172000F089FA152000F086FA002000F0C7
:103AA00083FA002000F080FAF02000F089FA032069
:103AB00000F07AFA292000F083FAD02000F080FA92
:103AC000002000F071FABE2000F07AFA052000F024
:103AD0006BFAFE2000F068FA012000F065FA002081
:103AE00000F062FA002000F05FFA002000F05CFABB
:103AF000B82000F065FA032000F056FA012000F02B
:103B000053FABA2000F05CFA012000F04DFA64206C
:103B100000F042F8B888B04207D0A04205D0404536
:103B200003D0A84201D048451DD1DAF81C215146E6
:103B300022F00F02CAF81C21DAF81C2122F470626C
:103B4000CAF81C21DAF81C2142F00302CAF81C2131
:103B5000A042DAF81C0102D140F4407001E040F4C8
:103B60000070C1F81C010020FDF770FC0448012121
:103B7000C0F8BC125846FDF74FFC15B0BDE8F08FF9
:103B80000080404208B54FF0D840B0F88000ADF852
:103B90000000BDF8000008BD10B50246BE2000F0D0
:103BA0000FFA052000F000FA104600F04AFF9FEDE2
:103BB0000C1B53EC112B00F057FF00F015FF80B2E7
:103BC00000F0F2F9012000F0EFF9FF2000F0ECF92D
:103BD000002000F0E9F9BDE81040002000F0E4B951
:103BE000666666666666044070B5664C00232146CC
:103BF000A279898841F66315012A01D01AB11BE028
:103C0000A94202D118E0A94216D1082814D2DFE84F
:103C100000F00406080A0C0E101206200CE0072023
:103C20000AE0042008E0052006E0012004E000206E
:103C300002E0032000E00220082812D2DFE800F0B2
:103C4000110406080A0C0E1080230AE0402308E045
:103C5000C02306E0202304E0602302E0A02300E06C
:103C6000E02345F21056B14202D14FF4585000E023
:103C70003620A1F51342413A03D0A1F5EE42893A2C
:103C800001D143F00803194600F0B0F9A288AA4216
:103C90000AD098062088618802D5884202D303E0C2
:103CA000884201D9218060806089B24240D100F011
:103CB00087F9002000F078F96089401C80B200F09C
:103CC0007FF9002000F070F96089801C80B200F05C
:103CD00077F92088401EC0F30F2000F065F9608955
:103CE000C01C80B200F06CF92078401EC0B200F019
:103CF0005BF9A08900F064F9002000F055F9A08973
:103D0000401C80B200F05CF9002000F04DF9A08961
:103D1000801C80B200F054F96088401EC0F30F2070
:103D200000F042F9A089C01C80B200F049F921E0FE
:103D300000F046F9002000F037F9002000F034F9D7
:103D40002088401EC0F30F2000F02EF92078401E7E
:103D5000C0B200F029F9A08900F032F9002000F08B
:103D600023F9002000F020F96088401EC0F30F20E6
:103D700000F01AF9A078BDE87040401EC0B200F013
:103D800013B9000078010020F0B53A4D0C46024608
:103D9000060AA9882846270A4089A1F5C853633B2B
:103DA00016D0A1F5AA43103B4BD000F009F93046DC
:103DB00000F0FAF8D0B200F0F7F8A88900F000F9A6
:103DC000384600F0F1F8E0B2BDE8F04000F0ECB8A1
:103DD000A97929B300F0F4F8304600F0E5F8D0B244
:103DE00000F0E2F82888401EC0F30F2000F0DCF855
:103DF0002878401EC0B200F0D7F8A88900F0E0F89B
:103E0000384600F0D1F8E0B200F0CEF86888401EE5
:103E1000C0F30F2000F0C8F8A878401EC0B2D3E766
:103E20002988891A491E8AB200F0CAF8002000F0D9
:103E3000BBF8002000F0B8F8100A00F0B5F8D0B2D6
:103E4000D9E700F0BDF8304600F0AEF86889401CB4
:103E500080B200F0B5F8D0B200F0A6F8A88900F062
:103E6000AFF8384600F0A0F8A889401C80B200F0F6
:103E7000A7F8A8E7780100202DE9F84F82461F46F1
:103E80000E468B46580700D0012000EBD70079087A
:103E900010FB01F0203AC0B202F0FF0900250090AB
:103EA00047E00C2F10D0102F12D0182F14D0202F35
:103EB00042D1224901EBC9104FF00008445D2006B1
:103EC00010D51F48026811E009EB49001D4906E0C2
:103ED0001D4901EB0910EFE71C4909EBC90001EB93
:103EE0008000E9E70A9828B91548426831465046EB
:103EF000FDF708FB6006040E1548761CB6B2408834
:103F0000B04219D9A6EB0B00B84209D10AF1010061
:103F10001FFA80FA0E485E46018851450CD906E02A
:103F200008F1010000F0FF08B8F1080FC7D36D1CBD
:103F3000EDB200988542B4D3BDE8F88F466400081E
:103F400018000020864C0008FA500008EA560008C5
:103F5000780100202DE9F84F044600F0FF08101901
:103F60000D46DDE90A761FFA80FA58191FFA80F922
:103F70004FF0000B11E0544502D3E819444685B2D6
:103F80004D450FD23B4629462046CDF800B0FFF7FD
:103F900073FF04EB570084B2761C3278A2F1200044
:103FA0005E28E8D9BDE8F88F01B5BDF80000ADF88E
:103FB0000000BDF800004FF0D841A1F8800008BD16
:103FC00001B5BDF80000ADF80000BDF800004FF0ED
:103FD000D841A1F87E0008BD03484FF0D8410089C0
:103FE000A1F87E0070470000780100204FF0D84211
:103FF00022F87E0F51807047114810B5016886B0D5
:1040000041F02001016000680E4C00F02000059096
:104010004FF4C060009001200190029003200390B3
:1040200069462046FCF74EFA012251022046FCF771
:1040300029FB012291022046FCF724FB06B010BDAB
:104040003038024000140240FEE770477047704766
:1040500070B5214C92B00025266846F08056266047
:10406000246804F0805411941C4C266846F4804661
:10407000266024680DF1240C04F48044119401247A
:10408000009424040194022406948CE80D00660533
:10409000CDE907616846FCF76DFC00B1FEE70CA9AD
:1040A0000F2081E831004FF4A0500F904FF4805062
:1040B000109005210CA8FCF775FB00B1FEE7FCF79A
:1040C000E7FA41F20101884204D10548016841F450
:1040D0008071016012B070BD403802400070004035
:1040E000003C0240FCF7E0BA1048016841F470015E
:1040F00001600F48016841F0010101600C4A002194
:104100000832116002680B4B1A400260031D0A4A14
:104110001A60026822F48022026005480C300160B7
:1041200002495806803908607047000088ED00E0B9
:1041300000380240FFFFF6FE1030002410B5104A90
:1041400004460E48C2E9000100209060C2E9034025
:104150001046FCF760FF0A496020403100220860E9
:1041600060084860022088600548FCF7ECFEBDE866
:10417000104000210248FCF793BF000000200040DF
:10418000C80100200148FCF72ABE00008801002079
:10419000F0B50268254D264E264FDFF89CC0274B10
:1041A0004FF0804EA84209D0704507D0B04205D0EC
:1041B000B84203D0604501D0984203D122F0700488
:1041C0004A682243A8421BD0704519D0B04217D08C
:1041D000B84215D0604513D0984211D0184CA04277
:1041E0000ED0184CA0420BD0174CA04208D0174C50
:1041F000A04205D0164CA04202D0164CA04203D1DA
:1042000022F44074CA6822434C6922F0800222439F
:1042100002608A68C2620A688262A84201D098423B
:1042200001D10969016301214161F0BD0000014034
:104230000004004000080040000C00400004014061
:104240000040014000440140004801400018004087
:10425000001C00400020004010B501F01F010123A8
:10426000046A8B409C430462036A8A4013430362DE
:1042700010BD0000F0B5026A22F001020262026A7B
:1042800043688469114E24F073050C68104F2C4369
:1042900022F002058A682A43B04201D0B84205D113
:1042A00022F00805CA682A4322F00402B04201D075
:1042B000B84205D14D6923F440731D438B692B43EC
:1042C00043608461496841630262F0BD00000140BF
:1042D00000040140F0B5026A22F010020262026A94
:1042E000436884690D6824F4E64444EA05248D6833
:1042F00022F0200242EA05120F4D104EA84201D0D2
:10430000B04206D1CF6822F0800242EA071222F0C2
:104310004002A84201D0B04207D14D6923F4406366
:1043200043EA85038D6943EA8503436084614968F4
:1043300081630262F0BD0000000001400004014002
:10434000F0B5026A22F480720262026A4368C469AC
:1043500022F4007224F073050C68124E2C438D6811
:1043600042EA05220E4DA84201D0B04206D1CF68E4
:1043700022F4006242EA072222F48062A84201D0BD
:10438000B04207D14D6923F4405343EA05138D69C8
:1043900043EA05134360C4614968C1630262F0BD2A
:1043A000000001400004014030B5026A22F480524E
:1043B0000262036A4268C4690D6824F4E64444EA70
:1043C00005248D6823F4005343EA0533084DA842C1
:1043D00002D0084DA84204D14D6922F4804242EA3D
:1043E00085124260C46149680164036230BD000007
:1043F000000001400004014001494863704700008B
:104400000020004010B5806B0021C185C184FCF7FD
:104410007CFE10BD0168CA6822F49072CA6001680F
:104420004A6922F001024A61202180F83A1070475F
:1044300010B590F83A10222901D0022010BD8168F1
:10444000B1F5805F11D00169002901681FD049686A
:1044500001F07F03816A4A1C82620B70C18D491E84
:104460000904090CC18518D02BE00269816A002A71
:104470000268526805D0D2B20A80816A491C816202
:10448000ECE7C2F308020A80816A891CF7E74A68F0
:10449000816A4B1C83620A70E0E70168CA6822F0F7
:1044A0002002CA600168CA6822F48072CA6001688A
:1044B0004A6922F001024A61202180F83A10FCF793
:1044C0004DFF002010BD00002DE9F04104460068BA
:1044D0000169E26821F4405111430161A16820693A
:1044E000E26901436069104301432068C26849F2F0
:1044F0000C639A430A43C26020684169A26921F4AF
:10450000407111434161E0696425B0F5004F974A5D
:10451000974920684FF032083FD0884201D090423E
:104520007CD1FCF7E7F900EBC00101EB00106168FA
:104530008900B0FBF1F6FCF7DDF900EBC00101EBFF
:10454000001061688900B0FBF1F0B0FBF5F06FF08E
:104550001801484306EB800108EB0110B0FBF5F0B1
:1045600000F0F006FCF7C6F900EBC00101EB00100B
:1045700061688900B0FBF1F0B0FBF5F006EB0016C6
:10458000FCF7B8F900EBC00101EB0010616889008D
:10459000B0FBF1F7FCF7AEF9D2E0884201D09042CF
:1045A0003DD1FCF7A7F900EBC00101EB00106168F9
:1045B0004900B0FBF1F0B0FBF5F00601FCF79AF909
:1045C00000EBC00101EB001061684900B0FBF1F79E
:1045D000FCF790F900EBC00101EB001061684900A5
:1045E000B0FBF1F0B0FBF5F06FF01801484307EBBA
:1045F000800108EBC100B0FBF5F000F0F80006EB1D
:104600004006FCF777F900EBC00101EB0010616890
:104610004900B0FBF1F7FCF76DF93CE055E0FCF721
:1046200059F900EBC00101EB001061684900B0FBD3
:10463000F1F0B0FBF5F00601FCF74CF900EBC0011E
:1046400001EB001061684900B0FBF1F7FCF742F99B
:1046500000EBC00101EB001061684900B0FBF1F014
:10466000B0FBF5F06FF01801484307EB800108EB51
:10467000C100B0FBF5F000F0F80006EB4006FCF7D7
:1046800029F900EBC00101EB001061684900B0FBA3
:10469000F1F7FCF71FF900EBC00101EB00106168B6
:1046A0004900B0FBF1F0B0FBF5F06FF018014843A2
:1046B00007EB800108EBC100B0FBF5F000F007004C
:1046C000216830448860BDE8F081FCF703F900EB15
:1046D000C00101EB001061688900B0FBF1F6FCF746
:1046E000F9F800EBC00101EB001061688900B0FB34
:1046F000F1F0B0FBF5F06FF01801484306EB8001D4
:1047000008EB0110B0FBF5F000F0F006FCF7E2F862
:1047100000EBC00101EB001061688900B0FBF1F013
:10472000B0FBF5F006EB0016FCF7D4F800EBC00187
:1047300001EB001061688900B0FBF1F7FCF7CAF8E3
:1047400000EBC00101EB001061688900B0FBF1F0E3
:10475000B0FBF5F06FF01801484307EB800108EB60
:104760000110B0FBF5F000F00F00A9E700140140C4
:104770000010014090F83910212901D00220704723
:104780008168B1F5805F016A0BD04A1C0262026841
:1047900009785160C18C491E0904090CC1840ED0EE
:1047A00017E009880268C1F3080151600169002916
:1047B000016A02D0491C0162ECE7891CFBE7016831
:1047C000CA6822F08002CA600068C16841F04001F6
:1047D000C16000207047000010B50848FCF79CFC41
:1047E0000648FCF793FC2028FAD10122044903482B
:1047F000FCF78AFD0028F8D110BD0000E800002079
:1048000014000020FEE70907090E002804DB00F170
:10481000E02080F80014704700F00F0000F1E02065
:1048200080F8141D7047704710B504460420FCF74B
:10483000B3FA0148046010BD1000002070B50546B1
:1048400000244FF47A7603E0304600F005F8641C4B
:10485000AC42F9D370BD000070B54FF0E0250021E7
:104860006C69094AAB6912685043AA699A42FCD044
:1048700002D2A3EB020302E0A4EB02063344194484
:1048800013468142F1D370BD100000201CB50125F4
:104890000024FBF711FF0723022208214FF4A87020
:1048A000FFF7D6FBA820FFF7BFFF4FF4E13000F081
:1048B0007FF8FFF7A1FBFCF77FFDFCF78BFE40F2D2
:1048C000F31853214046FFF739FC254F4FF4784049
:1048D0002026386023A0CDE900601023C8220A21D9
:1048E0001E20FFF737FB24A0CDE9006010234FF412
:1048F000967232211E20FFF72DFB22A0CDE9006029
:104900001023C8225A211E20FFF724FB21A0CDE945
:1049100000601023C82282211E20FFF71BFB20A06D
:10492000CDE900601023C822AA211E20FFF712FB48
:104930001F20464638600520FFF780FF012D04D078
:10494000641E2404240C06D006E0641CA4B2B44205
:1049500002D1002500E001252046FFF74DFDEAE7E2
:104960001800002041706F6C6C6F2053544D33322F
:1049700046342F463700000050574D204F555450B5
:104980005554000041544F4D40414C49454E54450B
:104990004B000000323032362F362F313500000008
:1049A000617574686F723A20636875616E0000000B
:1049B0000B4910B5094AC1E9002000208860C86091
:1049C000086188610C2048610846FCF72DFCBDE8B1
:1049D0001040012203490248FCF796BC0010014038
:1049E000E8000020140000204FEA1153A3F5806373
:1049F000D3F11E03A8BFD3F1200C08DB4FF0004217
:104A000042EAC12252EA505232FA03F07047094298
:104A10000BD4102BC4BF0020704703F5787CBCF189
:104A2000FF3F05D04FF0FF3070474FF00000704758
:104A300070B500F0C3F800BF499224800020704791
:104A4000F0E7B0FA80F310FA03F10AD0C3F11D03C6
:104A500003F580634FEA41504FEA035202EBD12144
:104A600070474FF000007047DFF848C170B51CEA8E
:104A7000111E1EBF1CEA13159EEA0C0F95EA0C0FBF
:104A800000F06F8081EA030423EA4C134EEAD47EDF
:104A900021EA4C1141F4801143F48013AE44A1FB90
:104AA000024CA0FB0365AEF17F7E361955EB0C0579
:104AB000A1FB034C4CF10003A0FB021C16EB0C06FF
:104AC000654153F10003094218BF46F0010613F493
:104AD000007F0BD14FEA03314FEA0530340341EA3E
:104AE000155140EA16506FF003020AE04FEAC32165
:104AF0004FEAC520F40241EA555140EA56506FF0A2
:104B0000020202EB2E4201EB025585EACE710AD079
:104B10005FEA440C18BF24F0004450F1000041F15A
:104B2000000120EAD47040F2FE7C624500D270BDE4
:104B3000A84214BF4FF080444FF04044002E08BFFD
:104B40000024BEF1806FA8BFA1F1C041BDE8704054
:104B500080F282804FF0000001F1C04101F000417D
:104B600070479EEA0C0F0CEA131518BF95EA0C0F5C
:104B700006D04FF0000081EA030E0EF0004170BD38
:104B800000F01CF88900013E00F007B800F009B8F9
:104B90004FEA430C5FEA5C5C08D081EA030100F055
:104BA0005BB84FEA410C5FEA5C5CF6D14FF0000065
:104BB000014970470000FF070000F87F0EF1020E68
:104BC0002EF0030E5EF8046B364205D4012A43EB47
:104BD000030515F5001F12D8012841EB010C1CF547
:104BE000001F0CD80ED14FEAD17C15F5001F0CEB3D
:104BF0004C0C0CF1020C08BF4CEBD37C04E04FF0E2
:104C0000080C01E04FEAD37C0CEB4C0526FA05F6C4
:104C100006F00706B6F1040C06D20EEB860CBDE8D2
:104C200070404CF0010C6047DFE80CF0090B020209
:104C30004FF000414FF00000A1F5002170BD194672
:104C40001046012851EB010418BFD4F5001484BFAD
:104C5000002001F0004170BD0808A0F500114FEAE6
:104C6000310170474FF04070E1EE100A70470000CC
:104C7000000000000000010203040607080900000C
:104C8000000001020304000000000000000000001A
:104C90000000000000003F40000000000000000095
:104CA0003000400030004000000009000BC03D0013
:104CB0000BC03D00090018C024407FE02240318035
:104CC0000000180024C01B000D80324001800380CA
:104CD0001C4027401C80074000401000600000007E
:104CE0000000000000000000000000001F802040C5
:104CF00040200000402020401F80000000000900EC
:104D000006001F80060009000000040004003F8028
:104D1000040004000000001000600000000000001B
:104D2000000004000400040004000400000000006F
:104D300000400000000000000000002001C006004C
:104D40003800400000001F802040204020401F808D
:104D50000000000010403FC000400000000018C0EC
:104D60002140224024401840000010802040244070
:104D700024401B80000002000D0011003FC00140D4
:104D800000003C80244024402440238000001F80F9
:104D9000244024403440038000003000200027C01D
:104DA0003800200000001B802440244024401B8049
:104DB00000001C0022C0224022401F800000000092
:104DC0000000084000000000000000000000046037
:104DD000000000000000000004000A001100208014
:104DE0004040090009000900090009000000000016
:104DF0004040208011000A000400180020002340D9
:104E00002400180000001F802040274029401F4038
:104E10000000004007C039000F0001C000402040E2
:104E20003FC0244024401B8000001F8020402040C1
:104E300020403080000020403FC0204020401F80A4
:104E4000000020403FC024402E4030C000002040E1
:104E50003FC024402E00300000000F001080204092
:104E600022403380020020403FC0040004003FC0C5
:104E70002040204020403FC02040204000000060F3
:104E8000202020203FC02000200020403FC02440A0
:104E90000B0030C0204020403FC020400040004078
:104EA00000C03FC03C0003C03C003FC000002040A9
:104EB0003FC00C4023003FC020001F802040204006
:104EC00020401F80000020403FC0244024001800E4
:104ED00000001F802140214020E01FA00000204052
:104EE0003FC02440260019C0004018C02440244080
:104EF000224031800000300020403FC02040300080
:104F0000000020003F80004000403F802000200043
:104F10003E0001C0070038002000380007C03C00F8
:104F200007C038000000204039C0060039C02040CA
:104F300000002000384007C038402000000030400A
:104F400021C02640384020C00000000000007FE063
:104F5000402040200000000070000C000380004052
:104F600000000000402040207FE000000000000022
:104F70002000400020000000000000100010001081
:104F800000100010001000000000400000000000B1
:104F90000000000002800540054003C000402000E2
:104FA0003FC0044004400380000000000380044030
:104FB00004400640000000000380044024403FC03D
:104FC0000040000003800540054003400000000051
:104FD00004401FC0244024402000000002E005508F
:104FE00005500650042020403FC00440040003C088
:104FF00000400000044027C00040000000000010F6
:105000000010041027E00000000020403FC00140D5
:10501000070004C00440204020403FC00040004042
:10502000000007C0040007C0040003C000000440E3
:1050300007C00440040003C0004000000380044097
:10504000044003800000041007F004500440038073
:105050000000000003800440045007F000100440EA
:1050600007C00240040004000000000006400540A4
:10507000054004C00000000004001F800440004000
:105080000000040007800040044007C00040040006
:10509000070004C0018006000400060001C00700EC
:1050A00001C006000000044006C0010006C0044024
:1050B00000000410071004E0018006000400000056
:1050C000044005C006400440000000000000040049
:1050D0007BE040200000000000000000FFF0000026
:1050E0000000000040207BE00400000000004000C1
:1050F0008000400020002000400000000000000070
:10510000000000000000000000000000000000009F
:105110001FCC000C00000000000000000800300060
:1051200060000800300060000000022003FC1E2028
:10513000022003FC1E200220000000000E181104B3
:105140003FFF10840C78000000000F0010840F381F
:1051500000C0077818840078000000780F8410C41D
:1051600011240E9800E40084000808006800700014
:10517000000000000000000000000000000000002F
:1051800007E018182004400200000000400220043C
:10519000181807E0000000000000024002400180F3
:1051A0000FF001800240024000000080008000807B
:1051B0000FF800800080008000000001000D000E4C
:1051C00000000000000000000000000000800080DF
:1051D000008000800080008000800000000C000C37
:1051E00000000000000000000000000000060018A1
:1051F00000600180060018002000000007F0080889
:1052000010041004080807F0000000000804080457
:105210001FFC000400040000000000000E0C10142D
:105220001024104411840E0C000000000C1810040F
:105230001104110412880C700000000000E003202B
:10524000042408241FFC0024000000001F98108480
:1052500011041104108810700000000007F0088885
:105260001104110418880070000000001C001000D8
:1052700010FC13001C001000000000000E38114448
:105280001084108411440E38000000000700088CC0
:1052900010441044088807F00000000000000000DF
:1052A000030C030C000000000000000000000001DF
:1052B0000106000000000000000000000080014026
:1052C000022004100808100400000220022002201E
:1052D0000220022002200220000000001004080822
:1052E0000410022001400080000000000E001200A7
:1052F000100C106C10800F00000003E00C1813E479
:10530000142417C4082807D000000004003C03C47C
:105310001C40074000E4001C000410041FFC1104A2
:10532000110411040E880070000003E00C18100432
:105330001004100410081C10000010041FFC1004BE
:1053400010041004080807F0000010041FFC1104EA
:10535000110417C410040818000010041FFC1104E5
:10536000110017C010000800000003E00C18100422
:10537000100410441C780040000010041FFC10842E
:105380000080008010841FFC100400001004100432
:105390001FFC1004100400000000000300011001B5
:1053A00010011FFE10001000000010041FFC11046B
:1053B00003801464181C1004000010041FFC100467
:1053C000000400040004000C000010041FFC1F0077
:1053D00000FC1F001FFC1004000010041FFC0C0444
:1053E000030000E010181FFC100007F0080810046C
:1053F00010041004080807F0000010041FFC1084BB
:105400001080108010800F00000007F00818102492
:105410001024101C080A07F2000010041FFC1104DD
:10542000110011C011300E0C000400000E1C1104FC
:105430001084108410441C38000018001000100460
:105440001FFC100410001800000010001FF81004CA
:105450000004000410041FF8100010001E0011E0EA
:10546000001C007013801C0010001FC0103C00E0E6
:105470001F0000E0103C1FC000001004180C163480
:1054800001C001C01634180C100410001C001304D5
:1054900000FC13041C00100000000804101C106421
:1054A000108413041C041018000000000000000009
:1054B0007FFE4002400240020000000030000C006D
:1054C00003800060001C0003000000004002400256
:1054D00040027FFE000000000000000000002000ED
:1054E00040004000400020000000000100010001D9
:1054F0000001000100010001000100004000400027
:1055000020000000000000000000000000980124BE
:1055100001440144014400FC000410001FFC008809
:105520000104010400880070000000000070008881
:1055300001040104010400880000000000700088DC
:105540000104010411081FFC0004000000F80144DC
:1055500001440144014400C80000000001040104AA
:105560000FFC1104110411001800000000D60129DD
:105570000129012901C90106000010041FFC008453
:1055800001000100010400FC0004000001041904F2
:1055900019FC0004000400000000000000030001EA
:1055A0000101190119FE0000000010041FFC002475
:1055B000004001B4010C01040000000010041004BC
:1055C0001FFC0004000400000000010401FC0104B1
:1055D000010001FC0104010000FC010401FC008445
:1055E00001000100010400FC0004000000F80104B7
:1055F00001040104010400F80000010101FF00851D
:1056000001040104008800700000000000700088A0
:1056100001040104010501FF00010104010401FC72
:1056200000840104010001800000000000CC01247E
:105630000124012401240198000000000100010060
:1056400007F80104010400000000010001F8000453
:1056500000040004010801FC000401000180017045
:10566000000C001001600180010001F0010C00300D
:1056700001C00030010C01F0010000000104018CA8
:1056800000740170018C01040000010101810171AD
:10569000000E001801600180010000000184010C6F
:1056A000013401440184010C0000000000000000EE
:1056B000000001003EFC400240020000000000002B
:1056C0000000FFFF00000000000000004002400258
:1056D0003EFC0100000000000000000060008000AF
:1056E000800040004000200020000000000000007A
:1056F00000000000000000000000000000000000AA
:105700000000000000000000000000000000000099
:10571000000000000000000000000000000F8038C2
:105720000FFE380F8038000000000000000000006D
:1057300000000000000000000100000600000C0056
:10574000003800003100000600000C0000380000A6
:105750003000000000000000000061800067F807D2
:10576000F9800061800061800061800061800067D5
:10577000F807F980006180000000000000000000D0
:1057800001C0E003E0F00630080418081FFFFE0423
:105790000E080787F00381E000000000000001F020
:1057A00000060C00040408060C7001F9C0000E008D
:1057B000003BE000EC18070808040C180003E000A8
:1057C00000000001E00007F003F818041C080417AB
:1057D0000807E1D003C0E00023B0003C0800200827
:1057E0000000100000000000000100003100003245
:1057F00000001C000000000000000000000000008D
:105800000000000000000000000000000000000098
:10581000000000000000000000007F0001FFC00742
:1058200080F00C00181000042000020000000000AE
:10583000002000021000040C00180780F001FFC0D7
:10584000007F0000000000000000000000000000D9
:105850000000000000004200006600006600003CFE
:105860000000180003FFC0001800003C00006600A4
:105870000066000042000000000008000008000070
:10588000080000080000080001FFC0000800000830
:1058900000000800000800000800000000000001EF
:1058A00000003100003200001C0000000000000079
:1058B00000000000000000000000000000000000E8
:1058C00000000800000800000800000800000800B0
:1058D00000080000080000080000080000080000A0
:1058E0000000000000000000000038000038000048
:1058F0003800000000000000000000000000000070
:1059000000000000000000000000000600001C0075
:105910000070000180000E0000380000C000070089
:10592000001C0000300000000000000000007F802C
:1059300001FFE00380700600180400080400080658
:10594000001803807001FFE0007F8000000000006D
:105950000000000001000801000801000803FFF832
:1059600007FFF80000080000080000080000000021
:10597000000000000001C03802C058040098040173
:1059800018040218040418061C1803F81801E0F89B
:1059900000000000000000000001C0E003C0F004AF
:1059A000000804080804080806180803F41801E7AA
:1059B000F00001E000000000000000000000030013
:1059C000000D0000110000610000810803010807BC
:1059D000FFF80FFFF80001080001080000000000B8
:1059E000000000E007FCD0060808061008061008B2
:1059F000061008061838060FF00607C00000000061
:105A00000000000000003F8001FFE0038430020836
:105A100018041008041008041008071810030FF0E9
:105A20000007C000000000000000000003C00007E5
:105A300000000600000600F80607F806180006E059
:105A40000007000006000000000000000001E1E087
:105A500003F7F0063410041808041808040C0804AE
:105A60000C0806161803F3F001C1E0000000000066
:105A70000000F80003FC30030638040208040208A2
:105A80000402080404100308F001FFC0007F0000B6
:105A90000000000000000000000000000000000006
:105AA00000007038007038007038000000000000FE
:105AB00000000000000000000000000000000000E6
:105AC000000000000000301A00301C000000000040
:105AD00000000000000000000000000000000000C6
